{
  "_format": "hh-sol-artifact-1",
  "contractName": "OracleHub",
  "sourceName": "contracts/OracleHub.sol",
  "abi": [
    {
      "inputs": [
        {
          "internalType": "address",
          "name": "_oracleToken",
          "type": "address"
        }
      ],
      "stateMutability": "nonpayable",
      "type": "constructor"
    },
    {
      "inputs": [
        {
          "internalType": "address",
          "name": "owner",
          "type": "address"
        }
      ],
      "name": "OwnableInvalidOwner",
      "type": "error"
    },
    {
      "inputs": [
        {
          "internalType": "address",
          "name": "account",
          "type": "address"
        }
      ],
      "name": "OwnableUnauthorizedAccount",
      "type": "error"
    },
    {
      "inputs": [],
      "name": "ReentrancyGuardReentrantCall",
      "type": "error"
    },
    {
      "anonymous": false,
      "inputs": [
        {
          "indexed": true,
          "internalType": "bytes32",
          "name": "requestId",
          "type": "bytes32"
        },
        {
          "indexed": false,
          "internalType": "address",
          "name": "requester",
          "type": "address"
        },
        {
          "indexed": false,
          "internalType": "string",
          "name": "dataType",
          "type": "string"
        },
        {
          "indexed": false,
          "internalType": "uint256",
          "name": "fee",
          "type": "uint256"
        }
      ],
      "name": "DataRequested",
      "type": "event"
    },
    {
      "anonymous": false,
      "inputs": [
        {
          "indexed": true,
          "internalType": "address",
          "name": "previousOwner",
          "type": "address"
        },
        {
          "indexed": true,
          "internalType": "address",
          "name": "newOwner",
          "type": "address"
        }
      ],
      "name": "OwnershipTransferred",
      "type": "event"
    },
    {
      "anonymous": false,
      "inputs": [
        {
          "indexed": true,
          "internalType": "bytes32",
          "name": "requestId",
          "type": "bytes32"
        },
        {
          "indexed": false,
          "internalType": "bytes",
          "name": "result",
          "type": "bytes"
        },
        {
          "indexed": false,
          "internalType": "uint256",
          "name": "correctCount",
          "type": "uint256"
        },
        {
          "indexed": false,
          "internalType": "uint256",
          "name": "incorrectCount",
          "type": "uint256"
        }
      ],
      "name": "RequestFinalized",
      "type": "event"
    },
    {
      "anonymous": false,
      "inputs": [
        {
          "indexed": true,
          "internalType": "bytes32",
          "name": "requestId",
          "type": "bytes32"
        },
        {
          "indexed": false,
          "internalType": "address",
          "name": "agent",
          "type": "address"
        },
        {
          "indexed": false,
          "internalType": "bytes",
          "name": "data",
          "type": "bytes"
        }
      ],
      "name": "ResponseSubmitted",
      "type": "event"
    },
    {
      "anonymous": false,
      "inputs": [
        {
          "indexed": true,
          "internalType": "bytes32",
          "name": "requestId",
          "type": "bytes32"
        },
        {
          "indexed": false,
          "internalType": "address[]",
          "name": "agents",
          "type": "address[]"
        },
        {
          "indexed": false,
          "internalType": "uint256[]",
          "name": "rewards",
          "type": "uint256[]"
        }
      ],
      "name": "RewardDistributed",
      "type": "event"
    },
    {
      "inputs": [],
      "name": "MIN_STAKE",
      "outputs": [
        {
          "internalType": "uint256",
          "name": "",
          "type": "uint256"
        }
      ],
      "stateMutability": "view",
      "type": "function"
    },
    {
      "inputs": [],
      "name": "REWARD_MULTIPLIER",
      "outputs": [
        {
          "internalType": "uint256",
          "name": "",
          "type": "uint256"
        }
      ],
      "stateMutability": "view",
      "type": "function"
    },
    {
      "inputs": [],
      "name": "SLASH_PENALTY",
      "outputs": [
        {
          "internalType": "uint256",
          "name": "",
          "type": "uint256"
        }
      ],
      "stateMutability": "view",
      "type": "function"
    },
    {
      "inputs": [
        {
          "internalType": "uint256",
          "name": "",
          "type": "uint256"
        }
      ],
      "name": "agentList",
      "outputs": [
        {
          "internalType": "address",
          "name": "",
          "type": "address"
        }
      ],
      "stateMutability": "view",
      "type": "function"
    },
    {
      "inputs": [],
      "name": "agentRegistry",
      "outputs": [
        {
          "internalType": "address",
          "name": "",
          "type": "address"
        }
      ],
      "stateMutability": "view",
      "type": "function"
    },
    {
      "inputs": [
        {
          "internalType": "address",
          "name": "",
          "type": "address"
        }
      ],
      "name": "agents",
      "outputs": [
        {
          "internalType": "bool",
          "name": "isRegistered",
          "type": "bool"
        },
        {
          "internalType": "uint256",
          "name": "stake",
          "type": "uint256"
        },
        {
          "internalType": "uint256",
          "name": "reputation",
          "type": "uint256"
        },
        {
          "internalType": "uint256",
          "name": "totalRequests",
          "type": "uint256"
        },
        {
          "internalType": "uint256",
          "name": "correctResponses",
          "type": "uint256"
        }
      ],
      "stateMutability": "view",
      "type": "function"
    },
    {
      "inputs": [
        {
          "internalType": "bytes32",
          "name": "requestId",
          "type": "bytes32"
        }
      ],
      "name": "finalizeRequest",
      "outputs": [
        {
          "internalType": "bytes",
          "name": "result",
          "type": "bytes"
        }
      ],
      "stateMutability": "nonpayable",
      "type": "function"
    },
    {
      "inputs": [
        {
          "internalType": "bytes32",
          "name": "requestId",
          "type": "bytes32"
        }
      ],
      "name": "getRequest",
      "outputs": [
        {
          "internalType": "address",
          "name": "requester",
          "type": "address"
        },
        {
          "internalType": "string",
          "name": "dataType",
          "type": "string"
        },
        {
          "internalType": "uint256",
          "name": "fee",
          "type": "uint256"
        },
        {
          "internalType": "uint8",
          "name": "requiredAgents",
          "type": "uint8"
        },
        {
          "internalType": "uint256",
          "name": "responseCount",
          "type": "uint256"
        },
        {
          "internalType": "bool",
          "name": "finalized",
          "type": "bool"
        }
      ],
      "stateMutability": "view",
      "type": "function"
    },
    {
      "inputs": [],
      "name": "oracleToken",
      "outputs": [
        {
          "internalType": "contract IERC20",
          "name": "",
          "type": "address"
        }
      ],
      "stateMutability": "view",
      "type": "function"
    },
    {
      "inputs": [],
      "name": "owner",
      "outputs": [
        {
          "internalType": "address",
          "name": "",
          "type": "address"
        }
      ],
      "stateMutability": "view",
      "type": "function"
    },
    {
      "inputs": [],
      "name": "renounceOwnership",
      "outputs": [],
      "stateMutability": "nonpayable",
      "type": "function"
    },
    {
      "inputs": [
        {
          "internalType": "string",
          "name": "dataType",
          "type": "string"
        },
        {
          "internalType": "bytes",
          "name": "parameters",
          "type": "bytes"
        },
        {
          "internalType": "uint8",
          "name": "requiredAgents",
          "type": "uint8"
        },
        {
          "internalType": "uint8",
          "name": "consensusThreshold",
          "type": "uint8"
        }
      ],
      "name": "requestData",
      "outputs": [
        {
          "internalType": "bytes32",
          "name": "requestId",
          "type": "bytes32"
        }
      ],
      "stateMutability": "payable",
      "type": "function"
    },
    {
      "inputs": [
        {
          "internalType": "bytes32",
          "name": "",
          "type": "bytes32"
        }
      ],
      "name": "requests",
      "outputs": [
        {
          "internalType": "address",
          "name": "requester",
          "type": "address"
        },
        {
          "internalType": "string",
          "name": "dataType",
          "type": "string"
        },
        {
          "internalType": "bytes",
          "name": "parameters",
          "type": "bytes"
        },
        {
          "internalType": "uint256",
          "name": "fee",
          "type": "uint256"
        },
        {
          "internalType": "uint8",
          "name": "requiredAgents",
          "type": "uint8"
        },
        {
          "internalType": "uint8",
          "name": "consensusThreshold",
          "type": "uint8"
        },
        {
          "internalType": "uint256",
          "name": "deadline",
          "type": "uint256"
        },
        {
          "internalType": "bool",
          "name": "finalized",
          "type": "bool"
        },
        {
          "internalType": "bytes",
          "name": "result",
          "type": "bytes"
        }
      ],
      "stateMutability": "view",
      "type": "function"
    },
    {
      "inputs": [
        {
          "internalType": "address",
          "name": "_agentRegistry",
          "type": "address"
        }
      ],
      "name": "setAgentRegistry",
      "outputs": [],
      "stateMutability": "nonpayable",
      "type": "function"
    },
    {
      "inputs": [
        {
          "internalType": "bytes32",
          "name": "requestId",
          "type": "bytes32"
        },
        {
          "internalType": "bytes",
          "name": "data",
          "type": "bytes"
        },
        {
          "internalType": "string",
          "name": "proof",
          "type": "string"
        }
      ],
      "name": "submitResponse",
      "outputs": [],
      "stateMutability": "nonpayable",
      "type": "function"
    },
    {
      "inputs": [
        {
          "internalType": "address",
          "name": "newOwner",
          "type": "address"
        }
      ],
      "name": "transferOwnership",
      "outputs": [],
      "stateMutability": "nonpayable",
      "type": "function"
    }
  ],
  "bytecode": "0x6080346100ca57601f611a8538819003918201601f19168301916001600160401b038311848410176100cf578084926020946040528339810103126100ca57516001600160a01b0390818116908190036100ca5733156100b15760005460018060a01b0319903382821617600055604051933391167f8be0079c531659141344cd1fd0a4f28419497f9722a3daafe3b4186f6b6457e0600080a360018055600554161760055561199f90816100e68239f35b604051631e4fbdf760e01b815260006004820152602490fd5b600080fd5b634e487b7160e01b600052604160045260246000fdfe608080604052600436101561001357600080fd5b60003560e01c9081630d1cfcae146115a6575080630dc7c70c1461158a57806328342ecf1461153f5780632f80c54f146114e457806340dafb6e14610fde578063598b47dd14610fc157806359b0a8d914610b5e578063715018a614610b0557806383472fcf14610adc5780638da5cb5b14610ab35780639d866985146109e3578063cb1c2b5c146109bf578063ec86885d1461025d578063f2fde38b146101cd578063fb1e61ca146101435763fd66091e146100cf57600080fd5b3461013e57602036600319011261013e576004356001600160a01b0381169081900361013e57600052600360205260a0604060002060ff815416906002810154906003810154600560048301549201549260405194151585526020850152604084015260608301526080820152f35b600080fd5b3461013e57602036600319011261013e576004356000526002602052604060002060018060a01b03815416600382015460ff600484015416926008810154610195600160ff600685015416930161166d565b946101b2604051968796875260c0602088015260c0870190611792565b93604086015260608501526080840152151560a08301520390f35b3461013e57602036600319011261013e576004356001600160a01b038181169182900361013e576101fc61193d565b811561024457600054826bffffffffffffffffffffffff60a01b821617600055167f8be0079c531659141344cd1fd0a4f28419497f9722a3daafe3b4186f6b6457e0600080a3005b604051631e4fbdf760e01b815260006004820152602490fd5b3461013e57602036600319011261013e576002600154146109ad576002600155600435600052600260205260406000206102a160018060a01b0382541615156117d2565b60ff6006820154166109745760088101549060ff6004820154168210801590610967575b1561092c576001810160405160208101918160008254926102e5846115f7565b936001811690811561090e57506001146108cc575b5061030e925003601f19810183528261164c565b51902060405160208101906b63727970746f5f707269636560a01b8252600c815261033881611631565b51902003610893579061034a81611903565b90610358604051928361164c565b808252601f1961036782611903565b0136602084013760005b81811061085657506000905b825182101561041357600182018083116103fd575b83518110156103f1576001906103a88486611929565b516103b38287611929565b51106103c0575b01610392565b6103ca8486611929565b516103d58287611929565b516103e08688611929565b526103eb8287611929565b526103ba565b5060019091019061037d565b634e487b7160e01b600052601160045260246000fd5b61042292915060011c90611929565b516040519060208201526020815261043981611631565b905b8151916001600160401b038311610840576104668361045d60078501546115f7565b60078501611874565b602092601f81116001146107d457806104979293946000916107c9575b508160011b916000199060031b1c19161790565b60078301555b60068201805460ff191660011790556008820154600090816104be82611903565b916104cc604051938461164c565b8083526104db601f1991611903565b013660208401376000925b600886015484101561066c5761050b60016105048660088a01611812565b5001611712565b60208151910120855160208701201461054081600461052d8860088c01611812565b50019060ff801983541691151516179055565b156105e1576105726001916105588660088a01611812565b50838060a01b0390541661056c8287611929565b5261191a565b936105808160088901611812565b50828060a01b03905416600052600360205260056040600020016105a4815461191a565b90555b6105b48160088901611812565b50828060a01b03905416600052600360205260046040600020016105d8815461191a565b905501926104e6565b92906105ec9061191a565b906105fa8160088801611812565b5060018060a01b0390541660005260039081602052600260406000200154916032928381029381850414901517156103fd576106398260088a01611812565b5060018060a01b039054166000526020526002604060002001916103e88354910481039081116103fd57600192556105a7565b92509382159081156106e5575b5050507fa08a724cd58dacfb0700f2b9e32ea83c2868078d9a6a16bdd6ad57689e4808316106e19360405190606082526106b66060830186611792565b936020830152604082015280600435930390a260018055604051918291602083526020830190611792565b0390f35b60030154906107b35782900460005b83811015610679576001600160a01b0361070e8285611929565b511661071d575b6001016106f4565b600554600091906020906001600160a01b03908116906044906107408589611929565b5116604051958693849263a9059cbb60e01b845260048401528860248401525af19182156107a757600192610778575b509050610715565b6107999060203d6020116107a0575b610791818361164c565b8101906118eb565b5087610770565b503d610787565b6040513d6000823e3d90fd5b634e487b7160e01b600052601260045260246000fd5b905083015185610483565b60078301600052602060002060005b601f19831681106108285750600192939482601f1981161061080f575b5050811b01600783015561049d565b84015160001960f88460031b161c191690558480610800565b838601518255602095860195600190920191016107e3565b634e487b7160e01b600052604160045260246000fd5b61086a600161050483600888969801611812565b9060208280518101031261013e57602060019201516108898286611929565b5201929092610371565b90156108b657600881016000526108b06001602060002001611712565b9061043b565b634e487b7160e01b600052603260045260246000fd5b9150506000528160206000206000905b8382106108f4575050602061030e92820101876102fa565b6020919250806001915483858801015201910183916108dc565b60ff191687525061030e9380151502830160200191508890506102fa565b60405162461bcd60e51b81526020600482015260136024820152724e656564206d6f726520726573706f6e73657360681b6044820152606490fd5b50600581015442116102c5565b60405162461bcd60e51b8152602060048201526011602482015270105b1c9958591e48199a5b985b1a5e9959607a1b6044820152606490fd5b604051633ee5aeb560e01b8152600490fd5b3461013e57600036600319011261013e576020604051683635c9adc5dea000008152f35b3461013e57602036600319011261013e57600435600090815260026020526040902080546001600160a01b03166106e1610a1f6001840161166d565b92610a2c60028201611712565b600382015491600481015460ff600583015491610a82610a556007846006880154169601611712565b95610a746040519b8c809c6020610120928392815201528c0190611792565b908a820360408c0152611792565b956060890152818116608089015260081c1660a087015260c0860152151560e0850152838203610100850152611792565b3461013e57600036600319011261013e576000546040516001600160a01b039091168152602090f35b3461013e57600036600319011261013e576005546040516001600160a01b039091168152602090f35b3461013e57600036600319011261013e57610b1e61193d565b600080546001600160a01b0319811682556001600160a01b03167f8be0079c531659141344cd1fd0a4f28419497f9722a3daafe3b4186f6b6457e08280a3005b608036600319011261013e576004356001600160401b03811161013e57610b899036906004016115ca565b906024356001600160401b03811161013e57610ba99036906004016115ca565b60449291923560ff8116810361013e5760ff60643516806064350361013e57600360ff831610610f835760338110159081610f77575b5015610f3e5760405160208101903360601b825286856034830137610c24605482868a8201818b6034830160008152370142603482015203603481018452018261164c565b519020936000602060018060a01b03600554166064604051809481936323b872dd60e01b835233600484015230602484015268056bc75e2d6310000060448401525af19081156107a757600091610f1f575b5015610ee457600085815260026020526040902080546001600160a01b03191633178155926001600160401b03871161084057610cc387610cba60018701546115f7565b60018701611874565b600087601f8111600114610e775780610cf192600091610e6c57508160011b916000199060031b1c19161790565b60018501555b60028401916001600160401b03821161084057610d1e82610d1885546115f7565b85611874565b600090601f8311600114610e0457610d4f929160009183610df9575b50508160011b916000199060031b1c19161790565b90555b68056bc75e2d6310000060038301556004820190815460ff61ff0060643560081b1692169061ffff19161717905560784201918242116103fd57602094600683869560057fb6e7a88145598b3b41f38260800402b50b9d816b70358ce8aebcb425f8778eac9601550160ff198154169055610ddf60405192839233845260608985015260608401916118ca565b68056bc75e2d6310000060408301520390a2604051908152f35b013590508980610d3a565b601f198316918460005260206000209260005b818110610e545750908460019594939210610e3a575b505050811b019055610d52565b0135600019600384901b60f8161c19169055888080610e2d565b91936020600181928787013581550195019201610e17565b90508701358a610483565b506001850160005260206000209060005b601f198a168110610ecc575088601f19811610610eb2575b5050600187811b016001850155610cf7565b86013560001960038a901b60f8161c191690558780610ea0565b9091602060018192858b013581550193019101610e88565b60405162461bcd60e51b8152602060048201526013602482015272119959481d1c985b9cd9995c8819985a5b1959606a1b6044820152606490fd5b610f38915060203d6020116107a057610791818361164c565b87610c76565b60405162461bcd60e51b81526020600482015260116024820152705468726573686f6c642035312d3130302560781b6044820152606490fd5b60649150111586610bdf565b60405162461bcd60e51b81526020600482015260166024820152754e656564206174206c656173742033206167656e747360501b6044820152606490fd5b3461013e57600036600319011261013e5760206040516127108152f35b3461013e57606036600319011261013e576024356001600160401b03811161013e5761100e9036906004016115ca565b90604480356001600160401b03811161013e5761102f9036906004016115ca565b6004356000526002602052604060002060018060a01b03936110558583541615156117d2565b60ff6006830154166114a057600582015442101561146a5733600052600360205260ff604060002054161561142f57336000526003602052683635c9adc5dea00000600260406000200154106113f65790600860009101918254915b8281106113a25750506040519360a08501908582106001600160401b03831117610840576110f9916040523386526110ea368a8a61182e565b9460208701958652369161182e565b604085015242606085015260006080850152680100000000000000008110156108405761112b91600182018155611812565b93909361138c57825184546001600160a01b0319169116178355518051906001600160401b0382116108405761116882610cba60018701546115f7565b602090601f831160011461131a5761119892916000918361130f5750508160011b916000199060031b1c19161790565b60018301555b6002820160408201518051906001600160401b038211610840576111c682610d1885546115f7565b602090601f8311600114611278577f0fe225c4ace8a0f337f28df4dd6f0946e452acc35c9606982d8abce16538bc7a969461124a9461122685611268999660049660809660009261126d5750508160011b916000199060031b1c19161790565b90555b606081015160038501550151151591019060ff801983541691151516179055565b604051918291338352604060208401526004359560408401916118ca565b0390a2005b015190508d80610d3a565b90601f198316918460005260206000209260005b8181106112f75750946001856004956080957f0fe225c4ace8a0f337f28df4dd6f0946e452acc35c9606982d8abce16538bc7a9c9a956112689c9961124a9b106112de575b505050811b019055611229565b015160001960f88460031b161c191690558c80806112d1565b9293602060018192878601518155019501930161128c565b015190508780610d3a565b9190600185016000526020600020906000935b601f1984168510611371576001945083601f19811610611358575b505050811b01600183015561119e565b015160001960f88460031b161c19169055868080611348565b8181015183556020948501946001909301929091019061132d565b634e487b7160e01b600052600060045260246000fd5b6113ac8185611812565b5054871633146113be576001016110b1565b60405162461bcd60e51b8152602060048201526011602482015270105b1c9958591e481c995cdc1bdb991959607a1b81840152606490fd5b60649071496e73756666696369656e74207374616b6560701b6040519162461bcd60e51b83526020600484015260126024840152820152fd5b606490731059d95b9d081b9bdd081c9959da5cdd195c995960621b6040519162461bcd60e51b83526020600484015260146024840152820152fd5b6064906e111958591b1a5b99481c185cdcd959608a1b6040519162461bcd60e51b835260206004840152600f6024840152820152fd5b6064907f5265717565737420616c72656164792066696e616c697a6564000000000000006040519162461bcd60e51b83526020600484015260196024840152820152fd5b3461013e57602036600319011261013e5760043560045481101561013e5760046000527f8a35acfbc15ff81a39ae7d344fd709f28e8600b4aa8c65c6b64bfe7fe36bd19b01546040516001600160a01b039091168152602090f35b3461013e57602036600319011261013e576004356001600160a01b0381169081900361013e5761156d61193d565b6bffffffffffffffffffffffff60a01b6006541617600655600080f35b3461013e57600036600319011261013e57602060405160328152f35b3461013e57600036600319011261013e576006546001600160a01b03168152602090f35b9181601f8401121561013e578235916001600160401b03831161013e576020838186019501011161013e57565b90600182811c92168015611627575b602083101461161157565b634e487b7160e01b600052602260045260246000fd5b91607f1691611606565b604081019081106001600160401b0382111761084057604052565b90601f801991011681019081106001600160401b0382111761084057604052565b90604051918260008254611680816115f7565b908184526020946001916001811690816000146116f057506001146116b1575b5050506116af9250038361164c565b565b600090815285812095935091905b8183106116d85750506116af93508201013880806116a0565b855488840185015294850194879450918301916116bf565b925050506116af94925060ff191682840152151560051b8201013880806116a0565b90604051918260008254611725816115f7565b908184526020946001916001811690816000146116f05750600114611753575050506116af9250038361164c565b600090815285812095935091905b81831061177a5750506116af93508201013880806116a0565b85548884018501529485019487945091830191611761565b919082519283825260005b8481106117be575050826000602080949584010152601f8019910116010190565b60208183018101518483018201520161179d565b156117d957565b60405162461bcd60e51b815260206004820152601160248201527014995c5d595cdd081b9bdd08199bdd5b99607a1b6044820152606490fd5b80548210156108b6576000526005602060002091020190600090565b9291926001600160401b0382116108405760405191611857601f8201601f19166020018461164c565b82948184528183011161013e578281602093846000960137010152565b90601f811161188257505050565b6000916000526020600020906020601f850160051c830194106118c0575b601f0160051c01915b8281106118b557505050565b8181556001016118a9565b90925082906118a0565b908060209392818452848401376000828201840152601f01601f1916010190565b9081602091031261013e5751801515810361013e5790565b6001600160401b0381116108405760051b60200190565b60001981146103fd5760010190565b80518210156108b65760209160051b010190565b6000546001600160a01b0316330361195157565b60405163118cdaa760e01b8152336004820152602490fdfea2646970667358221220770219045837086506ebabecc56bd7f6f84c8b34dd9323c0958b24aba99ae97264736f6c63430008180033",
  "linkReferences": {},
  "deployedLinkReferences": {}
}