{"contracts/OracleHub.sol":{"OracleHub":{"abi":[{"inputs":[{"internalType":"address","name":"_oracleToken","type":"address"}],"stateMutability":"nonpayable","type":"constructor"},{"inputs":[{"internalType":"address","name":"owner","type":"address"}],"name":"OwnableInvalidOwner","type":"error"},{"inputs":[{"internalType":"address","name":"account","type":"address"}],"name":"OwnableUnauthorizedAccount","type":"error"},{"inputs":[],"name":"ReentrancyGuardReentrantCall","type":"error"},{"anonymous":false,"inputs":[{"indexed":true,"internalType":"bytes32","name":"requestId","type":"bytes32"},{"indexed":false,"internalType":"address","name":"requester","type":"address"},{"indexed":false,"internalType":"string","name":"dataType","type":"string"},{"indexed":false,"internalType":"uint256","name":"fee","type":"uint256"}],"name":"DataRequested","type":"event"},{"anonymous":false,"inputs":[{"indexed":true,"internalType":"address","name":"previousOwner","type":"address"},{"indexed":true,"internalType":"address","name":"newOwner","type":"address"}],"name":"OwnershipTransferred","type":"event"},{"anonymous":false,"inputs":[{"indexed":true,"internalType":"bytes32","name":"requestId","type":"bytes32"},{"indexed":false,"internalType":"bytes","name":"result","type":"bytes"},{"indexed":false,"internalType":"uint256","name":"correctCount","type":"uint256"},{"indexed":false,"internalType":"uint256","name":"incorrectCount","type":"uint256"}],"name":"RequestFinalized","type":"event"},{"anonymous":false,"inputs":[{"indexed":true,"internalType":"bytes32","name":"requestId","type":"bytes32"},{"indexed":false,"internalType":"address","name":"agent","type":"address"},{"indexed":false,"internalType":"bytes","name":"data","type":"bytes"}],"name":"ResponseSubmitted","type":"event"},{"anonymous":false,"inputs":[{"indexed":true,"internalType":"bytes32","name":"requestId","type":"bytes32"},{"indexed":false,"internalType":"address[]","name":"agents","type":"address[]"},{"indexed":false,"internalType":"uint256[]","name":"rewards","type":"uint256[]"}],"name":"RewardDistributed","type":"event"},{"inputs":[],"name":"MIN_STAKE","outputs":[{"internalType":"uint256","name":"","type":"uint256"}],"stateMutability":"view","type":"function"},{"inputs":[],"name":"REWARD_MULTIPLIER","outputs":[{"internalType":"uint256","name":"","type":"uint256"}],"stateMutability":"view","type":"function"},{"inputs":[],"name":"SLASH_PENALTY","outputs":[{"internalType":"uint256","name":"","type":"uint256"}],"stateMutability":"view","type":"function"},{"inputs":[{"internalType":"uint256","name":"","type":"uint256"}],"name":"agentList","outputs":[{"internalType":"address","name":"","type":"address"}],"stateMutability":"view","type":"function"},{"inputs":[],"name":"agentRegistry","outputs":[{"internalType":"address","name":"","type":"address"}],"stateMutability":"view","type":"function"},{"inputs":[{"internalType":"address","name":"","type":"address"}],"name":"agents","outputs":[{"internalType":"bool","name":"isRegistered","type":"bool"},{"internalType":"uint256","name":"stake","type":"uint256"},{"internalType":"uint256","name":"reputation","type":"uint256"},{"internalType":"uint256","name":"totalRequests","type":"uint256"},{"internalType":"uint256","name":"correctResponses","type":"uint256"}],"stateMutability":"view","type":"function"},{"inputs":[{"internalType":"bytes32","name":"requestId","type":"bytes32"}],"name":"finalizeRequest","outputs":[{"internalType":"bytes","name":"result","type":"bytes"}],"stateMutability":"nonpayable","type":"function"},{"inputs":[{"internalType":"bytes32","name":"requestId","type":"bytes32"}],"name":"getRequest","outputs":[{"internalType":"address","name":"requester","type":"address"},{"internalType":"string","name":"dataType","type":"string"},{"internalType":"uint256","name":"fee","type":"uint256"},{"internalType":"uint8","name":"requiredAgents","type":"uint8"},{"internalType":"uint256","name":"responseCount","type":"uint256"},{"internalType":"bool","name":"finalized","type":"bool"}],"stateMutability":"view","type":"function"},{"inputs":[],"name":"oracleToken","outputs":[{"internalType":"contract IERC20","name":"","type":"address"}],"stateMutability":"view","type":"function"},{"inputs":[],"name":"owner","outputs":[{"internalType":"address","name":"","type":"address"}],"stateMutability":"view","type":"function"},{"inputs":[],"name":"renounceOwnership","outputs":[],"stateMutability":"nonpayable","type":"function"},{"inputs":[{"internalType":"string","name":"dataType","type":"string"},{"internalType":"bytes","name":"parameters","type":"bytes"},{"internalType":"uint8","name":"requiredAgents","type":"uint8"},{"internalType":"uint8","name":"consensusThreshold","type":"uint8"}],"name":"requestData","outputs":[{"internalType":"bytes32","name":"requestId","type":"bytes32"}],"stateMutability":"payable","type":"function"},{"inputs":[{"internalType":"bytes32","name":"","type":"bytes32"}],"name":"requests","outputs":[{"internalType":"address","name":"requester","type":"address"},{"internalType":"string","name":"dataType","type":"string"},{"internalType":"bytes","name":"parameters","type":"bytes"},{"internalType":"uint256","name":"fee","type":"uint256"},{"internalType":"uint8","name":"requiredAgents","type":"uint8"},{"internalType":"uint8","name":"consensusThreshold","type":"uint8"},{"internalType":"uint256","name":"deadline","type":"uint256"},{"internalType":"bool","name":"finalized","type":"bool"},{"internalType":"bytes","name":"result","type":"bytes"}],"stateMutability":"view","type":"function"},{"inputs":[{"internalType":"address","name":"_agentRegistry","type":"address"}],"name":"setAgentRegistry","outputs":[],"stateMutability":"nonpayable","type":"function"},{"inputs":[{"internalType":"bytes32","name":"requestId","type":"bytes32"},{"internalType":"bytes","name":"data","type":"bytes"},{"internalType":"string","name":"proof","type":"string"}],"name":"submitResponse","outputs":[],"stateMutability":"nonpayable","type":"function"},{"inputs":[{"internalType":"address","name":"newOwner","type":"address"}],"name":"transferOwnership","outputs":[],"stateMutability":"nonpayable","type":"function"}],"evm":{"bytecode":{"linkReferences":{},"object":"6080346100ca57601f611a8538819003918201601f19168301916001600160401b038311848410176100cf578084926020946040528339810103126100ca57516001600160a01b0390818116908190036100ca5733156100b15760005460018060a01b0319903382821617600055604051933391167f8be0079c531659141344cd1fd0a4f28419497f9722a3daafe3b4186f6b6457e0600080a360018055600554161760055561199f90816100e68239f35b604051631e4fbdf760e01b815260006004820152602490fd5b600080fd5b634e487b7160e01b600052604160045260246000fdfe608080604052600436101561001357600080fd5b60003560e01c9081630d1cfcae146115a6575080630dc7c70c1461158a57806328342ecf1461153f5780632f80c54f146114e457806340dafb6e14610fde578063598b47dd14610fc157806359b0a8d914610b5e578063715018a614610b0557806383472fcf14610adc5780638da5cb5b14610ab35780639d866985146109e3578063cb1c2b5c146109bf578063ec86885d1461025d578063f2fde38b146101cd578063fb1e61ca146101435763fd66091e146100cf57600080fd5b3461013e57602036600319011261013e576004356001600160a01b0381169081900361013e57600052600360205260a0604060002060ff815416906002810154906003810154600560048301549201549260405194151585526020850152604084015260608301526080820152f35b600080fd5b3461013e57602036600319011261013e576004356000526002602052604060002060018060a01b03815416600382015460ff600484015416926008810154610195600160ff600685015416930161166d565b946101b2604051968796875260c0602088015260c0870190611792565b93604086015260608501526080840152151560a08301520390f35b3461013e57602036600319011261013e576004356001600160a01b038181169182900361013e576101fc61193d565b811561024457600054826bffffffffffffffffffffffff60a01b821617600055167f8be0079c531659141344cd1fd0a4f28419497f9722a3daafe3b4186f6b6457e0600080a3005b604051631e4fbdf760e01b815260006004820152602490fd5b3461013e57602036600319011261013e576002600154146109ad576002600155600435600052600260205260406000206102a160018060a01b0382541615156117d2565b60ff6006820154166109745760088101549060ff6004820154168210801590610967575b1561092c576001810160405160208101918160008254926102e5846115f7565b936001811690811561090e57506001146108cc575b5061030e925003601f19810183528261164c565b51902060405160208101906b63727970746f5f707269636560a01b8252600c815261033881611631565b51902003610893579061034a81611903565b90610358604051928361164c565b808252601f1961036782611903565b0136602084013760005b81811061085657506000905b825182101561041357600182018083116103fd575b83518110156103f1576001906103a88486611929565b516103b38287611929565b51106103c0575b01610392565b6103ca8486611929565b516103d58287611929565b516103e08688611929565b526103eb8287611929565b526103ba565b5060019091019061037d565b634e487b7160e01b600052601160045260246000fd5b61042292915060011c90611929565b516040519060208201526020815261043981611631565b905b8151916001600160401b038311610840576104668361045d60078501546115f7565b60078501611874565b602092601f81116001146107d457806104979293946000916107c9575b508160011b916000199060031b1c19161790565b60078301555b60068201805460ff191660011790556008820154600090816104be82611903565b916104cc604051938461164c565b8083526104db601f1991611903565b013660208401376000925b600886015484101561066c5761050b60016105048660088a01611812565b5001611712565b60208151910120855160208701201461054081600461052d8860088c01611812565b50019060ff801983541691151516179055565b156105e1576105726001916105588660088a01611812565b50838060a01b0390541661056c8287611929565b5261191a565b936105808160088901611812565b50828060a01b03905416600052600360205260056040600020016105a4815461191a565b90555b6105b48160088901611812565b50828060a01b03905416600052600360205260046040600020016105d8815461191a565b905501926104e6565b92906105ec9061191a565b906105fa8160088801611812565b5060018060a01b0390541660005260039081602052600260406000200154916032928381029381850414901517156103fd576106398260088a01611812565b5060018060a01b039054166000526020526002604060002001916103e88354910481039081116103fd57600192556105a7565b92509382159081156106e5575b5050507fa08a724cd58dacfb0700f2b9e32ea83c2868078d9a6a16bdd6ad57689e4808316106e19360405190606082526106b66060830186611792565b936020830152604082015280600435930390a260018055604051918291602083526020830190611792565b0390f35b60030154906107b35782900460005b83811015610679576001600160a01b0361070e8285611929565b511661071d575b6001016106f4565b600554600091906020906001600160a01b03908116906044906107408589611929565b5116604051958693849263a9059cbb60e01b845260048401528860248401525af19182156107a757600192610778575b509050610715565b6107999060203d6020116107a0575b610791818361164c565b8101906118eb565b5087610770565b503d610787565b6040513d6000823e3d90fd5b634e487b7160e01b600052601260045260246000fd5b905083015185610483565b60078301600052602060002060005b601f19831681106108285750600192939482601f1981161061080f575b5050811b01600783015561049d565b84015160001960f88460031b161c191690558480610800565b838601518255602095860195600190920191016107e3565b634e487b7160e01b600052604160045260246000fd5b61086a600161050483600888969801611812565b9060208280518101031261013e57602060019201516108898286611929565b5201929092610371565b90156108b657600881016000526108b06001602060002001611712565b9061043b565b634e487b7160e01b600052603260045260246000fd5b9150506000528160206000206000905b8382106108f4575050602061030e92820101876102fa565b6020919250806001915483858801015201910183916108dc565b60ff191687525061030e9380151502830160200191508890506102fa565b60405162461bcd60e51b81526020600482015260136024820152724e656564206d6f726520726573706f6e73657360681b6044820152606490fd5b50600581015442116102c5565b60405162461bcd60e51b8152602060048201526011602482015270105b1c9958591e48199a5b985b1a5e9959607a1b6044820152606490fd5b604051633ee5aeb560e01b8152600490fd5b3461013e57600036600319011261013e576020604051683635c9adc5dea000008152f35b3461013e57602036600319011261013e57600435600090815260026020526040902080546001600160a01b03166106e1610a1f6001840161166d565b92610a2c60028201611712565b600382015491600481015460ff600583015491610a82610a556007846006880154169601611712565b95610a746040519b8c809c6020610120928392815201528c0190611792565b908a820360408c0152611792565b956060890152818116608089015260081c1660a087015260c0860152151560e0850152838203610100850152611792565b3461013e57600036600319011261013e576000546040516001600160a01b039091168152602090f35b3461013e57600036600319011261013e576005546040516001600160a01b039091168152602090f35b3461013e57600036600319011261013e57610b1e61193d565b600080546001600160a01b0319811682556001600160a01b03167f8be0079c531659141344cd1fd0a4f28419497f9722a3daafe3b4186f6b6457e08280a3005b608036600319011261013e576004356001600160401b03811161013e57610b899036906004016115ca565b906024356001600160401b03811161013e57610ba99036906004016115ca565b60449291923560ff8116810361013e5760ff60643516806064350361013e57600360ff831610610f835760338110159081610f77575b5015610f3e5760405160208101903360601b825286856034830137610c24605482868a8201818b6034830160008152370142603482015203603481018452018261164c565b519020936000602060018060a01b03600554166064604051809481936323b872dd60e01b835233600484015230602484015268056bc75e2d6310000060448401525af19081156107a757600091610f1f575b5015610ee457600085815260026020526040902080546001600160a01b03191633178155926001600160401b03871161084057610cc387610cba60018701546115f7565b60018701611874565b600087601f8111600114610e775780610cf192600091610e6c57508160011b916000199060031b1c19161790565b60018501555b60028401916001600160401b03821161084057610d1e82610d1885546115f7565b85611874565b600090601f8311600114610e0457610d4f929160009183610df9575b50508160011b916000199060031b1c19161790565b90555b68056bc75e2d6310000060038301556004820190815460ff61ff0060643560081b1692169061ffff19161717905560784201918242116103fd57602094600683869560057fb6e7a88145598b3b41f38260800402b50b9d816b70358ce8aebcb425f8778eac9601550160ff198154169055610ddf60405192839233845260608985015260608401916118ca565b68056bc75e2d6310000060408301520390a2604051908152f35b013590508980610d3a565b601f198316918460005260206000209260005b818110610e545750908460019594939210610e3a575b505050811b019055610d52565b0135600019600384901b60f8161c19169055888080610e2d565b91936020600181928787013581550195019201610e17565b90508701358a610483565b506001850160005260206000209060005b601f198a168110610ecc575088601f19811610610eb2575b5050600187811b016001850155610cf7565b86013560001960038a901b60f8161c191690558780610ea0565b9091602060018192858b013581550193019101610e88565b60405162461bcd60e51b8152602060048201526013602482015272119959481d1c985b9cd9995c8819985a5b1959606a1b6044820152606490fd5b610f38915060203d6020116107a057610791818361164c565b87610c76565b60405162461bcd60e51b81526020600482015260116024820152705468726573686f6c642035312d3130302560781b6044820152606490fd5b60649150111586610bdf565b60405162461bcd60e51b81526020600482015260166024820152754e656564206174206c656173742033206167656e747360501b6044820152606490fd5b3461013e57600036600319011261013e5760206040516127108152f35b3461013e57606036600319011261013e576024356001600160401b03811161013e5761100e9036906004016115ca565b90604480356001600160401b03811161013e5761102f9036906004016115ca565b6004356000526002602052604060002060018060a01b03936110558583541615156117d2565b60ff6006830154166114a057600582015442101561146a5733600052600360205260ff604060002054161561142f57336000526003602052683635c9adc5dea00000600260406000200154106113f65790600860009101918254915b8281106113a25750506040519360a08501908582106001600160401b03831117610840576110f9916040523386526110ea368a8a61182e565b9460208701958652369161182e565b604085015242606085015260006080850152680100000000000000008110156108405761112b91600182018155611812565b93909361138c57825184546001600160a01b0319169116178355518051906001600160401b0382116108405761116882610cba60018701546115f7565b602090601f831160011461131a5761119892916000918361130f5750508160011b916000199060031b1c19161790565b60018301555b6002820160408201518051906001600160401b038211610840576111c682610d1885546115f7565b602090601f8311600114611278577f0fe225c4ace8a0f337f28df4dd6f0946e452acc35c9606982d8abce16538bc7a969461124a9461122685611268999660049660809660009261126d5750508160011b916000199060031b1c19161790565b90555b606081015160038501550151151591019060ff801983541691151516179055565b604051918291338352604060208401526004359560408401916118ca565b0390a2005b015190508d80610d3a565b90601f198316918460005260206000209260005b8181106112f75750946001856004956080957f0fe225c4ace8a0f337f28df4dd6f0946e452acc35c9606982d8abce16538bc7a9c9a956112689c9961124a9b106112de575b505050811b019055611229565b015160001960f88460031b161c191690558c80806112d1565b9293602060018192878601518155019501930161128c565b015190508780610d3a565b9190600185016000526020600020906000935b601f1984168510611371576001945083601f19811610611358575b505050811b01600183015561119e565b015160001960f88460031b161c19169055868080611348565b8181015183556020948501946001909301929091019061132d565b634e487b7160e01b600052600060045260246000fd5b6113ac8185611812565b5054871633146113be576001016110b1565b60405162461bcd60e51b8152602060048201526011602482015270105b1c9958591e481c995cdc1bdb991959607a1b81840152606490fd5b60649071496e73756666696369656e74207374616b6560701b6040519162461bcd60e51b83526020600484015260126024840152820152fd5b606490731059d95b9d081b9bdd081c9959da5cdd195c995960621b6040519162461bcd60e51b83526020600484015260146024840152820152fd5b6064906e111958591b1a5b99481c185cdcd959608a1b6040519162461bcd60e51b835260206004840152600f6024840152820152fd5b6064907f5265717565737420616c72656164792066696e616c697a6564000000000000006040519162461bcd60e51b83526020600484015260196024840152820152fd5b3461013e57602036600319011261013e5760043560045481101561013e5760046000527f8a35acfbc15ff81a39ae7d344fd709f28e8600b4aa8c65c6b64bfe7fe36bd19b01546040516001600160a01b039091168152602090f35b3461013e57602036600319011261013e576004356001600160a01b0381169081900361013e5761156d61193d565b6bffffffffffffffffffffffff60a01b6006541617600655600080f35b3461013e57600036600319011261013e57602060405160328152f35b3461013e57600036600319011261013e576006546001600160a01b03168152602090f35b9181601f8401121561013e578235916001600160401b03831161013e576020838186019501011161013e57565b90600182811c92168015611627575b602083101461161157565b634e487b7160e01b600052602260045260246000fd5b91607f1691611606565b604081019081106001600160401b0382111761084057604052565b90601f801991011681019081106001600160401b0382111761084057604052565b90604051918260008254611680816115f7565b908184526020946001916001811690816000146116f057506001146116b1575b5050506116af9250038361164c565b565b600090815285812095935091905b8183106116d85750506116af93508201013880806116a0565b855488840185015294850194879450918301916116bf565b925050506116af94925060ff191682840152151560051b8201013880806116a0565b90604051918260008254611725816115f7565b908184526020946001916001811690816000146116f05750600114611753575050506116af9250038361164c565b600090815285812095935091905b81831061177a5750506116af93508201013880806116a0565b85548884018501529485019487945091830191611761565b919082519283825260005b8481106117be575050826000602080949584010152601f8019910116010190565b60208183018101518483018201520161179d565b156117d957565b60405162461bcd60e51b815260206004820152601160248201527014995c5d595cdd081b9bdd08199bdd5b99607a1b6044820152606490fd5b80548210156108b6576000526005602060002091020190600090565b9291926001600160401b0382116108405760405191611857601f8201601f19166020018461164c565b82948184528183011161013e578281602093846000960137010152565b90601f811161188257505050565b6000916000526020600020906020601f850160051c830194106118c0575b601f0160051c01915b8281106118b557505050565b8181556001016118a9565b90925082906118a0565b908060209392818452848401376000828201840152601f01601f1916010190565b9081602091031261013e5751801515810361013e5790565b6001600160401b0381116108405760051b60200190565b60001981146103fd5760010190565b80518210156108b65760209160051b010190565b6000546001600160a01b0316330361195157565b60405163118cdaa760e01b8152336004820152602490fdfea2646970667358221220770219045837086506ebabecc56bd7f6f84c8b34dd9323c0958b24aba99ae97264736f6c63430008180033","opcodes":"PUSH1 0x80 CALLVALUE PUSH2 0xCA JUMPI PUSH1 0x1F PUSH2 0x1A85 CODESIZE DUP2 SWAP1 SUB SWAP2 DUP3 ADD PUSH1 0x1F NOT AND DUP4 ADD SWAP2 PUSH1 0x1 PUSH1 0x1 PUSH1 0x40 SHL SUB DUP4 GT DUP5 DUP5 LT OR PUSH2 0xCF JUMPI DUP1 DUP5 SWAP3 PUSH1 0x20 SWAP5 PUSH1 0x40 MSTORE DUP4 CODECOPY DUP2 ADD SUB SLT PUSH2 0xCA JUMPI MLOAD PUSH1 0x1 PUSH1 0x1 PUSH1 0xA0 SHL SUB SWAP1 DUP2 DUP2 AND SWAP1 DUP2 SWAP1 SUB PUSH2 0xCA JUMPI CALLER ISZERO PUSH2 0xB1 JUMPI PUSH1 0x0 SLOAD PUSH1 0x1 DUP1 PUSH1 0xA0 SHL SUB NOT SWAP1 CALLER DUP3 DUP3 AND OR PUSH1 0x0 SSTORE PUSH1 0x40 MLOAD SWAP4 CALLER SWAP2 AND PUSH32 0x8BE0079C531659141344CD1FD0A4F28419497F9722A3DAAFE3B4186F6B6457E0 PUSH1 0x0 DUP1 LOG3 PUSH1 0x1 DUP1 SSTORE PUSH1 0x5 SLOAD AND OR PUSH1 0x5 SSTORE PUSH2 0x199F SWAP1 DUP2 PUSH2 0xE6 DUP3 CODECOPY RETURN JUMPDEST PUSH1 0x40 MLOAD PUSH4 0x1E4FBDF7 PUSH1 0xE0 SHL DUP2 MSTORE PUSH1 0x0 PUSH1 0x4 DUP3 ADD MSTORE PUSH1 0x24 SWAP1 REVERT JUMPDEST PUSH1 0x0 DUP1 REVERT JUMPDEST PUSH4 0x4E487B71 PUSH1 0xE0 SHL PUSH1 0x0 MSTORE PUSH1 0x41 PUSH1 0x4 MSTORE PUSH1 0x24 PUSH1 0x0 REVERT INVALID PUSH1 0x80 DUP1 PUSH1 0x40 MSTORE PUSH1 0x4 CALLDATASIZE LT ISZERO PUSH2 0x13 JUMPI PUSH1 0x0 DUP1 REVERT JUMPDEST PUSH1 0x0 CALLDATALOAD PUSH1 0xE0 SHR SWAP1 DUP2 PUSH4 0xD1CFCAE EQ PUSH2 0x15A6 JUMPI POP DUP1 PUSH4 0xDC7C70C EQ PUSH2 0x158A JUMPI DUP1 PUSH4 0x28342ECF EQ PUSH2 0x153F JUMPI DUP1 PUSH4 0x2F80C54F EQ PUSH2 0x14E4 JUMPI DUP1 PUSH4 0x40DAFB6E EQ PUSH2 0xFDE JUMPI DUP1 PUSH4 0x598B47DD EQ PUSH2 0xFC1 JUMPI DUP1 PUSH4 0x59B0A8D9 EQ PUSH2 0xB5E JUMPI DUP1 PUSH4 0x715018A6 EQ PUSH2 0xB05 JUMPI DUP1 PUSH4 0x83472FCF EQ PUSH2 0xADC JUMPI DUP1 PUSH4 0x8DA5CB5B EQ PUSH2 0xAB3 JUMPI DUP1 PUSH4 0x9D866985 EQ PUSH2 0x9E3 JUMPI DUP1 PUSH4 0xCB1C2B5C EQ PUSH2 0x9BF JUMPI DUP1 PUSH4 0xEC86885D EQ PUSH2 0x25D JUMPI DUP1 PUSH4 0xF2FDE38B EQ PUSH2 0x1CD JUMPI DUP1 PUSH4 0xFB1E61CA EQ PUSH2 0x143 JUMPI PUSH4 0xFD66091E EQ PUSH2 0xCF JUMPI PUSH1 0x0 DUP1 REVERT JUMPDEST CALLVALUE PUSH2 0x13E JUMPI PUSH1 0x20 CALLDATASIZE PUSH1 0x3 NOT ADD SLT PUSH2 0x13E JUMPI PUSH1 0x4 CALLDATALOAD PUSH1 0x1 PUSH1 0x1 PUSH1 0xA0 SHL SUB DUP2 AND SWAP1 DUP2 SWAP1 SUB PUSH2 0x13E JUMPI PUSH1 0x0 MSTORE PUSH1 0x3 PUSH1 0x20 MSTORE PUSH1 0xA0 PUSH1 0x40 PUSH1 0x0 KECCAK256 PUSH1 0xFF DUP2 SLOAD AND SWAP1 PUSH1 0x2 DUP2 ADD SLOAD SWAP1 PUSH1 0x3 DUP2 ADD SLOAD PUSH1 0x5 PUSH1 0x4 DUP4 ADD SLOAD SWAP3 ADD SLOAD SWAP3 PUSH1 0x40 MLOAD SWAP5 ISZERO ISZERO DUP6 MSTORE PUSH1 0x20 DUP6 ADD MSTORE PUSH1 0x40 DUP5 ADD MSTORE PUSH1 0x60 DUP4 ADD MSTORE PUSH1 0x80 DUP3 ADD MSTORE RETURN JUMPDEST PUSH1 0x0 DUP1 REVERT JUMPDEST CALLVALUE PUSH2 0x13E JUMPI PUSH1 0x20 CALLDATASIZE PUSH1 0x3 NOT ADD SLT PUSH2 0x13E JUMPI PUSH1 0x4 CALLDATALOAD PUSH1 0x0 MSTORE PUSH1 0x2 PUSH1 0x20 MSTORE PUSH1 0x40 PUSH1 0x0 KECCAK256 PUSH1 0x1 DUP1 PUSH1 0xA0 SHL SUB DUP2 SLOAD AND PUSH1 0x3 DUP3 ADD SLOAD PUSH1 0xFF PUSH1 0x4 DUP5 ADD SLOAD AND SWAP3 PUSH1 0x8 DUP2 ADD SLOAD PUSH2 0x195 PUSH1 0x1 PUSH1 0xFF PUSH1 0x6 DUP6 ADD SLOAD AND SWAP4 ADD PUSH2 0x166D JUMP JUMPDEST SWAP5 PUSH2 0x1B2 PUSH1 0x40 MLOAD SWAP7 DUP8 SWAP7 DUP8 MSTORE PUSH1 0xC0 PUSH1 0x20 DUP9 ADD MSTORE PUSH1 0xC0 DUP8 ADD SWAP1 PUSH2 0x1792 JUMP JUMPDEST SWAP4 PUSH1 0x40 DUP7 ADD MSTORE PUSH1 0x60 DUP6 ADD MSTORE PUSH1 0x80 DUP5 ADD MSTORE ISZERO ISZERO PUSH1 0xA0 DUP4 ADD MSTORE SUB SWAP1 RETURN JUMPDEST CALLVALUE PUSH2 0x13E JUMPI PUSH1 0x20 CALLDATASIZE PUSH1 0x3 NOT ADD SLT PUSH2 0x13E JUMPI PUSH1 0x4 CALLDATALOAD PUSH1 0x1 PUSH1 0x1 PUSH1 0xA0 SHL SUB DUP2 DUP2 AND SWAP2 DUP3 SWAP1 SUB PUSH2 0x13E JUMPI PUSH2 0x1FC PUSH2 0x193D JUMP JUMPDEST DUP2 ISZERO PUSH2 0x244 JUMPI PUSH1 0x0 SLOAD DUP3 PUSH12 0xFFFFFFFFFFFFFFFFFFFFFFFF PUSH1 0xA0 SHL DUP3 AND OR PUSH1 0x0 SSTORE AND PUSH32 0x8BE0079C531659141344CD1FD0A4F28419497F9722A3DAAFE3B4186F6B6457E0 PUSH1 0x0 DUP1 LOG3 STOP JUMPDEST PUSH1 0x40 MLOAD PUSH4 0x1E4FBDF7 PUSH1 0xE0 SHL DUP2 MSTORE PUSH1 0x0 PUSH1 0x4 DUP3 ADD MSTORE PUSH1 0x24 SWAP1 REVERT JUMPDEST CALLVALUE PUSH2 0x13E JUMPI PUSH1 0x20 CALLDATASIZE PUSH1 0x3 NOT ADD SLT PUSH2 0x13E JUMPI PUSH1 0x2 PUSH1 0x1 SLOAD EQ PUSH2 0x9AD JUMPI PUSH1 0x2 PUSH1 0x1 SSTORE PUSH1 0x4 CALLDATALOAD PUSH1 0x0 MSTORE PUSH1 0x2 PUSH1 0x20 MSTORE PUSH1 0x40 PUSH1 0x0 KECCAK256 PUSH2 0x2A1 PUSH1 0x1 DUP1 PUSH1 0xA0 SHL SUB DUP3 SLOAD AND ISZERO ISZERO PUSH2 0x17D2 JUMP JUMPDEST PUSH1 0xFF PUSH1 0x6 DUP3 ADD SLOAD AND PUSH2 0x974 JUMPI PUSH1 0x8 DUP2 ADD SLOAD SWAP1 PUSH1 0xFF PUSH1 0x4 DUP3 ADD SLOAD AND DUP3 LT DUP1 ISZERO SWAP1 PUSH2 0x967 JUMPI JUMPDEST ISZERO PUSH2 0x92C JUMPI PUSH1 0x1 DUP2 ADD PUSH1 0x40 MLOAD PUSH1 0x20 DUP2 ADD SWAP2 DUP2 PUSH1 0x0 DUP3 SLOAD SWAP3 PUSH2 0x2E5 DUP5 PUSH2 0x15F7 JUMP JUMPDEST SWAP4 PUSH1 0x1 DUP2 AND SWAP1 DUP2 ISZERO PUSH2 0x90E JUMPI POP PUSH1 0x1 EQ PUSH2 0x8CC JUMPI JUMPDEST POP PUSH2 0x30E SWAP3 POP SUB PUSH1 0x1F NOT DUP2 ADD DUP4 MSTORE DUP3 PUSH2 0x164C JUMP JUMPDEST MLOAD SWAP1 KECCAK256 PUSH1 0x40 MLOAD PUSH1 0x20 DUP2 ADD SWAP1 PUSH12 0x63727970746F5F7072696365 PUSH1 0xA0 SHL DUP3 MSTORE PUSH1 0xC DUP2 MSTORE PUSH2 0x338 DUP2 PUSH2 0x1631 JUMP JUMPDEST MLOAD SWAP1 KECCAK256 SUB PUSH2 0x893 JUMPI SWAP1 PUSH2 0x34A DUP2 PUSH2 0x1903 JUMP JUMPDEST SWAP1 PUSH2 0x358 PUSH1 0x40 MLOAD SWAP3 DUP4 PUSH2 0x164C JUMP JUMPDEST DUP1 DUP3 MSTORE PUSH1 0x1F NOT PUSH2 0x367 DUP3 PUSH2 0x1903 JUMP JUMPDEST ADD CALLDATASIZE PUSH1 0x20 DUP5 ADD CALLDATACOPY PUSH1 0x0 JUMPDEST DUP2 DUP2 LT PUSH2 0x856 JUMPI POP PUSH1 0x0 SWAP1 JUMPDEST DUP3 MLOAD DUP3 LT ISZERO PUSH2 0x413 JUMPI PUSH1 0x1 DUP3 ADD DUP1 DUP4 GT PUSH2 0x3FD JUMPI JUMPDEST DUP4 MLOAD DUP2 LT ISZERO PUSH2 0x3F1 JUMPI PUSH1 0x1 SWAP1 PUSH2 0x3A8 DUP5 DUP7 PUSH2 0x1929 JUMP JUMPDEST MLOAD PUSH2 0x3B3 DUP3 DUP8 PUSH2 0x1929 JUMP JUMPDEST MLOAD LT PUSH2 0x3C0 JUMPI JUMPDEST ADD PUSH2 0x392 JUMP JUMPDEST PUSH2 0x3CA DUP5 DUP7 PUSH2 0x1929 JUMP JUMPDEST MLOAD PUSH2 0x3D5 DUP3 DUP8 PUSH2 0x1929 JUMP JUMPDEST MLOAD PUSH2 0x3E0 DUP7 DUP9 PUSH2 0x1929 JUMP JUMPDEST MSTORE PUSH2 0x3EB DUP3 DUP8 PUSH2 0x1929 JUMP JUMPDEST MSTORE PUSH2 0x3BA JUMP JUMPDEST POP PUSH1 0x1 SWAP1 SWAP2 ADD SWAP1 PUSH2 0x37D JUMP JUMPDEST PUSH4 0x4E487B71 PUSH1 0xE0 SHL PUSH1 0x0 MSTORE PUSH1 0x11 PUSH1 0x4 MSTORE PUSH1 0x24 PUSH1 0x0 REVERT JUMPDEST PUSH2 0x422 SWAP3 SWAP2 POP PUSH1 0x1 SHR SWAP1 PUSH2 0x1929 JUMP JUMPDEST MLOAD PUSH1 0x40 MLOAD SWAP1 PUSH1 0x20 DUP3 ADD MSTORE PUSH1 0x20 DUP2 MSTORE PUSH2 0x439 DUP2 PUSH2 0x1631 JUMP JUMPDEST SWAP1 JUMPDEST DUP2 MLOAD SWAP2 PUSH1 0x1 PUSH1 0x1 PUSH1 0x40 SHL SUB DUP4 GT PUSH2 0x840 JUMPI PUSH2 0x466 DUP4 PUSH2 0x45D PUSH1 0x7 DUP6 ADD SLOAD PUSH2 0x15F7 JUMP JUMPDEST PUSH1 0x7 DUP6 ADD PUSH2 0x1874 JUMP JUMPDEST PUSH1 0x20 SWAP3 PUSH1 0x1F DUP2 GT PUSH1 0x1 EQ PUSH2 0x7D4 JUMPI DUP1 PUSH2 0x497 SWAP3 SWAP4 SWAP5 PUSH1 0x0 SWAP2 PUSH2 0x7C9 JUMPI JUMPDEST POP DUP2 PUSH1 0x1 SHL SWAP2 PUSH1 0x0 NOT SWAP1 PUSH1 0x3 SHL SHR NOT AND OR SWAP1 JUMP JUMPDEST PUSH1 0x7 DUP4 ADD SSTORE JUMPDEST PUSH1 0x6 DUP3 ADD DUP1 SLOAD PUSH1 0xFF NOT AND PUSH1 0x1 OR SWAP1 SSTORE PUSH1 0x8 DUP3 ADD SLOAD PUSH1 0x0 SWAP1 DUP2 PUSH2 0x4BE DUP3 PUSH2 0x1903 JUMP JUMPDEST SWAP2 PUSH2 0x4CC PUSH1 0x40 MLOAD SWAP4 DUP5 PUSH2 0x164C JUMP JUMPDEST DUP1 DUP4 MSTORE PUSH2 0x4DB PUSH1 0x1F NOT SWAP2 PUSH2 0x1903 JUMP JUMPDEST ADD CALLDATASIZE PUSH1 0x20 DUP5 ADD CALLDATACOPY PUSH1 0x0 SWAP3 JUMPDEST PUSH1 0x8 DUP7 ADD SLOAD DUP5 LT ISZERO PUSH2 0x66C JUMPI PUSH2 0x50B PUSH1 0x1 PUSH2 0x504 DUP7 PUSH1 0x8 DUP11 ADD PUSH2 0x1812 JUMP JUMPDEST POP ADD PUSH2 0x1712 JUMP JUMPDEST PUSH1 0x20 DUP2 MLOAD SWAP2 ADD KECCAK256 DUP6 MLOAD PUSH1 0x20 DUP8 ADD KECCAK256 EQ PUSH2 0x540 DUP2 PUSH1 0x4 PUSH2 0x52D DUP9 PUSH1 0x8 DUP13 ADD PUSH2 0x1812 JUMP JUMPDEST POP ADD SWAP1 PUSH1 0xFF DUP1 NOT DUP4 SLOAD AND SWAP2 ISZERO ISZERO AND OR SWAP1 SSTORE JUMP JUMPDEST ISZERO PUSH2 0x5E1 JUMPI PUSH2 0x572 PUSH1 0x1 SWAP2 PUSH2 0x558 DUP7 PUSH1 0x8 DUP11 ADD PUSH2 0x1812 JUMP JUMPDEST POP DUP4 DUP1 PUSH1 0xA0 SHL SUB SWAP1 SLOAD AND PUSH2 0x56C DUP3 DUP8 PUSH2 0x1929 JUMP JUMPDEST MSTORE PUSH2 0x191A JUMP JUMPDEST SWAP4 PUSH2 0x580 DUP2 PUSH1 0x8 DUP10 ADD PUSH2 0x1812 JUMP JUMPDEST POP DUP3 DUP1 PUSH1 0xA0 SHL SUB SWAP1 SLOAD AND PUSH1 0x0 MSTORE PUSH1 0x3 PUSH1 0x20 MSTORE PUSH1 0x5 PUSH1 0x40 PUSH1 0x0 KECCAK256 ADD PUSH2 0x5A4 DUP2 SLOAD PUSH2 0x191A JUMP JUMPDEST SWAP1 SSTORE JUMPDEST PUSH2 0x5B4 DUP2 PUSH1 0x8 DUP10 ADD PUSH2 0x1812 JUMP JUMPDEST POP DUP3 DUP1 PUSH1 0xA0 SHL SUB SWAP1 SLOAD AND PUSH1 0x0 MSTORE PUSH1 0x3 PUSH1 0x20 MSTORE PUSH1 0x4 PUSH1 0x40 PUSH1 0x0 KECCAK256 ADD PUSH2 0x5D8 DUP2 SLOAD PUSH2 0x191A JUMP JUMPDEST SWAP1 SSTORE ADD SWAP3 PUSH2 0x4E6 JUMP JUMPDEST SWAP3 SWAP1 PUSH2 0x5EC SWAP1 PUSH2 0x191A JUMP JUMPDEST SWAP1 PUSH2 0x5FA DUP2 PUSH1 0x8 DUP9 ADD PUSH2 0x1812 JUMP JUMPDEST POP PUSH1 0x1 DUP1 PUSH1 0xA0 SHL SUB SWAP1 SLOAD AND PUSH1 0x0 MSTORE PUSH1 0x3 SWAP1 DUP2 PUSH1 0x20 MSTORE PUSH1 0x2 PUSH1 0x40 PUSH1 0x0 KECCAK256 ADD SLOAD SWAP2 PUSH1 0x32 SWAP3 DUP4 DUP2 MUL SWAP4 DUP2 DUP6 DIV EQ SWAP1 ISZERO OR ISZERO PUSH2 0x3FD JUMPI PUSH2 0x639 DUP3 PUSH1 0x8 DUP11 ADD PUSH2 0x1812 JUMP JUMPDEST POP PUSH1 0x1 DUP1 PUSH1 0xA0 SHL SUB SWAP1 SLOAD AND PUSH1 0x0 MSTORE PUSH1 0x20 MSTORE PUSH1 0x2 PUSH1 0x40 PUSH1 0x0 KECCAK256 ADD SWAP2 PUSH2 0x3E8 DUP4 SLOAD SWAP2 DIV DUP2 SUB SWAP1 DUP2 GT PUSH2 0x3FD JUMPI PUSH1 0x1 SWAP3 SSTORE PUSH2 0x5A7 JUMP JUMPDEST SWAP3 POP SWAP4 DUP3 ISZERO SWAP1 DUP2 ISZERO PUSH2 0x6E5 JUMPI JUMPDEST POP POP POP PUSH32 0xA08A724CD58DACFB0700F2B9E32EA83C2868078D9A6A16BDD6AD57689E480831 PUSH2 0x6E1 SWAP4 PUSH1 0x40 MLOAD SWAP1 PUSH1 0x60 DUP3 MSTORE PUSH2 0x6B6 PUSH1 0x60 DUP4 ADD DUP7 PUSH2 0x1792 JUMP JUMPDEST SWAP4 PUSH1 0x20 DUP4 ADD MSTORE PUSH1 0x40 DUP3 ADD MSTORE DUP1 PUSH1 0x4 CALLDATALOAD SWAP4 SUB SWAP1 LOG2 PUSH1 0x1 DUP1 SSTORE PUSH1 0x40 MLOAD SWAP2 DUP3 SWAP2 PUSH1 0x20 DUP4 MSTORE PUSH1 0x20 DUP4 ADD SWAP1 PUSH2 0x1792 JUMP JUMPDEST SUB SWAP1 RETURN JUMPDEST PUSH1 0x3 ADD SLOAD SWAP1 PUSH2 0x7B3 JUMPI DUP3 SWAP1 DIV PUSH1 0x0 JUMPDEST DUP4 DUP2 LT ISZERO PUSH2 0x679 JUMPI PUSH1 0x1 PUSH1 0x1 PUSH1 0xA0 SHL SUB PUSH2 0x70E DUP3 DUP6 PUSH2 0x1929 JUMP JUMPDEST MLOAD AND PUSH2 0x71D JUMPI JUMPDEST PUSH1 0x1 ADD PUSH2 0x6F4 JUMP JUMPDEST PUSH1 0x5 SLOAD PUSH1 0x0 SWAP2 SWAP1 PUSH1 0x20 SWAP1 PUSH1 0x1 PUSH1 0x1 PUSH1 0xA0 SHL SUB SWAP1 DUP2 AND SWAP1 PUSH1 0x44 SWAP1 PUSH2 0x740 DUP6 DUP10 PUSH2 0x1929 JUMP JUMPDEST MLOAD AND PUSH1 0x40 MLOAD SWAP6 DUP7 SWAP4 DUP5 SWAP3 PUSH4 0xA9059CBB PUSH1 0xE0 SHL DUP5 MSTORE PUSH1 0x4 DUP5 ADD MSTORE DUP9 PUSH1 0x24 DUP5 ADD MSTORE GAS CALL SWAP2 DUP3 ISZERO PUSH2 0x7A7 JUMPI PUSH1 0x1 SWAP3 PUSH2 0x778 JUMPI JUMPDEST POP SWAP1 POP PUSH2 0x715 JUMP JUMPDEST PUSH2 0x799 SWAP1 PUSH1 0x20 RETURNDATASIZE PUSH1 0x20 GT PUSH2 0x7A0 JUMPI JUMPDEST PUSH2 0x791 DUP2 DUP4 PUSH2 0x164C JUMP JUMPDEST DUP2 ADD SWAP1 PUSH2 0x18EB JUMP JUMPDEST POP DUP8 PUSH2 0x770 JUMP JUMPDEST POP RETURNDATASIZE PUSH2 0x787 JUMP JUMPDEST PUSH1 0x40 MLOAD RETURNDATASIZE PUSH1 0x0 DUP3 RETURNDATACOPY RETURNDATASIZE SWAP1 REVERT JUMPDEST PUSH4 0x4E487B71 PUSH1 0xE0 SHL PUSH1 0x0 MSTORE PUSH1 0x12 PUSH1 0x4 MSTORE PUSH1 0x24 PUSH1 0x0 REVERT JUMPDEST SWAP1 POP DUP4 ADD MLOAD DUP6 PUSH2 0x483 JUMP JUMPDEST PUSH1 0x7 DUP4 ADD PUSH1 0x0 MSTORE PUSH1 0x20 PUSH1 0x0 KECCAK256 PUSH1 0x0 JUMPDEST PUSH1 0x1F NOT DUP4 AND DUP2 LT PUSH2 0x828 JUMPI POP PUSH1 0x1 SWAP3 SWAP4 SWAP5 DUP3 PUSH1 0x1F NOT DUP2 AND LT PUSH2 0x80F JUMPI JUMPDEST POP POP DUP2 SHL ADD PUSH1 0x7 DUP4 ADD SSTORE PUSH2 0x49D JUMP JUMPDEST DUP5 ADD MLOAD PUSH1 0x0 NOT PUSH1 0xF8 DUP5 PUSH1 0x3 SHL AND SHR NOT AND SWAP1 SSTORE DUP5 DUP1 PUSH2 0x800 JUMP JUMPDEST DUP4 DUP7 ADD MLOAD DUP3 SSTORE PUSH1 0x20 SWAP6 DUP7 ADD SWAP6 PUSH1 0x1 SWAP1 SWAP3 ADD SWAP2 ADD PUSH2 0x7E3 JUMP JUMPDEST PUSH4 0x4E487B71 PUSH1 0xE0 SHL PUSH1 0x0 MSTORE PUSH1 0x41 PUSH1 0x4 MSTORE PUSH1 0x24 PUSH1 0x0 REVERT JUMPDEST PUSH2 0x86A PUSH1 0x1 PUSH2 0x504 DUP4 PUSH1 0x8 DUP9 SWAP7 SWAP9 ADD PUSH2 0x1812 JUMP JUMPDEST SWAP1 PUSH1 0x20 DUP3 DUP1 MLOAD DUP2 ADD SUB SLT PUSH2 0x13E JUMPI PUSH1 0x20 PUSH1 0x1 SWAP3 ADD MLOAD PUSH2 0x889 DUP3 DUP7 PUSH2 0x1929 JUMP JUMPDEST MSTORE ADD SWAP3 SWAP1 SWAP3 PUSH2 0x371 JUMP JUMPDEST SWAP1 ISZERO PUSH2 0x8B6 JUMPI PUSH1 0x8 DUP2 ADD PUSH1 0x0 MSTORE PUSH2 0x8B0 PUSH1 0x1 PUSH1 0x20 PUSH1 0x0 KECCAK256 ADD PUSH2 0x1712 JUMP JUMPDEST SWAP1 PUSH2 0x43B JUMP JUMPDEST PUSH4 0x4E487B71 PUSH1 0xE0 SHL PUSH1 0x0 MSTORE PUSH1 0x32 PUSH1 0x4 MSTORE PUSH1 0x24 PUSH1 0x0 REVERT JUMPDEST SWAP2 POP POP PUSH1 0x0 MSTORE DUP2 PUSH1 0x20 PUSH1 0x0 KECCAK256 PUSH1 0x0 SWAP1 JUMPDEST DUP4 DUP3 LT PUSH2 0x8F4 JUMPI POP POP PUSH1 0x20 PUSH2 0x30E SWAP3 DUP3 ADD ADD DUP8 PUSH2 0x2FA JUMP JUMPDEST PUSH1 0x20 SWAP2 SWAP3 POP DUP1 PUSH1 0x1 SWAP2 SLOAD DUP4 DUP6 DUP9 ADD ADD MSTORE ADD SWAP2 ADD DUP4 SWAP2 PUSH2 0x8DC JUMP JUMPDEST PUSH1 0xFF NOT AND DUP8 MSTORE POP PUSH2 0x30E SWAP4 DUP1 ISZERO ISZERO MUL DUP4 ADD PUSH1 0x20 ADD SWAP2 POP DUP9 SWAP1 POP PUSH2 0x2FA JUMP JUMPDEST PUSH1 0x40 MLOAD PUSH3 0x461BCD PUSH1 0xE5 SHL DUP2 MSTORE PUSH1 0x20 PUSH1 0x4 DUP3 ADD MSTORE PUSH1 0x13 PUSH1 0x24 DUP3 ADD MSTORE PUSH19 0x4E656564206D6F726520726573706F6E736573 PUSH1 0x68 SHL PUSH1 0x44 DUP3 ADD MSTORE PUSH1 0x64 SWAP1 REVERT JUMPDEST POP PUSH1 0x5 DUP2 ADD SLOAD TIMESTAMP GT PUSH2 0x2C5 JUMP JUMPDEST PUSH1 0x40 MLOAD PUSH3 0x461BCD PUSH1 0xE5 SHL DUP2 MSTORE PUSH1 0x20 PUSH1 0x4 DUP3 ADD MSTORE PUSH1 0x11 PUSH1 0x24 DUP3 ADD MSTORE PUSH17 0x105B1C9958591E48199A5B985B1A5E9959 PUSH1 0x7A SHL PUSH1 0x44 DUP3 ADD MSTORE PUSH1 0x64 SWAP1 REVERT JUMPDEST PUSH1 0x40 MLOAD PUSH4 0x3EE5AEB5 PUSH1 0xE0 SHL DUP2 MSTORE PUSH1 0x4 SWAP1 REVERT JUMPDEST CALLVALUE PUSH2 0x13E JUMPI PUSH1 0x0 CALLDATASIZE PUSH1 0x3 NOT ADD SLT PUSH2 0x13E JUMPI PUSH1 0x20 PUSH1 0x40 MLOAD PUSH9 0x3635C9ADC5DEA00000 DUP2 MSTORE RETURN JUMPDEST CALLVALUE PUSH2 0x13E JUMPI PUSH1 0x20 CALLDATASIZE PUSH1 0x3 NOT ADD SLT PUSH2 0x13E JUMPI PUSH1 0x4 CALLDATALOAD PUSH1 0x0 SWAP1 DUP2 MSTORE PUSH1 0x2 PUSH1 0x20 MSTORE PUSH1 0x40 SWAP1 KECCAK256 DUP1 SLOAD PUSH1 0x1 PUSH1 0x1 PUSH1 0xA0 SHL SUB AND PUSH2 0x6E1 PUSH2 0xA1F PUSH1 0x1 DUP5 ADD PUSH2 0x166D JUMP JUMPDEST SWAP3 PUSH2 0xA2C PUSH1 0x2 DUP3 ADD PUSH2 0x1712 JUMP JUMPDEST PUSH1 0x3 DUP3 ADD SLOAD SWAP2 PUSH1 0x4 DUP2 ADD SLOAD PUSH1 0xFF PUSH1 0x5 DUP4 ADD SLOAD SWAP2 PUSH2 0xA82 PUSH2 0xA55 PUSH1 0x7 DUP5 PUSH1 0x6 DUP9 ADD SLOAD AND SWAP7 ADD PUSH2 0x1712 JUMP JUMPDEST SWAP6 PUSH2 0xA74 PUSH1 0x40 MLOAD SWAP12 DUP13 DUP1 SWAP13 PUSH1 0x20 PUSH2 0x120 SWAP3 DUP4 SWAP3 DUP2 MSTORE ADD MSTORE DUP13 ADD SWAP1 PUSH2 0x1792 JUMP JUMPDEST SWAP1 DUP11 DUP3 SUB PUSH1 0x40 DUP13 ADD MSTORE PUSH2 0x1792 JUMP JUMPDEST SWAP6 PUSH1 0x60 DUP10 ADD MSTORE DUP2 DUP2 AND PUSH1 0x80 DUP10 ADD MSTORE PUSH1 0x8 SHR AND PUSH1 0xA0 DUP8 ADD MSTORE PUSH1 0xC0 DUP7 ADD MSTORE ISZERO ISZERO PUSH1 0xE0 DUP6 ADD MSTORE DUP4 DUP3 SUB PUSH2 0x100 DUP6 ADD MSTORE PUSH2 0x1792 JUMP JUMPDEST CALLVALUE PUSH2 0x13E JUMPI PUSH1 0x0 CALLDATASIZE PUSH1 0x3 NOT ADD SLT PUSH2 0x13E JUMPI PUSH1 0x0 SLOAD PUSH1 0x40 MLOAD PUSH1 0x1 PUSH1 0x1 PUSH1 0xA0 SHL SUB SWAP1 SWAP2 AND DUP2 MSTORE PUSH1 0x20 SWAP1 RETURN JUMPDEST CALLVALUE PUSH2 0x13E JUMPI PUSH1 0x0 CALLDATASIZE PUSH1 0x3 NOT ADD SLT PUSH2 0x13E JUMPI PUSH1 0x5 SLOAD PUSH1 0x40 MLOAD PUSH1 0x1 PUSH1 0x1 PUSH1 0xA0 SHL SUB SWAP1 SWAP2 AND DUP2 MSTORE PUSH1 0x20 SWAP1 RETURN JUMPDEST CALLVALUE PUSH2 0x13E JUMPI PUSH1 0x0 CALLDATASIZE PUSH1 0x3 NOT ADD SLT PUSH2 0x13E JUMPI PUSH2 0xB1E PUSH2 0x193D JUMP JUMPDEST PUSH1 0x0 DUP1 SLOAD PUSH1 0x1 PUSH1 0x1 PUSH1 0xA0 SHL SUB NOT DUP2 AND DUP3 SSTORE PUSH1 0x1 PUSH1 0x1 PUSH1 0xA0 SHL SUB AND PUSH32 0x8BE0079C531659141344CD1FD0A4F28419497F9722A3DAAFE3B4186F6B6457E0 DUP3 DUP1 LOG3 STOP JUMPDEST PUSH1 0x80 CALLDATASIZE PUSH1 0x3 NOT ADD SLT PUSH2 0x13E JUMPI PUSH1 0x4 CALLDATALOAD PUSH1 0x1 PUSH1 0x1 PUSH1 0x40 SHL SUB DUP2 GT PUSH2 0x13E JUMPI PUSH2 0xB89 SWAP1 CALLDATASIZE SWAP1 PUSH1 0x4 ADD PUSH2 0x15CA JUMP JUMPDEST SWAP1 PUSH1 0x24 CALLDATALOAD PUSH1 0x1 PUSH1 0x1 PUSH1 0x40 SHL SUB DUP2 GT PUSH2 0x13E JUMPI PUSH2 0xBA9 SWAP1 CALLDATASIZE SWAP1 PUSH1 0x4 ADD PUSH2 0x15CA JUMP JUMPDEST PUSH1 0x44 SWAP3 SWAP2 SWAP3 CALLDATALOAD PUSH1 0xFF DUP2 AND DUP2 SUB PUSH2 0x13E JUMPI PUSH1 0xFF PUSH1 0x64 CALLDATALOAD AND DUP1 PUSH1 0x64 CALLDATALOAD SUB PUSH2 0x13E JUMPI PUSH1 0x3 PUSH1 0xFF DUP4 AND LT PUSH2 0xF83 JUMPI PUSH1 0x33 DUP2 LT ISZERO SWAP1 DUP2 PUSH2 0xF77 JUMPI JUMPDEST POP ISZERO PUSH2 0xF3E JUMPI PUSH1 0x40 MLOAD PUSH1 0x20 DUP2 ADD SWAP1 CALLER PUSH1 0x60 SHL DUP3 MSTORE DUP7 DUP6 PUSH1 0x34 DUP4 ADD CALLDATACOPY PUSH2 0xC24 PUSH1 0x54 DUP3 DUP7 DUP11 DUP3 ADD DUP2 DUP12 PUSH1 0x34 DUP4 ADD PUSH1 0x0 DUP2 MSTORE CALLDATACOPY ADD TIMESTAMP PUSH1 0x34 DUP3 ADD MSTORE SUB PUSH1 0x34 DUP2 ADD DUP5 MSTORE ADD DUP3 PUSH2 0x164C JUMP JUMPDEST MLOAD SWAP1 KECCAK256 SWAP4 PUSH1 0x0 PUSH1 0x20 PUSH1 0x1 DUP1 PUSH1 0xA0 SHL SUB PUSH1 0x5 SLOAD AND PUSH1 0x64 PUSH1 0x40 MLOAD DUP1 SWAP5 DUP2 SWAP4 PUSH4 0x23B872DD PUSH1 0xE0 SHL DUP4 MSTORE CALLER PUSH1 0x4 DUP5 ADD MSTORE ADDRESS PUSH1 0x24 DUP5 ADD MSTORE PUSH9 0x56BC75E2D63100000 PUSH1 0x44 DUP5 ADD MSTORE GAS CALL SWAP1 DUP2 ISZERO PUSH2 0x7A7 JUMPI PUSH1 0x0 SWAP2 PUSH2 0xF1F JUMPI JUMPDEST POP ISZERO PUSH2 0xEE4 JUMPI PUSH1 0x0 DUP6 DUP2 MSTORE PUSH1 0x2 PUSH1 0x20 MSTORE PUSH1 0x40 SWAP1 KECCAK256 DUP1 SLOAD PUSH1 0x1 PUSH1 0x1 PUSH1 0xA0 SHL SUB NOT AND CALLER OR DUP2 SSTORE SWAP3 PUSH1 0x1 PUSH1 0x1 PUSH1 0x40 SHL SUB DUP8 GT PUSH2 0x840 JUMPI PUSH2 0xCC3 DUP8 PUSH2 0xCBA PUSH1 0x1 DUP8 ADD SLOAD PUSH2 0x15F7 JUMP JUMPDEST PUSH1 0x1 DUP8 ADD PUSH2 0x1874 JUMP JUMPDEST PUSH1 0x0 DUP8 PUSH1 0x1F DUP2 GT PUSH1 0x1 EQ PUSH2 0xE77 JUMPI DUP1 PUSH2 0xCF1 SWAP3 PUSH1 0x0 SWAP2 PUSH2 0xE6C JUMPI POP DUP2 PUSH1 0x1 SHL SWAP2 PUSH1 0x0 NOT SWAP1 PUSH1 0x3 SHL SHR NOT AND OR SWAP1 JUMP JUMPDEST PUSH1 0x1 DUP6 ADD SSTORE JUMPDEST PUSH1 0x2 DUP5 ADD SWAP2 PUSH1 0x1 PUSH1 0x1 PUSH1 0x40 SHL SUB DUP3 GT PUSH2 0x840 JUMPI PUSH2 0xD1E DUP3 PUSH2 0xD18 DUP6 SLOAD PUSH2 0x15F7 JUMP JUMPDEST DUP6 PUSH2 0x1874 JUMP JUMPDEST PUSH1 0x0 SWAP1 PUSH1 0x1F DUP4 GT PUSH1 0x1 EQ PUSH2 0xE04 JUMPI PUSH2 0xD4F SWAP3 SWAP2 PUSH1 0x0 SWAP2 DUP4 PUSH2 0xDF9 JUMPI JUMPDEST POP POP DUP2 PUSH1 0x1 SHL SWAP2 PUSH1 0x0 NOT SWAP1 PUSH1 0x3 SHL SHR NOT AND OR SWAP1 JUMP JUMPDEST SWAP1 SSTORE JUMPDEST PUSH9 0x56BC75E2D63100000 PUSH1 0x3 DUP4 ADD SSTORE PUSH1 0x4 DUP3 ADD SWAP1 DUP2 SLOAD PUSH1 0xFF PUSH2 0xFF00 PUSH1 0x64 CALLDATALOAD PUSH1 0x8 SHL AND SWAP3 AND SWAP1 PUSH2 0xFFFF NOT AND OR OR SWAP1 SSTORE PUSH1 0x78 TIMESTAMP ADD SWAP2 DUP3 TIMESTAMP GT PUSH2 0x3FD JUMPI PUSH1 0x20 SWAP5 PUSH1 0x6 DUP4 DUP7 SWAP6 PUSH1 0x5 PUSH32 0xB6E7A88145598B3B41F38260800402B50B9D816B70358CE8AEBCB425F8778EAC SWAP7 ADD SSTORE ADD PUSH1 0xFF NOT DUP2 SLOAD AND SWAP1 SSTORE PUSH2 0xDDF PUSH1 0x40 MLOAD SWAP3 DUP4 SWAP3 CALLER DUP5 MSTORE PUSH1 0x60 DUP10 DUP6 ADD MSTORE PUSH1 0x60 DUP5 ADD SWAP2 PUSH2 0x18CA JUMP JUMPDEST PUSH9 0x56BC75E2D63100000 PUSH1 0x40 DUP4 ADD MSTORE SUB SWAP1 LOG2 PUSH1 0x40 MLOAD SWAP1 DUP2 MSTORE RETURN JUMPDEST ADD CALLDATALOAD SWAP1 POP DUP10 DUP1 PUSH2 0xD3A JUMP JUMPDEST PUSH1 0x1F NOT DUP4 AND SWAP2 DUP5 PUSH1 0x0 MSTORE PUSH1 0x20 PUSH1 0x0 KECCAK256 SWAP3 PUSH1 0x0 JUMPDEST DUP2 DUP2 LT PUSH2 0xE54 JUMPI POP SWAP1 DUP5 PUSH1 0x1 SWAP6 SWAP5 SWAP4 SWAP3 LT PUSH2 0xE3A JUMPI JUMPDEST POP POP POP DUP2 SHL ADD SWAP1 SSTORE PUSH2 0xD52 JUMP JUMPDEST ADD CALLDATALOAD PUSH1 0x0 NOT PUSH1 0x3 DUP5 SWAP1 SHL PUSH1 0xF8 AND SHR NOT AND SWAP1 SSTORE DUP9 DUP1 DUP1 PUSH2 0xE2D JUMP JUMPDEST SWAP2 SWAP4 PUSH1 0x20 PUSH1 0x1 DUP2 SWAP3 DUP8 DUP8 ADD CALLDATALOAD DUP2 SSTORE ADD SWAP6 ADD SWAP3 ADD PUSH2 0xE17 JUMP JUMPDEST SWAP1 POP DUP8 ADD CALLDATALOAD DUP11 PUSH2 0x483 JUMP JUMPDEST POP PUSH1 0x1 DUP6 ADD PUSH1 0x0 MSTORE PUSH1 0x20 PUSH1 0x0 KECCAK256 SWAP1 PUSH1 0x0 JUMPDEST PUSH1 0x1F NOT DUP11 AND DUP2 LT PUSH2 0xECC JUMPI POP DUP9 PUSH1 0x1F NOT DUP2 AND LT PUSH2 0xEB2 JUMPI JUMPDEST POP POP PUSH1 0x1 DUP8 DUP2 SHL ADD PUSH1 0x1 DUP6 ADD SSTORE PUSH2 0xCF7 JUMP JUMPDEST DUP7 ADD CALLDATALOAD PUSH1 0x0 NOT PUSH1 0x3 DUP11 SWAP1 SHL PUSH1 0xF8 AND SHR NOT AND SWAP1 SSTORE DUP8 DUP1 PUSH2 0xEA0 JUMP JUMPDEST SWAP1 SWAP2 PUSH1 0x20 PUSH1 0x1 DUP2 SWAP3 DUP6 DUP12 ADD CALLDATALOAD DUP2 SSTORE ADD SWAP4 ADD SWAP2 ADD PUSH2 0xE88 JUMP JUMPDEST PUSH1 0x40 MLOAD PUSH3 0x461BCD PUSH1 0xE5 SHL DUP2 MSTORE PUSH1 0x20 PUSH1 0x4 DUP3 ADD MSTORE PUSH1 0x13 PUSH1 0x24 DUP3 ADD MSTORE PUSH19 0x119959481D1C985B9CD9995C8819985A5B1959 PUSH1 0x6A SHL PUSH1 0x44 DUP3 ADD MSTORE PUSH1 0x64 SWAP1 REVERT JUMPDEST PUSH2 0xF38 SWAP2 POP PUSH1 0x20 RETURNDATASIZE PUSH1 0x20 GT PUSH2 0x7A0 JUMPI PUSH2 0x791 DUP2 DUP4 PUSH2 0x164C JUMP JUMPDEST DUP8 PUSH2 0xC76 JUMP JUMPDEST PUSH1 0x40 MLOAD PUSH3 0x461BCD PUSH1 0xE5 SHL DUP2 MSTORE PUSH1 0x20 PUSH1 0x4 DUP3 ADD MSTORE PUSH1 0x11 PUSH1 0x24 DUP3 ADD MSTORE PUSH17 0x5468726573686F6C642035312D31303025 PUSH1 0x78 SHL PUSH1 0x44 DUP3 ADD MSTORE PUSH1 0x64 SWAP1 REVERT JUMPDEST PUSH1 0x64 SWAP2 POP GT ISZERO DUP7 PUSH2 0xBDF JUMP JUMPDEST PUSH1 0x40 MLOAD PUSH3 0x461BCD PUSH1 0xE5 SHL DUP2 MSTORE PUSH1 0x20 PUSH1 0x4 DUP3 ADD MSTORE PUSH1 0x16 PUSH1 0x24 DUP3 ADD MSTORE PUSH22 0x4E656564206174206C656173742033206167656E7473 PUSH1 0x50 SHL PUSH1 0x44 DUP3 ADD MSTORE PUSH1 0x64 SWAP1 REVERT JUMPDEST CALLVALUE PUSH2 0x13E JUMPI PUSH1 0x0 CALLDATASIZE PUSH1 0x3 NOT ADD SLT PUSH2 0x13E JUMPI PUSH1 0x20 PUSH1 0x40 MLOAD PUSH2 0x2710 DUP2 MSTORE RETURN JUMPDEST CALLVALUE PUSH2 0x13E JUMPI PUSH1 0x60 CALLDATASIZE PUSH1 0x3 NOT ADD SLT PUSH2 0x13E JUMPI PUSH1 0x24 CALLDATALOAD PUSH1 0x1 PUSH1 0x1 PUSH1 0x40 SHL SUB DUP2 GT PUSH2 0x13E JUMPI PUSH2 0x100E SWAP1 CALLDATASIZE SWAP1 PUSH1 0x4 ADD PUSH2 0x15CA JUMP JUMPDEST SWAP1 PUSH1 0x44 DUP1 CALLDATALOAD PUSH1 0x1 PUSH1 0x1 PUSH1 0x40 SHL SUB DUP2 GT PUSH2 0x13E JUMPI PUSH2 0x102F SWAP1 CALLDATASIZE SWAP1 PUSH1 0x4 ADD PUSH2 0x15CA JUMP JUMPDEST PUSH1 0x4 CALLDATALOAD PUSH1 0x0 MSTORE PUSH1 0x2 PUSH1 0x20 MSTORE PUSH1 0x40 PUSH1 0x0 KECCAK256 PUSH1 0x1 DUP1 PUSH1 0xA0 SHL SUB SWAP4 PUSH2 0x1055 DUP6 DUP4 SLOAD AND ISZERO ISZERO PUSH2 0x17D2 JUMP JUMPDEST PUSH1 0xFF PUSH1 0x6 DUP4 ADD SLOAD AND PUSH2 0x14A0 JUMPI PUSH1 0x5 DUP3 ADD SLOAD TIMESTAMP LT ISZERO PUSH2 0x146A JUMPI CALLER PUSH1 0x0 MSTORE PUSH1 0x3 PUSH1 0x20 MSTORE PUSH1 0xFF PUSH1 0x40 PUSH1 0x0 KECCAK256 SLOAD AND ISZERO PUSH2 0x142F JUMPI CALLER PUSH1 0x0 MSTORE PUSH1 0x3 PUSH1 0x20 MSTORE PUSH9 0x3635C9ADC5DEA00000 PUSH1 0x2 PUSH1 0x40 PUSH1 0x0 KECCAK256 ADD SLOAD LT PUSH2 0x13F6 JUMPI SWAP1 PUSH1 0x8 PUSH1 0x0 SWAP2 ADD SWAP2 DUP3 SLOAD SWAP2 JUMPDEST DUP3 DUP2 LT PUSH2 0x13A2 JUMPI POP POP PUSH1 0x40 MLOAD SWAP4 PUSH1 0xA0 DUP6 ADD SWAP1 DUP6 DUP3 LT PUSH1 0x1 PUSH1 0x1 PUSH1 0x40 SHL SUB DUP4 GT OR PUSH2 0x840 JUMPI PUSH2 0x10F9 SWAP2 PUSH1 0x40 MSTORE CALLER DUP7 MSTORE PUSH2 0x10EA CALLDATASIZE DUP11 DUP11 PUSH2 0x182E JUMP JUMPDEST SWAP5 PUSH1 0x20 DUP8 ADD SWAP6 DUP7 MSTORE CALLDATASIZE SWAP2 PUSH2 0x182E JUMP JUMPDEST PUSH1 0x40 DUP6 ADD MSTORE TIMESTAMP PUSH1 0x60 DUP6 ADD MSTORE PUSH1 0x0 PUSH1 0x80 DUP6 ADD MSTORE PUSH9 0x10000000000000000 DUP2 LT ISZERO PUSH2 0x840 JUMPI PUSH2 0x112B SWAP2 PUSH1 0x1 DUP3 ADD DUP2 SSTORE PUSH2 0x1812 JUMP JUMPDEST SWAP4 SWAP1 SWAP4 PUSH2 0x138C JUMPI DUP3 MLOAD DUP5 SLOAD PUSH1 0x1 PUSH1 0x1 PUSH1 0xA0 SHL SUB NOT AND SWAP2 AND OR DUP4 SSTORE MLOAD DUP1 MLOAD SWAP1 PUSH1 0x1 PUSH1 0x1 PUSH1 0x40 SHL SUB DUP3 GT PUSH2 0x840 JUMPI PUSH2 0x1168 DUP3 PUSH2 0xCBA PUSH1 0x1 DUP8 ADD SLOAD PUSH2 0x15F7 JUMP JUMPDEST PUSH1 0x20 SWAP1 PUSH1 0x1F DUP4 GT PUSH1 0x1 EQ PUSH2 0x131A JUMPI PUSH2 0x1198 SWAP3 SWAP2 PUSH1 0x0 SWAP2 DUP4 PUSH2 0x130F JUMPI POP POP DUP2 PUSH1 0x1 SHL SWAP2 PUSH1 0x0 NOT SWAP1 PUSH1 0x3 SHL SHR NOT AND OR SWAP1 JUMP JUMPDEST PUSH1 0x1 DUP4 ADD SSTORE JUMPDEST PUSH1 0x2 DUP3 ADD PUSH1 0x40 DUP3 ADD MLOAD DUP1 MLOAD SWAP1 PUSH1 0x1 PUSH1 0x1 PUSH1 0x40 SHL SUB DUP3 GT PUSH2 0x840 JUMPI PUSH2 0x11C6 DUP3 PUSH2 0xD18 DUP6 SLOAD PUSH2 0x15F7 JUMP JUMPDEST PUSH1 0x20 SWAP1 PUSH1 0x1F DUP4 GT PUSH1 0x1 EQ PUSH2 0x1278 JUMPI PUSH32 0xFE225C4ACE8A0F337F28DF4DD6F0946E452ACC35C9606982D8ABCE16538BC7A SWAP7 SWAP5 PUSH2 0x124A SWAP5 PUSH2 0x1226 DUP6 PUSH2 0x1268 SWAP10 SWAP7 PUSH1 0x4 SWAP7 PUSH1 0x80 SWAP7 PUSH1 0x0 SWAP3 PUSH2 0x126D JUMPI POP POP DUP2 PUSH1 0x1 SHL SWAP2 PUSH1 0x0 NOT SWAP1 PUSH1 0x3 SHL SHR NOT AND OR SWAP1 JUMP JUMPDEST SWAP1 SSTORE JUMPDEST PUSH1 0x60 DUP2 ADD MLOAD PUSH1 0x3 DUP6 ADD SSTORE ADD MLOAD ISZERO ISZERO SWAP2 ADD SWAP1 PUSH1 0xFF DUP1 NOT DUP4 SLOAD AND SWAP2 ISZERO ISZERO AND OR SWAP1 SSTORE JUMP JUMPDEST PUSH1 0x40 MLOAD SWAP2 DUP3 SWAP2 CALLER DUP4 MSTORE PUSH1 0x40 PUSH1 0x20 DUP5 ADD MSTORE PUSH1 0x4 CALLDATALOAD SWAP6 PUSH1 0x40 DUP5 ADD SWAP2 PUSH2 0x18CA JUMP JUMPDEST SUB SWAP1 LOG2 STOP JUMPDEST ADD MLOAD SWAP1 POP DUP14 DUP1 PUSH2 0xD3A JUMP JUMPDEST SWAP1 PUSH1 0x1F NOT DUP4 AND SWAP2 DUP5 PUSH1 0x0 MSTORE PUSH1 0x20 PUSH1 0x0 KECCAK256 SWAP3 PUSH1 0x0 JUMPDEST DUP2 DUP2 LT PUSH2 0x12F7 JUMPI POP SWAP5 PUSH1 0x1 DUP6 PUSH1 0x4 SWAP6 PUSH1 0x80 SWAP6 PUSH32 0xFE225C4ACE8A0F337F28DF4DD6F0946E452ACC35C9606982D8ABCE16538BC7A SWAP13 SWAP11 SWAP6 PUSH2 0x1268 SWAP13 SWAP10 PUSH2 0x124A SWAP12 LT PUSH2 0x12DE JUMPI JUMPDEST POP POP POP DUP2 SHL ADD SWAP1 SSTORE PUSH2 0x1229 JUMP JUMPDEST ADD MLOAD PUSH1 0x0 NOT PUSH1 0xF8 DUP5 PUSH1 0x3 SHL AND SHR NOT AND SWAP1 SSTORE DUP13 DUP1 DUP1 PUSH2 0x12D1 JUMP JUMPDEST SWAP3 SWAP4 PUSH1 0x20 PUSH1 0x1 DUP2 SWAP3 DUP8 DUP7 ADD MLOAD DUP2 SSTORE ADD SWAP6 ADD SWAP4 ADD PUSH2 0x128C JUMP JUMPDEST ADD MLOAD SWAP1 POP DUP8 DUP1 PUSH2 0xD3A JUMP JUMPDEST SWAP2 SWAP1 PUSH1 0x1 DUP6 ADD PUSH1 0x0 MSTORE PUSH1 0x20 PUSH1 0x0 KECCAK256 SWAP1 PUSH1 0x0 SWAP4 JUMPDEST PUSH1 0x1F NOT DUP5 AND DUP6 LT PUSH2 0x1371 JUMPI PUSH1 0x1 SWAP5 POP DUP4 PUSH1 0x1F NOT DUP2 AND LT PUSH2 0x1358 JUMPI JUMPDEST POP POP POP DUP2 SHL ADD PUSH1 0x1 DUP4 ADD SSTORE PUSH2 0x119E JUMP JUMPDEST ADD MLOAD PUSH1 0x0 NOT PUSH1 0xF8 DUP5 PUSH1 0x3 SHL AND SHR NOT AND SWAP1 SSTORE DUP7 DUP1 DUP1 PUSH2 0x1348 JUMP JUMPDEST DUP2 DUP2 ADD MLOAD DUP4 SSTORE PUSH1 0x20 SWAP5 DUP6 ADD SWAP5 PUSH1 0x1 SWAP1 SWAP4 ADD SWAP3 SWAP1 SWAP2 ADD SWAP1 PUSH2 0x132D JUMP JUMPDEST PUSH4 0x4E487B71 PUSH1 0xE0 SHL PUSH1 0x0 MSTORE PUSH1 0x0 PUSH1 0x4 MSTORE PUSH1 0x24 PUSH1 0x0 REVERT JUMPDEST PUSH2 0x13AC DUP2 DUP6 PUSH2 0x1812 JUMP JUMPDEST POP SLOAD DUP8 AND CALLER EQ PUSH2 0x13BE JUMPI PUSH1 0x1 ADD PUSH2 0x10B1 JUMP JUMPDEST PUSH1 0x40 MLOAD PUSH3 0x461BCD PUSH1 0xE5 SHL DUP2 MSTORE PUSH1 0x20 PUSH1 0x4 DUP3 ADD MSTORE PUSH1 0x11 PUSH1 0x24 DUP3 ADD MSTORE PUSH17 0x105B1C9958591E481C995CDC1BDB991959 PUSH1 0x7A SHL DUP2 DUP5 ADD MSTORE PUSH1 0x64 SWAP1 REVERT JUMPDEST PUSH1 0x64 SWAP1 PUSH18 0x496E73756666696369656E74207374616B65 PUSH1 0x70 SHL PUSH1 0x40 MLOAD SWAP2 PUSH3 0x461BCD PUSH1 0xE5 SHL DUP4 MSTORE PUSH1 0x20 PUSH1 0x4 DUP5 ADD MSTORE PUSH1 0x12 PUSH1 0x24 DUP5 ADD MSTORE DUP3 ADD MSTORE REVERT JUMPDEST PUSH1 0x64 SWAP1 PUSH20 0x1059D95B9D081B9BDD081C9959DA5CDD195C9959 PUSH1 0x62 SHL PUSH1 0x40 MLOAD SWAP2 PUSH3 0x461BCD PUSH1 0xE5 SHL DUP4 MSTORE PUSH1 0x20 PUSH1 0x4 DUP5 ADD MSTORE PUSH1 0x14 PUSH1 0x24 DUP5 ADD MSTORE DUP3 ADD MSTORE REVERT JUMPDEST PUSH1 0x64 SWAP1 PUSH15 0x111958591B1A5B99481C185CDCD959 PUSH1 0x8A SHL PUSH1 0x40 MLOAD SWAP2 PUSH3 0x461BCD PUSH1 0xE5 SHL DUP4 MSTORE PUSH1 0x20 PUSH1 0x4 DUP5 ADD MSTORE PUSH1 0xF PUSH1 0x24 DUP5 ADD MSTORE DUP3 ADD MSTORE REVERT JUMPDEST PUSH1 0x64 SWAP1 PUSH32 0x5265717565737420616C72656164792066696E616C697A656400000000000000 PUSH1 0x40 MLOAD SWAP2 PUSH3 0x461BCD PUSH1 0xE5 SHL DUP4 MSTORE PUSH1 0x20 PUSH1 0x4 DUP5 ADD MSTORE PUSH1 0x19 PUSH1 0x24 DUP5 ADD MSTORE DUP3 ADD MSTORE REVERT JUMPDEST CALLVALUE PUSH2 0x13E JUMPI PUSH1 0x20 CALLDATASIZE PUSH1 0x3 NOT ADD SLT PUSH2 0x13E JUMPI PUSH1 0x4 CALLDATALOAD PUSH1 0x4 SLOAD DUP2 LT ISZERO PUSH2 0x13E JUMPI PUSH1 0x4 PUSH1 0x0 MSTORE PUSH32 0x8A35ACFBC15FF81A39AE7D344FD709F28E8600B4AA8C65C6B64BFE7FE36BD19B ADD SLOAD PUSH1 0x40 MLOAD PUSH1 0x1 PUSH1 0x1 PUSH1 0xA0 SHL SUB SWAP1 SWAP2 AND DUP2 MSTORE PUSH1 0x20 SWAP1 RETURN JUMPDEST CALLVALUE PUSH2 0x13E JUMPI PUSH1 0x20 CALLDATASIZE PUSH1 0x3 NOT ADD SLT PUSH2 0x13E JUMPI PUSH1 0x4 CALLDATALOAD PUSH1 0x1 PUSH1 0x1 PUSH1 0xA0 SHL SUB DUP2 AND SWAP1 DUP2 SWAP1 SUB PUSH2 0x13E JUMPI PUSH2 0x156D PUSH2 0x193D JUMP JUMPDEST PUSH12 0xFFFFFFFFFFFFFFFFFFFFFFFF PUSH1 0xA0 SHL PUSH1 0x6 SLOAD AND OR PUSH1 0x6 SSTORE PUSH1 0x0 DUP1 RETURN JUMPDEST CALLVALUE PUSH2 0x13E JUMPI PUSH1 0x0 CALLDATASIZE PUSH1 0x3 NOT ADD SLT PUSH2 0x13E JUMPI PUSH1 0x20 PUSH1 0x40 MLOAD PUSH1 0x32 DUP2 MSTORE RETURN JUMPDEST CALLVALUE PUSH2 0x13E JUMPI PUSH1 0x0 CALLDATASIZE PUSH1 0x3 NOT ADD SLT PUSH2 0x13E JUMPI PUSH1 0x6 SLOAD PUSH1 0x1 PUSH1 0x1 PUSH1 0xA0 SHL SUB AND DUP2 MSTORE PUSH1 0x20 SWAP1 RETURN JUMPDEST SWAP2 DUP2 PUSH1 0x1F DUP5 ADD SLT ISZERO PUSH2 0x13E JUMPI DUP3 CALLDATALOAD SWAP2 PUSH1 0x1 PUSH1 0x1 PUSH1 0x40 SHL SUB DUP4 GT PUSH2 0x13E JUMPI PUSH1 0x20 DUP4 DUP2 DUP7 ADD SWAP6 ADD ADD GT PUSH2 0x13E JUMPI JUMP JUMPDEST SWAP1 PUSH1 0x1 DUP3 DUP2 SHR SWAP3 AND DUP1 ISZERO PUSH2 0x1627 JUMPI JUMPDEST PUSH1 0x20 DUP4 LT EQ PUSH2 0x1611 JUMPI JUMP JUMPDEST PUSH4 0x4E487B71 PUSH1 0xE0 SHL PUSH1 0x0 MSTORE PUSH1 0x22 PUSH1 0x4 MSTORE PUSH1 0x24 PUSH1 0x0 REVERT JUMPDEST SWAP2 PUSH1 0x7F AND SWAP2 PUSH2 0x1606 JUMP JUMPDEST PUSH1 0x40 DUP2 ADD SWAP1 DUP2 LT PUSH1 0x1 PUSH1 0x1 PUSH1 0x40 SHL SUB DUP3 GT OR PUSH2 0x840 JUMPI PUSH1 0x40 MSTORE JUMP JUMPDEST SWAP1 PUSH1 0x1F DUP1 NOT SWAP2 ADD AND DUP2 ADD SWAP1 DUP2 LT PUSH1 0x1 PUSH1 0x1 PUSH1 0x40 SHL SUB DUP3 GT OR PUSH2 0x840 JUMPI PUSH1 0x40 MSTORE JUMP JUMPDEST SWAP1 PUSH1 0x40 MLOAD SWAP2 DUP3 PUSH1 0x0 DUP3 SLOAD PUSH2 0x1680 DUP2 PUSH2 0x15F7 JUMP JUMPDEST SWAP1 DUP2 DUP5 MSTORE PUSH1 0x20 SWAP5 PUSH1 0x1 SWAP2 PUSH1 0x1 DUP2 AND SWAP1 DUP2 PUSH1 0x0 EQ PUSH2 0x16F0 JUMPI POP PUSH1 0x1 EQ PUSH2 0x16B1 JUMPI JUMPDEST POP POP POP PUSH2 0x16AF SWAP3 POP SUB DUP4 PUSH2 0x164C JUMP JUMPDEST JUMP JUMPDEST PUSH1 0x0 SWAP1 DUP2 MSTORE DUP6 DUP2 KECCAK256 SWAP6 SWAP4 POP SWAP2 SWAP1 JUMPDEST DUP2 DUP4 LT PUSH2 0x16D8 JUMPI POP POP PUSH2 0x16AF SWAP4 POP DUP3 ADD ADD CODESIZE DUP1 DUP1 PUSH2 0x16A0 JUMP JUMPDEST DUP6 SLOAD DUP9 DUP5 ADD DUP6 ADD MSTORE SWAP5 DUP6 ADD SWAP5 DUP8 SWAP5 POP SWAP2 DUP4 ADD SWAP2 PUSH2 0x16BF JUMP JUMPDEST SWAP3 POP POP POP PUSH2 0x16AF SWAP5 SWAP3 POP PUSH1 0xFF NOT AND DUP3 DUP5 ADD MSTORE ISZERO ISZERO PUSH1 0x5 SHL DUP3 ADD ADD CODESIZE DUP1 DUP1 PUSH2 0x16A0 JUMP JUMPDEST SWAP1 PUSH1 0x40 MLOAD SWAP2 DUP3 PUSH1 0x0 DUP3 SLOAD PUSH2 0x1725 DUP2 PUSH2 0x15F7 JUMP JUMPDEST SWAP1 DUP2 DUP5 MSTORE PUSH1 0x20 SWAP5 PUSH1 0x1 SWAP2 PUSH1 0x1 DUP2 AND SWAP1 DUP2 PUSH1 0x0 EQ PUSH2 0x16F0 JUMPI POP PUSH1 0x1 EQ PUSH2 0x1753 JUMPI POP POP POP PUSH2 0x16AF SWAP3 POP SUB DUP4 PUSH2 0x164C JUMP JUMPDEST PUSH1 0x0 SWAP1 DUP2 MSTORE DUP6 DUP2 KECCAK256 SWAP6 SWAP4 POP SWAP2 SWAP1 JUMPDEST DUP2 DUP4 LT PUSH2 0x177A JUMPI POP POP PUSH2 0x16AF SWAP4 POP DUP3 ADD ADD CODESIZE DUP1 DUP1 PUSH2 0x16A0 JUMP JUMPDEST DUP6 SLOAD DUP9 DUP5 ADD DUP6 ADD MSTORE SWAP5 DUP6 ADD SWAP5 DUP8 SWAP5 POP SWAP2 DUP4 ADD SWAP2 PUSH2 0x1761 JUMP JUMPDEST SWAP2 SWAP1 DUP3 MLOAD SWAP3 DUP4 DUP3 MSTORE PUSH1 0x0 JUMPDEST DUP5 DUP2 LT PUSH2 0x17BE JUMPI POP POP DUP3 PUSH1 0x0 PUSH1 0x20 DUP1 SWAP5 SWAP6 DUP5 ADD ADD MSTORE PUSH1 0x1F DUP1 NOT SWAP2 ADD AND ADD ADD SWAP1 JUMP JUMPDEST PUSH1 0x20 DUP2 DUP4 ADD DUP2 ADD MLOAD DUP5 DUP4 ADD DUP3 ADD MSTORE ADD PUSH2 0x179D JUMP JUMPDEST ISZERO PUSH2 0x17D9 JUMPI JUMP JUMPDEST PUSH1 0x40 MLOAD PUSH3 0x461BCD PUSH1 0xE5 SHL DUP2 MSTORE PUSH1 0x20 PUSH1 0x4 DUP3 ADD MSTORE PUSH1 0x11 PUSH1 0x24 DUP3 ADD MSTORE PUSH17 0x14995C5D595CDD081B9BDD08199BDD5B99 PUSH1 0x7A SHL PUSH1 0x44 DUP3 ADD MSTORE PUSH1 0x64 SWAP1 REVERT JUMPDEST DUP1 SLOAD DUP3 LT ISZERO PUSH2 0x8B6 JUMPI PUSH1 0x0 MSTORE PUSH1 0x5 PUSH1 0x20 PUSH1 0x0 KECCAK256 SWAP2 MUL ADD SWAP1 PUSH1 0x0 SWAP1 JUMP JUMPDEST SWAP3 SWAP2 SWAP3 PUSH1 0x1 PUSH1 0x1 PUSH1 0x40 SHL SUB DUP3 GT PUSH2 0x840 JUMPI PUSH1 0x40 MLOAD SWAP2 PUSH2 0x1857 PUSH1 0x1F DUP3 ADD PUSH1 0x1F NOT AND PUSH1 0x20 ADD DUP5 PUSH2 0x164C JUMP JUMPDEST DUP3 SWAP5 DUP2 DUP5 MSTORE DUP2 DUP4 ADD GT PUSH2 0x13E JUMPI DUP3 DUP2 PUSH1 0x20 SWAP4 DUP5 PUSH1 0x0 SWAP7 ADD CALLDATACOPY ADD ADD MSTORE JUMP JUMPDEST SWAP1 PUSH1 0x1F DUP2 GT PUSH2 0x1882 JUMPI POP POP POP JUMP JUMPDEST PUSH1 0x0 SWAP2 PUSH1 0x0 MSTORE PUSH1 0x20 PUSH1 0x0 KECCAK256 SWAP1 PUSH1 0x20 PUSH1 0x1F DUP6 ADD PUSH1 0x5 SHR DUP4 ADD SWAP5 LT PUSH2 0x18C0 JUMPI JUMPDEST PUSH1 0x1F ADD PUSH1 0x5 SHR ADD SWAP2 JUMPDEST DUP3 DUP2 LT PUSH2 0x18B5 JUMPI POP POP POP JUMP JUMPDEST DUP2 DUP2 SSTORE PUSH1 0x1 ADD PUSH2 0x18A9 JUMP JUMPDEST SWAP1 SWAP3 POP DUP3 SWAP1 PUSH2 0x18A0 JUMP JUMPDEST SWAP1 DUP1 PUSH1 0x20 SWAP4 SWAP3 DUP2 DUP5 MSTORE DUP5 DUP5 ADD CALLDATACOPY PUSH1 0x0 DUP3 DUP3 ADD DUP5 ADD MSTORE PUSH1 0x1F ADD PUSH1 0x1F NOT AND ADD ADD SWAP1 JUMP JUMPDEST SWAP1 DUP2 PUSH1 0x20 SWAP2 SUB SLT PUSH2 0x13E JUMPI MLOAD DUP1 ISZERO ISZERO DUP2 SUB PUSH2 0x13E JUMPI SWAP1 JUMP JUMPDEST PUSH1 0x1 PUSH1 0x1 PUSH1 0x40 SHL SUB DUP2 GT PUSH2 0x840 JUMPI PUSH1 0x5 SHL PUSH1 0x20 ADD SWAP1 JUMP JUMPDEST PUSH1 0x0 NOT DUP2 EQ PUSH2 0x3FD JUMPI PUSH1 0x1 ADD SWAP1 JUMP JUMPDEST DUP1 MLOAD DUP3 LT ISZERO PUSH2 0x8B6 JUMPI PUSH1 0x20 SWAP2 PUSH1 0x5 SHL ADD ADD SWAP1 JUMP JUMPDEST PUSH1 0x0 SLOAD PUSH1 0x1 PUSH1 0x1 PUSH1 0xA0 SHL SUB AND CALLER SUB PUSH2 0x1951 JUMPI JUMP JUMPDEST PUSH1 0x40 MLOAD PUSH4 0x118CDAA7 PUSH1 0xE0 SHL DUP2 MSTORE CALLER PUSH1 0x4 DUP3 ADD MSTORE PUSH1 0x24 SWAP1 REVERT INVALID LOG2 PUSH5 0x6970667358 0x22 SLT KECCAK256 PUSH24 0x219045837086506EBABECC56BD7F6F84C8B34DD9323C095 DUP12 0x24 0xAB 0xA9 SWAP11 0xE9 PUSH19 0x64736F6C634300081800330000000000000000 "},"methodIdentifiers":{"MIN_STAKE()":"cb1c2b5c","REWARD_MULTIPLIER()":"598b47dd","SLASH_PENALTY()":"0dc7c70c","agentList(uint256)":"2f80c54f","agentRegistry()":"0d1cfcae","agents(address)":"fd66091e","finalizeRequest(bytes32)":"ec86885d","getRequest(bytes32)":"fb1e61ca","oracleToken()":"83472fcf","owner()":"8da5cb5b","renounceOwnership()":"715018a6","requestData(string,bytes,uint8,uint8)":"59b0a8d9","requests(bytes32)":"9d866985","setAgentRegistry(address)":"28342ecf","submitResponse(bytes32,bytes,string)":"40dafb6e","transferOwnership(address)":"f2fde38b"}},"storageLayout":{"storage":[{"astId":8,"contract":"contracts/OracleHub.sol:OracleHub","label":"_owner","offset":0,"slot":"0","type":"t_address"},{"astId":944,"contract":"contracts/OracleHub.sol:OracleHub","label":"_status","offset":0,"slot":"1","type":"t_uint256"},{"astId":1898,"contract":"contracts/OracleHub.sol:OracleHub","label":"requests","offset":0,"slot":"2","type":"t_mapping(t_bytes32,t_struct(Request)1868_storage)"},{"astId":1903,"contract":"contracts/OracleHub.sol:OracleHub","label":"agents","offset":0,"slot":"3","type":"t_mapping(t_address,t_struct(AgentInfo)1893_storage)"},{"astId":1906,"contract":"contracts/OracleHub.sol:OracleHub","label":"agentList","offset":0,"slot":"4","type":"t_array(t_address)dyn_storage"},{"astId":1909,"contract":"contracts/OracleHub.sol:OracleHub","label":"oracleToken","offset":0,"slot":"5","type":"t_contract(IERC20)877"},{"astId":1911,"contract":"contracts/OracleHub.sol:OracleHub","label":"agentRegistry","offset":0,"slot":"6","type":"t_address"}],"types":{"t_address":{"encoding":"inplace","label":"address","numberOfBytes":"20"},"t_array(t_address)dyn_storage":{"base":"t_address","encoding":"dynamic_array","label":"address[]","numberOfBytes":"32"},"t_array(t_string_storage)dyn_storage":{"base":"t_string_storage","encoding":"dynamic_array","label":"string[]","numberOfBytes":"32"},"t_array(t_struct(Response)1879_storage)dyn_storage":{"base":"t_struct(Response)1879_storage","encoding":"dynamic_array","label":"struct OracleHub.Response[]","numberOfBytes":"32"},"t_bool":{"encoding":"inplace","label":"bool","numberOfBytes":"1"},"t_bytes32":{"encoding":"inplace","label":"bytes32","numberOfBytes":"32"},"t_bytes_storage":{"encoding":"bytes","label":"bytes","numberOfBytes":"32"},"t_contract(IERC20)877":{"encoding":"inplace","label":"contract IERC20","numberOfBytes":"20"},"t_mapping(t_address,t_struct(AgentInfo)1893_storage)":{"encoding":"mapping","key":"t_address","label":"mapping(address => struct OracleHub.AgentInfo)","numberOfBytes":"32","value":"t_struct(AgentInfo)1893_storage"},"t_mapping(t_bytes32,t_struct(Request)1868_storage)":{"encoding":"mapping","key":"t_bytes32","label":"mapping(bytes32 => struct OracleHub.Request)","numberOfBytes":"32","value":"t_struct(Request)1868_storage"},"t_string_storage":{"encoding":"bytes","label":"string","numberOfBytes":"32"},"t_struct(AgentInfo)1893_storage":{"encoding":"inplace","label":"struct OracleHub.AgentInfo","members":[{"astId":1881,"contract":"contracts/OracleHub.sol:OracleHub","label":"isRegistered","offset":0,"slot":"0","type":"t_bool"},{"astId":1884,"contract":"contracts/OracleHub.sol:OracleHub","label":"capabilities","offset":0,"slot":"1","type":"t_array(t_string_storage)dyn_storage"},{"astId":1886,"contract":"contracts/OracleHub.sol:OracleHub","label":"stake","offset":0,"slot":"2","type":"t_uint256"},{"astId":1888,"contract":"contracts/OracleHub.sol:OracleHub","label":"reputation","offset":0,"slot":"3","type":"t_uint256"},{"astId":1890,"contract":"contracts/OracleHub.sol:OracleHub","label":"totalRequests","offset":0,"slot":"4","type":"t_uint256"},{"astId":1892,"contract":"contracts/OracleHub.sol:OracleHub","label":"correctResponses","offset":0,"slot":"5","type":"t_uint256"}],"numberOfBytes":"192"},"t_struct(Request)1868_storage":{"encoding":"inplace","label":"struct OracleHub.Request","members":[{"astId":1847,"contract":"contracts/OracleHub.sol:OracleHub","label":"requester","offset":0,"slot":"0","type":"t_address"},{"astId":1849,"contract":"contracts/OracleHub.sol:OracleHub","label":"dataType","offset":0,"slot":"1","type":"t_string_storage"},{"astId":1851,"contract":"contracts/OracleHub.sol:OracleHub","label":"parameters","offset":0,"slot":"2","type":"t_bytes_storage"},{"astId":1853,"contract":"contracts/OracleHub.sol:OracleHub","label":"fee","offset":0,"slot":"3","type":"t_uint256"},{"astId":1855,"contract":"contracts/OracleHub.sol:OracleHub","label":"requiredAgents","offset":0,"slot":"4","type":"t_uint8"},{"astId":1857,"contract":"contracts/OracleHub.sol:OracleHub","label":"consensusThreshold","offset":1,"slot":"4","type":"t_uint8"},{"astId":1859,"contract":"contracts/OracleHub.sol:OracleHub","label":"deadline","offset":0,"slot":"5","type":"t_uint256"},{"astId":1861,"contract":"contracts/OracleHub.sol:OracleHub","label":"finalized","offset":0,"slot":"6","type":"t_bool"},{"astId":1863,"contract":"contracts/OracleHub.sol:OracleHub","label":"result","offset":0,"slot":"7","type":"t_bytes_storage"},{"astId":1867,"contract":"contracts/OracleHub.sol:OracleHub","label":"responses","offset":0,"slot":"8","type":"t_array(t_struct(Response)1879_storage)dyn_storage"}],"numberOfBytes":"288"},"t_struct(Response)1879_storage":{"encoding":"inplace","label":"struct OracleHub.Response","members":[{"astId":1870,"contract":"contracts/OracleHub.sol:OracleHub","label":"agent","offset":0,"slot":"0","type":"t_address"},{"astId":1872,"contract":"contracts/OracleHub.sol:OracleHub","label":"data","offset":0,"slot":"1","type":"t_bytes_storage"},{"astId":1874,"contract":"contracts/OracleHub.sol:OracleHub","label":"proof","offset":0,"slot":"2","type":"t_string_storage"},{"astId":1876,"contract":"contracts/OracleHub.sol:OracleHub","label":"timestamp","offset":0,"slot":"3","type":"t_uint256"},{"astId":1878,"contract":"contracts/OracleHub.sol:OracleHub","label":"correct","offset":0,"slot":"4","type":"t_bool"}],"numberOfBytes":"160"},"t_uint256":{"encoding":"inplace","label":"uint256","numberOfBytes":"32"},"t_uint8":{"encoding":"inplace","label":"uint8","numberOfBytes":"1"}}}}}}