{"contracts/AgentRegistry.sol":{"AgentRegistry":{"abi":[{"inputs":[{"internalType":"address","name":"_oracleToken","type":"address"}],"stateMutability":"nonpayable","type":"constructor"},{"inputs":[{"internalType":"address","name":"owner","type":"address"}],"name":"OwnableInvalidOwner","type":"error"},{"inputs":[{"internalType":"address","name":"account","type":"address"}],"name":"OwnableUnauthorizedAccount","type":"error"},{"inputs":[],"name":"ReentrancyGuardReentrantCall","type":"error"},{"anonymous":false,"inputs":[{"indexed":true,"internalType":"address","name":"agent","type":"address"},{"indexed":false,"internalType":"string","name":"reason","type":"string"}],"name":"AgentBlacklisted","type":"event"},{"anonymous":false,"inputs":[{"indexed":true,"internalType":"address","name":"agent","type":"address"},{"indexed":false,"internalType":"string[]","name":"capabilities","type":"string[]"}],"name":"AgentRegistered","type":"event"},{"anonymous":false,"inputs":[{"indexed":true,"internalType":"address","name":"agent","type":"address"},{"indexed":false,"internalType":"uint256","name":"amount","type":"uint256"}],"name":"AgentStaked","type":"event"},{"anonymous":false,"inputs":[{"indexed":true,"internalType":"address","name":"agent","type":"address"},{"indexed":false,"internalType":"uint256","name":"amount","type":"uint256"},{"indexed":false,"internalType":"uint256","name":"unlockTime","type":"uint256"}],"name":"AgentUnstaked","type":"event"},{"anonymous":false,"inputs":[{"indexed":true,"internalType":"address","name":"previousOwner","type":"address"},{"indexed":true,"internalType":"address","name":"newOwner","type":"address"}],"name":"OwnershipTransferred","type":"event"},{"anonymous":false,"inputs":[{"indexed":true,"internalType":"address","name":"agent","type":"address"},{"indexed":false,"internalType":"uint256","name":"newReputation","type":"uint256"}],"name":"ReputationUpdated","type":"event"},{"anonymous":false,"inputs":[{"indexed":true,"internalType":"address","name":"agent","type":"address"},{"indexed":false,"internalType":"uint256","name":"amount","type":"uint256"},{"indexed":false,"internalType":"string","name":"reason","type":"string"}],"name":"StakeSlashed","type":"event"},{"inputs":[],"name":"LOCK_PERIOD","outputs":[{"internalType":"uint256","name":"","type":"uint256"}],"stateMutability":"view","type":"function"},{"inputs":[],"name":"MIN_STAKE","outputs":[{"internalType":"uint256","name":"","type":"uint256"}],"stateMutability":"view","type":"function"},{"inputs":[{"internalType":"uint256","name":"","type":"uint256"}],"name":"agentList","outputs":[{"internalType":"address","name":"","type":"address"}],"stateMutability":"view","type":"function"},{"inputs":[{"internalType":"address","name":"","type":"address"}],"name":"agents","outputs":[{"internalType":"address payable","name":"wallet","type":"address"},{"internalType":"uint256","name":"stake","type":"uint256"},{"internalType":"uint256","name":"reputation","type":"uint256"},{"internalType":"uint256","name":"totalRequests","type":"uint256"},{"internalType":"uint256","name":"correctResponses","type":"uint256"},{"internalType":"uint256","name":"lastActive","type":"uint256"},{"internalType":"bool","name":"blacklisted","type":"bool"}],"stateMutability":"view","type":"function"},{"inputs":[{"internalType":"address","name":"agent","type":"address"},{"internalType":"string","name":"reason","type":"string"}],"name":"blacklistAgent","outputs":[],"stateMutability":"nonpayable","type":"function"},{"inputs":[],"name":"getAgentCount","outputs":[{"internalType":"uint256","name":"","type":"uint256"}],"stateMutability":"view","type":"function"},{"inputs":[{"internalType":"string","name":"capability","type":"string"}],"name":"getAgentsByCapability","outputs":[{"internalType":"address[]","name":"","type":"address[]"}],"stateMutability":"view","type":"function"},{"inputs":[],"name":"oracleToken","outputs":[{"internalType":"contract IERC20","name":"","type":"address"}],"stateMutability":"view","type":"function"},{"inputs":[],"name":"owner","outputs":[{"internalType":"address","name":"","type":"address"}],"stateMutability":"view","type":"function"},{"inputs":[{"internalType":"address","name":"","type":"address"}],"name":"pendingUnstake","outputs":[{"internalType":"uint256","name":"","type":"uint256"}],"stateMutability":"view","type":"function"},{"inputs":[{"internalType":"address","name":"agent","type":"address"}],"name":"recordSuccess","outputs":[],"stateMutability":"nonpayable","type":"function"},{"inputs":[{"internalType":"string[]","name":"capabilities","type":"string[]"},{"internalType":"string[]","name":"dataSources","type":"string[]"}],"name":"registerAgent","outputs":[],"stateMutability":"nonpayable","type":"function"},{"inputs":[],"name":"renounceOwnership","outputs":[],"stateMutability":"nonpayable","type":"function"},{"inputs":[{"internalType":"address","name":"agent","type":"address"},{"internalType":"uint256","name":"amount","type":"uint256"},{"internalType":"string","name":"reason","type":"string"}],"name":"slashStake","outputs":[],"stateMutability":"nonpayable","type":"function"},{"inputs":[{"internalType":"uint256","name":"amount","type":"uint256"}],"name":"stakeTokens","outputs":[],"stateMutability":"nonpayable","type":"function"},{"inputs":[{"internalType":"address","name":"","type":"address"}],"name":"stakedAt","outputs":[{"internalType":"uint256","name":"","type":"uint256"}],"stateMutability":"view","type":"function"},{"inputs":[{"internalType":"address","name":"newOwner","type":"address"}],"name":"transferOwnership","outputs":[],"stateMutability":"nonpayable","type":"function"},{"inputs":[{"internalType":"uint256","name":"amount","type":"uint256"}],"name":"unstakeTokens","outputs":[],"stateMutability":"nonpayable","type":"function"},{"inputs":[{"internalType":"address","name":"agent","type":"address"},{"internalType":"uint256","name":"newReputation","type":"uint256"}],"name":"updateReputation","outputs":[],"stateMutability":"nonpayable","type":"function"},{"inputs":[],"name":"withdraw","outputs":[],"stateMutability":"nonpayable","type":"function"}],"evm":{"bytecode":{"linkReferences":{},"object":"6080346100ca57601f611a2338819003918201601f19168301916001600160401b038311848410176100cf578084926020946040528339810103126100ca57516001600160a01b0390818116908190036100ca5733156100b15760005460018060a01b0319903382821617600055604051933391167f8be0079c531659141344cd1fd0a4f28419497f9722a3daafe3b4186f6b6457e0600080a360018055600454161760045561193d90816100e68239f35b604051631e4fbdf760e01b815260006004820152602490fd5b600080fd5b634e487b7160e01b600052604160045260246000fdfe6080604052600436101561001257600080fd5b6000803560e01c80630cedba7b146114525780631820cabb146114345780632f80c54f146113f05780633ccfd60b14611301578063423412871461122957806356d6ea4f146111f0578063608e4dd014611082578063715018a6146110285780637547c7a314610ea857806383472fcf14610e7f5780638da5cb5b14610e5857806391cab63e14610e3a578063b00ddb1414610d4b578063bfe3a33b146106f7578063cb1c2b5c146106d3578063cc62097a146102f4578063ef36bbde146102bb578063f2fde38b14610235578063f5c91a081461017f5763fd66091e146100f957600080fd5b3461017c57602036600319011261017c5760e0906001600160a01b0390604090826101226115c8565b16815260026020522090815416906003810154906004810154600582015460068301549160ff600860078601549501541694604051968752602087015260408601526060850152608084015260a0830152151560c0820152f35b80fd5b503461017c57604036600319011261017c576101996115c8565b602435906101a56118b8565b606482116101fb5760207ffc577563f1b9a0461e24abef1e1fcc0d33d3d881f20b5df6dda59de4aae2c8219160018060a01b0316928385526002825260408520816004820155600742910155604051908152a280f35b60405162461bcd60e51b8152602060048201526012602482015271052657075746174696f6e206d6178203130360741b6044820152606490fd5b503461017c57602036600319011261017c5761024f6115c8565b6102576118b8565b6001600160a01b039081169081156102a25782546001600160a01b0319811683178455167f8be0079c531659141344cd1fd0a4f28419497f9722a3daafe3b4186f6b6457e08380a380f35b604051631e4fbdf760e01b815260048101849052602490fd5b503461017c57602036600319011261017c576020906040906001600160a01b036102e36115c8565b168152600583522054604051908152f35b503461017c576020806003193601126106cf5760043567ffffffffffffffff81116106cb576103279036906004016115e3565b928093816003938454915b828110610571575061035c610346886118a0565b97610354604051998a6116eb565b8089526118a0565b87870195601f19929183013688378594865b8581106103c0578a8a8a8a60405193838594850191818652518092526040850193925b8281106103a057505050500390f35b83516001600160a01b031685528695509381019392810192600101610391565b876103cf829c9a9b999c611611565b9060018060a01b039182915490871b1c16825289856002938483528460ff60086040842001541615938461053e575b50505050610416575b5050600101999698979961036e565b95919996909a8c99989c959394955b8761042f8d611611565b905490891b1c168b528c8a5260018060408d2001548210156105265781610473918f8f8f90918f8e8e610463604096611611565b9054911b1c16835252200161165e565b5061048a6104968c6040519283918201809561181c565b038781018352826116eb565b5190208b6040516104bd8d82818101948c8c87378c820190838201520380845201826116eb565b519020146104cd57600101610425565b509a50959896979a90946104e48895949395611611565b905490851b1c1689518210156105125781610509918a60019460051b8d0101526117bc565b965b9038610407565b634e487b7160e01b8c52603260045260248cfd5b50509a50959860019195509a96979a9392919361050b565b683635c9adc5dea0000094509060409291866105598a611611565b905490871b1c168352522001541015858e848d6103fe565b61057f819896979598611611565b90546001600160a01b0391891b1c81168952600280875260408a206008015460ff16158061069c575b6105bc575b50506001019693959496610332565b89939499989198979692975b896105d28a611611565b905490851b1c1685528184526001806040872001548210156106895781610613918c6105fd8d611611565b905490881b1c168852848752604088200161165e565b5060405161063681610628888201809561181c565b03601f1981018352826116eb565b519020604051858101908989833761065c87828c81018b838201520380845201826116eb565b5190201461066c576001016105c8565b5050965093610680600191989392986117bc565b955b90386105ad565b5050509650939460019097929197610682565b50816106a784611611565b9054908b1b1c168a52808752683635c9adc5dea000008960408c20015410156105a8565b8280fd5b5080fd5b503461017c578060031936011261017c576020604051683635c9adc5dea000008152f35b503461017c57604036600319011261017c5767ffffffffffffffff6004358181116106cb5761072a903690600401611676565b90602435838111610d4757610743903690600401611676565b338652600260205260ff600860408820015416610d0b578315610cc6573386526002602052600160408720336bffffffffffffffffffffffff60a01b82541617815501600160401b8511610ae1578054858255808610610c55575b508652602086208690845b868310610af557505050338652600260205260026040872001600160401b8211610ae1578054828255808310610a70575b508652602086208692805b83851061091257505050505033845260026020526040842084600382015560326004820155600742910155600354600160401b8110156108fe578060016108329295939501600355611611565b81549060031b9033821b9160018060a01b03901b19161790556040519180602084016020855252604083019060408160051b85010194809387915b83831061089f5788337fc0491772b9ad33b5d74f23266b0e1fc0db4a19f52a5cebabb20438195b11a953898b038aa280f35b909192939496603f198782030186528735601e19833603018112156108fa57820190602082359201918481116108f65780360383136108f6576108e860209283926001956116ca565b99019601949301919061086d565b8a80fd5b8980fd5b634e487b7160e01b85526041600452602485fd5b8035601e19833603018112156108fa578881840135116108fa57808301353603602082850101136108fa5761094784546117cb565b90601f91828111610a32575b508a809282860135116001146109b0579261099260019493602093869591818901356109a1575b50870135908160011b916000199060031b1c19161790565b86555b019301940193916107e5565b8882010185013591503861097a565b85905260208b2090918b5b85840135601f19168110610a1657506001938493602093919285929088830135601f198116106109f5575b5050860135811b018655610995565b8560001960f8858c013560031b161c1991848b0101013516905538806109e6565b90916020600181928286888b01010135815501930191016109bb565b610a6190868d5260208d2060058580868a013501821c8301936020878b013510610a67575b01901c0190611805565b38610953565b93508293610a57565b818852826020892091820191015b818110610a8b57506107da565b8089610a99600193546117cb565b80610aa7575b505001610a7e565b601f8082118514610abe57505081555b8938610a9f565b610ad89084845260208420920160051c8201858301611805565b81835555610ab7565b634e487b7160e01b87526041600452602487fd5b8035601e19873603018112156108fa578881880135116108fa57808701353603602082890101136108fa57610b2a83546117cb565b908a88601f93848111610c1f575b50508092828a013511600114610b955792610b7760019493602093869591818d0135610b86575b508b0135908160011b916000199060031b1c19161790565b85555b019201920191906107a9565b8c820101850135915038610b5f565b84905260208b20909188908c5b82850135601f19168110610c00575060019485946020949193869391929181840135601f19811610610bde575b5090500135811b018555610b7a565b86908460001960f88286013560031b161c199301010135169055388b81610bcf565b9160018294602080948882950101013581550193019101908991610ba2565b60208388610c4d9552209085600591602087838188013501851c860196013510610a675701901c0190611805565b8a8838610b38565b818852856020892091820191015b818110610c70575061079e565b8089610c7e600193546117cb565b80610c8c575b505001610c63565b601f8082118514610ca357505081555b8938610c84565b610cbd9084845260208420920160051c8201858301611805565b81835555610c9c565b60405162461bcd60e51b815260206004820152601c60248201527f4e656564206174206c65617374206f6e65206361706162696c697479000000006044820152606490fd5b60405162461bcd60e51b81526020600482015260146024820152731059d95b9d081a5cc8189b1858dadb1a5cdd195960621b6044820152606490fd5b8480fd5b503461017c57604036600319011261017c57610d656115c8565b60243567ffffffffffffffff81116106cb57610da67fc32d81504c00ce92eaeed0852b187e372b250d24935ca5a510426adbd42cc2579136906004016115e3565b9092610db06118b8565b60018060a01b0316928385526002602052610e3460036040872060088101600160ff1982541617905501918683549355857f11699a7c3771302fe75247e5fd6bdc1c8b4e9525c733d939d5b25c11518a76496040516020815280610e186020820189876116ca565b0390a260405193849384526040602085015260408401916116ca565b0390a280f35b503461017c578060031936011261017c576020600354604051908152f35b503461017c578060031936011261017c57546040516001600160a01b039091168152602090f35b503461017c578060031936011261017c576004546040516001600160a01b039091168152602090f35b503461017c576020806003193601126106cf5760043590610ec76118e4565b683635c9adc5dea000008210610fe45733835260028152610ef060016040852001541515611779565b828160018060a01b03600454166064604051809481936323b872dd60e01b83523360048401523060248401528860448401525af18015610fd957610f3b918591610fac575b5061173b565b3383526002815260036040842001805490838201809211610f9857907ff9db686338528add22bbb0c0ba6ddecd5386497dda282e4ac76477fa248fdb06929155338452600581524260408520556040519283523392a26001805580f35b634e487b7160e01b85526011600452602485fd5b610fcc9150833d8511610fd2575b610fc481836116eb565b810190611723565b38610f35565b503d610fba565b6040513d86823e3d90fd5b6064906040519062461bcd60e51b82526004820152601c60248201527f4d696e696d756d207374616b652069732031303030204f5241434c45000000006044820152fd5b503461017c578060031936011261017c576110416118b8565b80546001600160a01b03198116825581906001600160a01b03167f8be0079c531659141344cd1fd0a4f28419497f9722a3daafe3b4186f6b6457e08280a380f35b503461017c576020806003193601126106cf57600435906110a16118e4565b33835260028152816003604085200154106111b75733835260028152683635c9adc5dea0000060036040852001541015611156575b33835260028152600360408420016110ef8382546116a7565b90553383526006815281604084205562093a80420190814211611142576040519283528201527f34898684241c7fe73e69d259e38c5c5fefa5322536a94bd25e583596a5cde9d160403392a26001805580f35b634e487b7160e01b84526011600452602484fd5b60058152604083205462093a808101809111611142574210156110d6576064906040519062461bcd60e51b82526004820152601760248201527f5374616b65206c6f636b656420666f72203720646179730000000000000000006044820152fd5b6064906040519062461bcd60e51b825260048201526012602482015271496e73756666696369656e74207374616b6560701b6044820152fd5b503461017c57602036600319011261017c576020906040906001600160a01b036112186115c8565b168152600683522054604051908152f35b503461017c576020806003193601126106cf576112446115c8565b61124c6118b8565b6001600160a01b0316808352600282526040832060010154909190611272901515611779565b818352600281526005604084200161128a81546117bc565b905581835260028152600660408420016112a481546117bc565b9055818352600281526004604084200154606481106112cb575b8342600760408320015580f35b60018101809111611142576002919060648112156112f857925b84525260046040832001553880806112be565b506064926112e5565b503461017c578060031936011261017c5761131a6118e4565b338152602060068152604082205480156113b35781839133835260068252826040812055604460018060a01b036004541691604051948593849263a9059cbb60e01b845233600485015260248401525af19081156113a85761138492849261138b575b505061173b565b6001805580f35b6113a19250803d10610fd257610fc481836116eb565b388061137d565b6040513d85823e3d90fd5b60405162461bcd60e51b8152600481018390526015602482015274139bc81c195b991a5b99c81dda5d1a191c985dd85b605a1b6044820152606490fd5b503461017c57602036600319011261017c576004359060035482101561017c57602061141b83611611565b905460405160039290921b1c6001600160a01b03168152f35b503461017c578060031936011261017c57602060405162093a808152f35b503461017c57606036600319011261017c5761146c6115c8565b60243560443567ffffffffffffffff81116115c45761148f9036906004016115e3565b91909261149a6118b8565b6001600160a01b031680855260026020526040852060030154909390821161157f578385526002602052600360408620016114d68382546116a7565b9055838552600260205260046040862001805490600a8211611535575b505090610e347fc32d81504c00ce92eaeed0852b187e372b250d24935ca5a510426adbd42cc257939260405193849384526040602085015260408401916116ca565b600919820191821161156b5755610e347fc32d81504c00ce92eaeed0852b187e372b250d24935ca5a510426adbd42cc2576114f3565b634e487b7160e01b87526011600452602487fd5b60405162461bcd60e51b815260206004820152601b60248201527f496e73756666696369656e74207374616b6520746f20736c61736800000000006044820152606490fd5b8380fd5b600435906001600160a01b03821682036115de57565b600080fd5b9181601f840112156115de5782359167ffffffffffffffff83116115de57602083818601950101116115de57565b6003548110156116485760036000527fc2575a0e9e593c00f959f8c92f12db2869c3395a3b0502d05e2516446f71f85b0190600090565b634e487b7160e01b600052603260045260246000fd5b80548210156116485760005260206000200190600090565b9181601f840112156115de5782359167ffffffffffffffff83116115de576020808501948460051b0101116115de57565b919082039182116116b457565b634e487b7160e01b600052601160045260246000fd5b908060209392818452848401376000828201840152601f01601f1916010190565b90601f8019910116810190811067ffffffffffffffff82111761170d57604052565b634e487b7160e01b600052604160045260246000fd5b908160209103126115de575180151581036115de5790565b1561174257565b60405162461bcd60e51b815260206004820152600f60248201526e151c985b9cd9995c8819985a5b1959608a1b6044820152606490fd5b1561178057565b60405162461bcd60e51b81526020600482015260146024820152731059d95b9d081b9bdd081c9959da5cdd195c995960621b6044820152606490fd5b60001981146116b45760010190565b90600182811c921680156117fb575b60208310146117e557565b634e487b7160e01b600052602260045260246000fd5b91607f16916117da565b818110611810575050565b60008155600101611805565b60009291815461182b816117cb565b926001918083169081156118855750600114611848575b50505050565b9091929394506000526020906020600020906000915b8583106118745750505050019038808080611842565b80548584015291830191810161185e565b60ff1916845250505081151590910201915038808080611842565b67ffffffffffffffff811161170d5760051b60200190565b6000546001600160a01b031633036118cc57565b60405163118cdaa760e01b8152336004820152602490fd5b6002600154146118f5576002600155565b604051633ee5aeb560e01b8152600490fdfea26469706673582212204ade2555432f6a3a48d65a7a1993a56639ce248cae98a3269d4133decf71514b64736f6c63430008180033","opcodes":"PUSH1 0x80 CALLVALUE PUSH2 0xCA JUMPI PUSH1 0x1F PUSH2 0x1A23 CODESIZE DUP2 SWAP1 SUB SWAP2 DUP3 ADD PUSH1 0x1F NOT AND DUP4 ADD SWAP2 PUSH1 0x1 PUSH1 0x1 PUSH1 0x40 SHL SUB DUP4 GT DUP5 DUP5 LT OR PUSH2 0xCF JUMPI DUP1 DUP5 SWAP3 PUSH1 0x20 SWAP5 PUSH1 0x40 MSTORE DUP4 CODECOPY DUP2 ADD SUB SLT PUSH2 0xCA JUMPI MLOAD PUSH1 0x1 PUSH1 0x1 PUSH1 0xA0 SHL SUB SWAP1 DUP2 DUP2 AND SWAP1 DUP2 SWAP1 SUB PUSH2 0xCA JUMPI CALLER ISZERO PUSH2 0xB1 JUMPI PUSH1 0x0 SLOAD PUSH1 0x1 DUP1 PUSH1 0xA0 SHL SUB NOT SWAP1 CALLER DUP3 DUP3 AND OR PUSH1 0x0 SSTORE PUSH1 0x40 MLOAD SWAP4 CALLER SWAP2 AND PUSH32 0x8BE0079C531659141344CD1FD0A4F28419497F9722A3DAAFE3B4186F6B6457E0 PUSH1 0x0 DUP1 LOG3 PUSH1 0x1 DUP1 SSTORE PUSH1 0x4 SLOAD AND OR PUSH1 0x4 SSTORE PUSH2 0x193D SWAP1 DUP2 PUSH2 0xE6 DUP3 CODECOPY RETURN JUMPDEST PUSH1 0x40 MLOAD PUSH4 0x1E4FBDF7 PUSH1 0xE0 SHL DUP2 MSTORE PUSH1 0x0 PUSH1 0x4 DUP3 ADD MSTORE PUSH1 0x24 SWAP1 REVERT JUMPDEST PUSH1 0x0 DUP1 REVERT JUMPDEST PUSH4 0x4E487B71 PUSH1 0xE0 SHL PUSH1 0x0 MSTORE PUSH1 0x41 PUSH1 0x4 MSTORE PUSH1 0x24 PUSH1 0x0 REVERT INVALID PUSH1 0x80 PUSH1 0x40 MSTORE PUSH1 0x4 CALLDATASIZE LT ISZERO PUSH2 0x12 JUMPI PUSH1 0x0 DUP1 REVERT JUMPDEST PUSH1 0x0 DUP1 CALLDATALOAD PUSH1 0xE0 SHR DUP1 PUSH4 0xCEDBA7B EQ PUSH2 0x1452 JUMPI DUP1 PUSH4 0x1820CABB EQ PUSH2 0x1434 JUMPI DUP1 PUSH4 0x2F80C54F EQ PUSH2 0x13F0 JUMPI DUP1 PUSH4 0x3CCFD60B EQ PUSH2 0x1301 JUMPI DUP1 PUSH4 0x42341287 EQ PUSH2 0x1229 JUMPI DUP1 PUSH4 0x56D6EA4F EQ PUSH2 0x11F0 JUMPI DUP1 PUSH4 0x608E4DD0 EQ PUSH2 0x1082 JUMPI DUP1 PUSH4 0x715018A6 EQ PUSH2 0x1028 JUMPI DUP1 PUSH4 0x7547C7A3 EQ PUSH2 0xEA8 JUMPI DUP1 PUSH4 0x83472FCF EQ PUSH2 0xE7F JUMPI DUP1 PUSH4 0x8DA5CB5B EQ PUSH2 0xE58 JUMPI DUP1 PUSH4 0x91CAB63E EQ PUSH2 0xE3A JUMPI DUP1 PUSH4 0xB00DDB14 EQ PUSH2 0xD4B JUMPI DUP1 PUSH4 0xBFE3A33B EQ PUSH2 0x6F7 JUMPI DUP1 PUSH4 0xCB1C2B5C EQ PUSH2 0x6D3 JUMPI DUP1 PUSH4 0xCC62097A EQ PUSH2 0x2F4 JUMPI DUP1 PUSH4 0xEF36BBDE EQ PUSH2 0x2BB JUMPI DUP1 PUSH4 0xF2FDE38B EQ PUSH2 0x235 JUMPI DUP1 PUSH4 0xF5C91A08 EQ PUSH2 0x17F JUMPI PUSH4 0xFD66091E EQ PUSH2 0xF9 JUMPI PUSH1 0x0 DUP1 REVERT JUMPDEST CALLVALUE PUSH2 0x17C JUMPI PUSH1 0x20 CALLDATASIZE PUSH1 0x3 NOT ADD SLT PUSH2 0x17C JUMPI PUSH1 0xE0 SWAP1 PUSH1 0x1 PUSH1 0x1 PUSH1 0xA0 SHL SUB SWAP1 PUSH1 0x40 SWAP1 DUP3 PUSH2 0x122 PUSH2 0x15C8 JUMP JUMPDEST AND DUP2 MSTORE PUSH1 0x2 PUSH1 0x20 MSTORE KECCAK256 SWAP1 DUP2 SLOAD AND SWAP1 PUSH1 0x3 DUP2 ADD SLOAD SWAP1 PUSH1 0x4 DUP2 ADD SLOAD PUSH1 0x5 DUP3 ADD SLOAD PUSH1 0x6 DUP4 ADD SLOAD SWAP2 PUSH1 0xFF PUSH1 0x8 PUSH1 0x7 DUP7 ADD SLOAD SWAP6 ADD SLOAD AND SWAP5 PUSH1 0x40 MLOAD SWAP7 DUP8 MSTORE PUSH1 0x20 DUP8 ADD MSTORE PUSH1 0x40 DUP7 ADD MSTORE PUSH1 0x60 DUP6 ADD MSTORE PUSH1 0x80 DUP5 ADD MSTORE PUSH1 0xA0 DUP4 ADD MSTORE ISZERO ISZERO PUSH1 0xC0 DUP3 ADD MSTORE RETURN JUMPDEST DUP1 REVERT JUMPDEST POP CALLVALUE PUSH2 0x17C JUMPI PUSH1 0x40 CALLDATASIZE PUSH1 0x3 NOT ADD SLT PUSH2 0x17C JUMPI PUSH2 0x199 PUSH2 0x15C8 JUMP JUMPDEST PUSH1 0x24 CALLDATALOAD SWAP1 PUSH2 0x1A5 PUSH2 0x18B8 JUMP JUMPDEST PUSH1 0x64 DUP3 GT PUSH2 0x1FB JUMPI PUSH1 0x20 PUSH32 0xFC577563F1B9A0461E24ABEF1E1FCC0D33D3D881F20B5DF6DDA59DE4AAE2C821 SWAP2 PUSH1 0x1 DUP1 PUSH1 0xA0 SHL SUB AND SWAP3 DUP4 DUP6 MSTORE PUSH1 0x2 DUP3 MSTORE PUSH1 0x40 DUP6 KECCAK256 DUP2 PUSH1 0x4 DUP3 ADD SSTORE PUSH1 0x7 TIMESTAMP SWAP2 ADD SSTORE PUSH1 0x40 MLOAD SWAP1 DUP2 MSTORE LOG2 DUP1 RETURN JUMPDEST PUSH1 0x40 MLOAD PUSH3 0x461BCD PUSH1 0xE5 SHL DUP2 MSTORE PUSH1 0x20 PUSH1 0x4 DUP3 ADD MSTORE PUSH1 0x12 PUSH1 0x24 DUP3 ADD MSTORE PUSH18 0x52657075746174696F6E206D61782031303 PUSH1 0x74 SHL PUSH1 0x44 DUP3 ADD MSTORE PUSH1 0x64 SWAP1 REVERT JUMPDEST POP CALLVALUE PUSH2 0x17C JUMPI PUSH1 0x20 CALLDATASIZE PUSH1 0x3 NOT ADD SLT PUSH2 0x17C JUMPI PUSH2 0x24F PUSH2 0x15C8 JUMP JUMPDEST PUSH2 0x257 PUSH2 0x18B8 JUMP JUMPDEST PUSH1 0x1 PUSH1 0x1 PUSH1 0xA0 SHL SUB SWAP1 DUP2 AND SWAP1 DUP2 ISZERO PUSH2 0x2A2 JUMPI DUP3 SLOAD PUSH1 0x1 PUSH1 0x1 PUSH1 0xA0 SHL SUB NOT DUP2 AND DUP4 OR DUP5 SSTORE AND PUSH32 0x8BE0079C531659141344CD1FD0A4F28419497F9722A3DAAFE3B4186F6B6457E0 DUP4 DUP1 LOG3 DUP1 RETURN JUMPDEST PUSH1 0x40 MLOAD PUSH4 0x1E4FBDF7 PUSH1 0xE0 SHL DUP2 MSTORE PUSH1 0x4 DUP2 ADD DUP5 SWAP1 MSTORE PUSH1 0x24 SWAP1 REVERT JUMPDEST POP CALLVALUE PUSH2 0x17C JUMPI PUSH1 0x20 CALLDATASIZE PUSH1 0x3 NOT ADD SLT PUSH2 0x17C JUMPI PUSH1 0x20 SWAP1 PUSH1 0x40 SWAP1 PUSH1 0x1 PUSH1 0x1 PUSH1 0xA0 SHL SUB PUSH2 0x2E3 PUSH2 0x15C8 JUMP JUMPDEST AND DUP2 MSTORE PUSH1 0x5 DUP4 MSTORE KECCAK256 SLOAD PUSH1 0x40 MLOAD SWAP1 DUP2 MSTORE RETURN JUMPDEST POP CALLVALUE PUSH2 0x17C JUMPI PUSH1 0x20 DUP1 PUSH1 0x3 NOT CALLDATASIZE ADD SLT PUSH2 0x6CF JUMPI PUSH1 0x4 CALLDATALOAD PUSH8 0xFFFFFFFFFFFFFFFF DUP2 GT PUSH2 0x6CB JUMPI PUSH2 0x327 SWAP1 CALLDATASIZE SWAP1 PUSH1 0x4 ADD PUSH2 0x15E3 JUMP JUMPDEST SWAP3 DUP1 SWAP4 DUP2 PUSH1 0x3 SWAP4 DUP5 SLOAD SWAP2 JUMPDEST DUP3 DUP2 LT PUSH2 0x571 JUMPI POP PUSH2 0x35C PUSH2 0x346 DUP9 PUSH2 0x18A0 JUMP JUMPDEST SWAP8 PUSH2 0x354 PUSH1 0x40 MLOAD SWAP10 DUP11 PUSH2 0x16EB JUMP JUMPDEST DUP1 DUP10 MSTORE PUSH2 0x18A0 JUMP JUMPDEST DUP8 DUP8 ADD SWAP6 PUSH1 0x1F NOT SWAP3 SWAP2 DUP4 ADD CALLDATASIZE DUP9 CALLDATACOPY DUP6 SWAP5 DUP7 JUMPDEST DUP6 DUP2 LT PUSH2 0x3C0 JUMPI DUP11 DUP11 DUP11 DUP11 PUSH1 0x40 MLOAD SWAP4 DUP4 DUP6 SWAP5 DUP6 ADD SWAP2 DUP2 DUP7 MSTORE MLOAD DUP1 SWAP3 MSTORE PUSH1 0x40 DUP6 ADD SWAP4 SWAP3 JUMPDEST DUP3 DUP2 LT PUSH2 0x3A0 JUMPI POP POP POP POP SUB SWAP1 RETURN JUMPDEST DUP4 MLOAD PUSH1 0x1 PUSH1 0x1 PUSH1 0xA0 SHL SUB AND DUP6 MSTORE DUP7 SWAP6 POP SWAP4 DUP2 ADD SWAP4 SWAP3 DUP2 ADD SWAP3 PUSH1 0x1 ADD PUSH2 0x391 JUMP JUMPDEST DUP8 PUSH2 0x3CF DUP3 SWAP13 SWAP11 SWAP12 SWAP10 SWAP13 PUSH2 0x1611 JUMP JUMPDEST SWAP1 PUSH1 0x1 DUP1 PUSH1 0xA0 SHL SUB SWAP2 DUP3 SWAP2 SLOAD SWAP1 DUP8 SHL SHR AND DUP3 MSTORE DUP10 DUP6 PUSH1 0x2 SWAP4 DUP5 DUP4 MSTORE DUP5 PUSH1 0xFF PUSH1 0x8 PUSH1 0x40 DUP5 KECCAK256 ADD SLOAD AND ISZERO SWAP4 DUP5 PUSH2 0x53E JUMPI JUMPDEST POP POP POP POP PUSH2 0x416 JUMPI JUMPDEST POP POP PUSH1 0x1 ADD SWAP10 SWAP7 SWAP9 SWAP8 SWAP10 PUSH2 0x36E JUMP JUMPDEST SWAP6 SWAP2 SWAP10 SWAP7 SWAP1 SWAP11 DUP13 SWAP10 SWAP9 SWAP13 SWAP6 SWAP4 SWAP5 SWAP6 JUMPDEST DUP8 PUSH2 0x42F DUP14 PUSH2 0x1611 JUMP JUMPDEST SWAP1 SLOAD SWAP1 DUP10 SHL SHR AND DUP12 MSTORE DUP13 DUP11 MSTORE PUSH1 0x1 DUP1 PUSH1 0x40 DUP14 KECCAK256 ADD SLOAD DUP3 LT ISZERO PUSH2 0x526 JUMPI DUP2 PUSH2 0x473 SWAP2 DUP16 DUP16 DUP16 SWAP1 SWAP2 DUP16 DUP15 DUP15 PUSH2 0x463 PUSH1 0x40 SWAP7 PUSH2 0x1611 JUMP JUMPDEST SWAP1 SLOAD SWAP2 SHL SHR AND DUP4 MSTORE MSTORE KECCAK256 ADD PUSH2 0x165E JUMP JUMPDEST POP PUSH2 0x48A PUSH2 0x496 DUP13 PUSH1 0x40 MLOAD SWAP3 DUP4 SWAP2 DUP3 ADD DUP1 SWAP6 PUSH2 0x181C JUMP JUMPDEST SUB DUP8 DUP2 ADD DUP4 MSTORE DUP3 PUSH2 0x16EB JUMP JUMPDEST MLOAD SWAP1 KECCAK256 DUP12 PUSH1 0x40 MLOAD PUSH2 0x4BD DUP14 DUP3 DUP2 DUP2 ADD SWAP5 DUP13 DUP13 DUP8 CALLDATACOPY DUP13 DUP3 ADD SWAP1 DUP4 DUP3 ADD MSTORE SUB DUP1 DUP5 MSTORE ADD DUP3 PUSH2 0x16EB JUMP JUMPDEST MLOAD SWAP1 KECCAK256 EQ PUSH2 0x4CD JUMPI PUSH1 0x1 ADD PUSH2 0x425 JUMP JUMPDEST POP SWAP11 POP SWAP6 SWAP9 SWAP7 SWAP8 SWAP11 SWAP1 SWAP5 PUSH2 0x4E4 DUP9 SWAP6 SWAP5 SWAP4 SWAP6 PUSH2 0x1611 JUMP JUMPDEST SWAP1 SLOAD SWAP1 DUP6 SHL SHR AND DUP10 MLOAD DUP3 LT ISZERO PUSH2 0x512 JUMPI DUP2 PUSH2 0x509 SWAP2 DUP11 PUSH1 0x1 SWAP5 PUSH1 0x5 SHL DUP14 ADD ADD MSTORE PUSH2 0x17BC JUMP JUMPDEST SWAP7 JUMPDEST SWAP1 CODESIZE PUSH2 0x407 JUMP JUMPDEST PUSH4 0x4E487B71 PUSH1 0xE0 SHL DUP13 MSTORE PUSH1 0x32 PUSH1 0x4 MSTORE PUSH1 0x24 DUP13 REVERT JUMPDEST POP POP SWAP11 POP SWAP6 SWAP9 PUSH1 0x1 SWAP2 SWAP6 POP SWAP11 SWAP7 SWAP8 SWAP11 SWAP4 SWAP3 SWAP2 SWAP4 PUSH2 0x50B JUMP JUMPDEST PUSH9 0x3635C9ADC5DEA00000 SWAP5 POP SWAP1 PUSH1 0x40 SWAP3 SWAP2 DUP7 PUSH2 0x559 DUP11 PUSH2 0x1611 JUMP JUMPDEST SWAP1 SLOAD SWAP1 DUP8 SHL SHR AND DUP4 MSTORE MSTORE KECCAK256 ADD SLOAD LT ISZERO DUP6 DUP15 DUP5 DUP14 PUSH2 0x3FE JUMP JUMPDEST PUSH2 0x57F DUP2 SWAP9 SWAP7 SWAP8 SWAP6 SWAP9 PUSH2 0x1611 JUMP JUMPDEST SWAP1 SLOAD PUSH1 0x1 PUSH1 0x1 PUSH1 0xA0 SHL SUB SWAP2 DUP10 SHL SHR DUP2 AND DUP10 MSTORE PUSH1 0x2 DUP1 DUP8 MSTORE PUSH1 0x40 DUP11 KECCAK256 PUSH1 0x8 ADD SLOAD PUSH1 0xFF AND ISZERO DUP1 PUSH2 0x69C JUMPI JUMPDEST PUSH2 0x5BC JUMPI JUMPDEST POP POP PUSH1 0x1 ADD SWAP7 SWAP4 SWAP6 SWAP5 SWAP7 PUSH2 0x332 JUMP JUMPDEST DUP10 SWAP4 SWAP5 SWAP10 SWAP9 SWAP2 SWAP9 SWAP8 SWAP7 SWAP3 SWAP8 JUMPDEST DUP10 PUSH2 0x5D2 DUP11 PUSH2 0x1611 JUMP JUMPDEST SWAP1 SLOAD SWAP1 DUP6 SHL SHR AND DUP6 MSTORE DUP2 DUP5 MSTORE PUSH1 0x1 DUP1 PUSH1 0x40 DUP8 KECCAK256 ADD SLOAD DUP3 LT ISZERO PUSH2 0x689 JUMPI DUP2 PUSH2 0x613 SWAP2 DUP13 PUSH2 0x5FD DUP14 PUSH2 0x1611 JUMP JUMPDEST SWAP1 SLOAD SWAP1 DUP9 SHL SHR AND DUP9 MSTORE DUP5 DUP8 MSTORE PUSH1 0x40 DUP9 KECCAK256 ADD PUSH2 0x165E JUMP JUMPDEST POP PUSH1 0x40 MLOAD PUSH2 0x636 DUP2 PUSH2 0x628 DUP9 DUP3 ADD DUP1 SWAP6 PUSH2 0x181C JUMP JUMPDEST SUB PUSH1 0x1F NOT DUP2 ADD DUP4 MSTORE DUP3 PUSH2 0x16EB JUMP JUMPDEST MLOAD SWAP1 KECCAK256 PUSH1 0x40 MLOAD DUP6 DUP2 ADD SWAP1 DUP10 DUP10 DUP4 CALLDATACOPY PUSH2 0x65C DUP8 DUP3 DUP13 DUP2 ADD DUP12 DUP4 DUP3 ADD MSTORE SUB DUP1 DUP5 MSTORE ADD DUP3 PUSH2 0x16EB JUMP JUMPDEST MLOAD SWAP1 KECCAK256 EQ PUSH2 0x66C JUMPI PUSH1 0x1 ADD PUSH2 0x5C8 JUMP JUMPDEST POP POP SWAP7 POP SWAP4 PUSH2 0x680 PUSH1 0x1 SWAP2 SWAP9 SWAP4 SWAP3 SWAP9 PUSH2 0x17BC JUMP JUMPDEST SWAP6 JUMPDEST SWAP1 CODESIZE PUSH2 0x5AD JUMP JUMPDEST POP POP POP SWAP7 POP SWAP4 SWAP5 PUSH1 0x1 SWAP1 SWAP8 SWAP3 SWAP2 SWAP8 PUSH2 0x682 JUMP JUMPDEST POP DUP2 PUSH2 0x6A7 DUP5 PUSH2 0x1611 JUMP JUMPDEST SWAP1 SLOAD SWAP1 DUP12 SHL SHR AND DUP11 MSTORE DUP1 DUP8 MSTORE PUSH9 0x3635C9ADC5DEA00000 DUP10 PUSH1 0x40 DUP13 KECCAK256 ADD SLOAD LT ISZERO PUSH2 0x5A8 JUMP JUMPDEST DUP3 DUP1 REVERT JUMPDEST POP DUP1 REVERT JUMPDEST POP CALLVALUE PUSH2 0x17C JUMPI DUP1 PUSH1 0x3 NOT CALLDATASIZE ADD SLT PUSH2 0x17C JUMPI PUSH1 0x20 PUSH1 0x40 MLOAD PUSH9 0x3635C9ADC5DEA00000 DUP2 MSTORE RETURN JUMPDEST POP CALLVALUE PUSH2 0x17C JUMPI PUSH1 0x40 CALLDATASIZE PUSH1 0x3 NOT ADD SLT PUSH2 0x17C JUMPI PUSH8 0xFFFFFFFFFFFFFFFF PUSH1 0x4 CALLDATALOAD DUP2 DUP2 GT PUSH2 0x6CB JUMPI PUSH2 0x72A SWAP1 CALLDATASIZE SWAP1 PUSH1 0x4 ADD PUSH2 0x1676 JUMP JUMPDEST SWAP1 PUSH1 0x24 CALLDATALOAD DUP4 DUP2 GT PUSH2 0xD47 JUMPI PUSH2 0x743 SWAP1 CALLDATASIZE SWAP1 PUSH1 0x4 ADD PUSH2 0x1676 JUMP JUMPDEST CALLER DUP7 MSTORE PUSH1 0x2 PUSH1 0x20 MSTORE PUSH1 0xFF PUSH1 0x8 PUSH1 0x40 DUP9 KECCAK256 ADD SLOAD AND PUSH2 0xD0B JUMPI DUP4 ISZERO PUSH2 0xCC6 JUMPI CALLER DUP7 MSTORE PUSH1 0x2 PUSH1 0x20 MSTORE PUSH1 0x1 PUSH1 0x40 DUP8 KECCAK256 CALLER PUSH12 0xFFFFFFFFFFFFFFFFFFFFFFFF PUSH1 0xA0 SHL DUP3 SLOAD AND OR DUP2 SSTORE ADD PUSH1 0x1 PUSH1 0x40 SHL DUP6 GT PUSH2 0xAE1 JUMPI DUP1 SLOAD DUP6 DUP3 SSTORE DUP1 DUP7 LT PUSH2 0xC55 JUMPI JUMPDEST POP DUP7 MSTORE PUSH1 0x20 DUP7 KECCAK256 DUP7 SWAP1 DUP5 JUMPDEST DUP7 DUP4 LT PUSH2 0xAF5 JUMPI POP POP POP CALLER DUP7 MSTORE PUSH1 0x2 PUSH1 0x20 MSTORE PUSH1 0x2 PUSH1 0x40 DUP8 KECCAK256 ADD PUSH1 0x1 PUSH1 0x40 SHL DUP3 GT PUSH2 0xAE1 JUMPI DUP1 SLOAD DUP3 DUP3 SSTORE DUP1 DUP4 LT PUSH2 0xA70 JUMPI JUMPDEST POP DUP7 MSTORE PUSH1 0x20 DUP7 KECCAK256 DUP7 SWAP3 DUP1 JUMPDEST DUP4 DUP6 LT PUSH2 0x912 JUMPI POP POP POP POP POP CALLER DUP5 MSTORE PUSH1 0x2 PUSH1 0x20 MSTORE PUSH1 0x40 DUP5 KECCAK256 DUP5 PUSH1 0x3 DUP3 ADD SSTORE PUSH1 0x32 PUSH1 0x4 DUP3 ADD SSTORE PUSH1 0x7 TIMESTAMP SWAP2 ADD SSTORE PUSH1 0x3 SLOAD PUSH1 0x1 PUSH1 0x40 SHL DUP2 LT ISZERO PUSH2 0x8FE JUMPI DUP1 PUSH1 0x1 PUSH2 0x832 SWAP3 SWAP6 SWAP4 SWAP6 ADD PUSH1 0x3 SSTORE PUSH2 0x1611 JUMP JUMPDEST DUP2 SLOAD SWAP1 PUSH1 0x3 SHL SWAP1 CALLER DUP3 SHL SWAP2 PUSH1 0x1 DUP1 PUSH1 0xA0 SHL SUB SWAP1 SHL NOT AND OR SWAP1 SSTORE PUSH1 0x40 MLOAD SWAP2 DUP1 PUSH1 0x20 DUP5 ADD PUSH1 0x20 DUP6 MSTORE MSTORE PUSH1 0x40 DUP4 ADD SWAP1 PUSH1 0x40 DUP2 PUSH1 0x5 SHL DUP6 ADD ADD SWAP5 DUP1 SWAP4 DUP8 SWAP2 JUMPDEST DUP4 DUP4 LT PUSH2 0x89F JUMPI DUP9 CALLER PUSH32 0xC0491772B9AD33B5D74F23266B0E1FC0DB4A19F52A5CEBABB20438195B11A953 DUP10 DUP12 SUB DUP11 LOG2 DUP1 RETURN JUMPDEST SWAP1 SWAP2 SWAP3 SWAP4 SWAP5 SWAP7 PUSH1 0x3F NOT DUP8 DUP3 SUB ADD DUP7 MSTORE DUP8 CALLDATALOAD PUSH1 0x1E NOT DUP4 CALLDATASIZE SUB ADD DUP2 SLT ISZERO PUSH2 0x8FA JUMPI DUP3 ADD SWAP1 PUSH1 0x20 DUP3 CALLDATALOAD SWAP3 ADD SWAP2 DUP5 DUP2 GT PUSH2 0x8F6 JUMPI DUP1 CALLDATASIZE SUB DUP4 SGT PUSH2 0x8F6 JUMPI PUSH2 0x8E8 PUSH1 0x20 SWAP3 DUP4 SWAP3 PUSH1 0x1 SWAP6 PUSH2 0x16CA JUMP JUMPDEST SWAP10 ADD SWAP7 ADD SWAP5 SWAP4 ADD SWAP2 SWAP1 PUSH2 0x86D JUMP JUMPDEST DUP11 DUP1 REVERT JUMPDEST DUP10 DUP1 REVERT JUMPDEST PUSH4 0x4E487B71 PUSH1 0xE0 SHL DUP6 MSTORE PUSH1 0x41 PUSH1 0x4 MSTORE PUSH1 0x24 DUP6 REVERT JUMPDEST DUP1 CALLDATALOAD PUSH1 0x1E NOT DUP4 CALLDATASIZE SUB ADD DUP2 SLT ISZERO PUSH2 0x8FA JUMPI DUP9 DUP2 DUP5 ADD CALLDATALOAD GT PUSH2 0x8FA JUMPI DUP1 DUP4 ADD CALLDATALOAD CALLDATASIZE SUB PUSH1 0x20 DUP3 DUP6 ADD ADD SGT PUSH2 0x8FA JUMPI PUSH2 0x947 DUP5 SLOAD PUSH2 0x17CB JUMP JUMPDEST SWAP1 PUSH1 0x1F SWAP2 DUP3 DUP2 GT PUSH2 0xA32 JUMPI JUMPDEST POP DUP11 DUP1 SWAP3 DUP3 DUP7 ADD CALLDATALOAD GT PUSH1 0x1 EQ PUSH2 0x9B0 JUMPI SWAP3 PUSH2 0x992 PUSH1 0x1 SWAP5 SWAP4 PUSH1 0x20 SWAP4 DUP7 SWAP6 SWAP2 DUP2 DUP10 ADD CALLDATALOAD PUSH2 0x9A1 JUMPI JUMPDEST POP DUP8 ADD CALLDATALOAD SWAP1 DUP2 PUSH1 0x1 SHL SWAP2 PUSH1 0x0 NOT SWAP1 PUSH1 0x3 SHL SHR NOT AND OR SWAP1 JUMP JUMPDEST DUP7 SSTORE JUMPDEST ADD SWAP4 ADD SWAP5 ADD SWAP4 SWAP2 PUSH2 0x7E5 JUMP JUMPDEST DUP9 DUP3 ADD ADD DUP6 ADD CALLDATALOAD SWAP2 POP CODESIZE PUSH2 0x97A JUMP JUMPDEST DUP6 SWAP1 MSTORE PUSH1 0x20 DUP12 KECCAK256 SWAP1 SWAP2 DUP12 JUMPDEST DUP6 DUP5 ADD CALLDATALOAD PUSH1 0x1F NOT AND DUP2 LT PUSH2 0xA16 JUMPI POP PUSH1 0x1 SWAP4 DUP5 SWAP4 PUSH1 0x20 SWAP4 SWAP2 SWAP3 DUP6 SWAP3 SWAP1 DUP9 DUP4 ADD CALLDATALOAD PUSH1 0x1F NOT DUP2 AND LT PUSH2 0x9F5 JUMPI JUMPDEST POP POP DUP7 ADD CALLDATALOAD DUP2 SHL ADD DUP7 SSTORE PUSH2 0x995 JUMP JUMPDEST DUP6 PUSH1 0x0 NOT PUSH1 0xF8 DUP6 DUP13 ADD CALLDATALOAD PUSH1 0x3 SHL AND SHR NOT SWAP2 DUP5 DUP12 ADD ADD ADD CALLDATALOAD AND SWAP1 SSTORE CODESIZE DUP1 PUSH2 0x9E6 JUMP JUMPDEST SWAP1 SWAP2 PUSH1 0x20 PUSH1 0x1 DUP2 SWAP3 DUP3 DUP7 DUP9 DUP12 ADD ADD ADD CALLDATALOAD DUP2 SSTORE ADD SWAP4 ADD SWAP2 ADD PUSH2 0x9BB JUMP JUMPDEST PUSH2 0xA61 SWAP1 DUP7 DUP14 MSTORE PUSH1 0x20 DUP14 KECCAK256 PUSH1 0x5 DUP6 DUP1 DUP7 DUP11 ADD CALLDATALOAD ADD DUP3 SHR DUP4 ADD SWAP4 PUSH1 0x20 DUP8 DUP12 ADD CALLDATALOAD LT PUSH2 0xA67 JUMPI JUMPDEST ADD SWAP1 SHR ADD SWAP1 PUSH2 0x1805 JUMP JUMPDEST CODESIZE PUSH2 0x953 JUMP JUMPDEST SWAP4 POP DUP3 SWAP4 PUSH2 0xA57 JUMP JUMPDEST DUP2 DUP9 MSTORE DUP3 PUSH1 0x20 DUP10 KECCAK256 SWAP2 DUP3 ADD SWAP2 ADD JUMPDEST DUP2 DUP2 LT PUSH2 0xA8B JUMPI POP PUSH2 0x7DA JUMP JUMPDEST DUP1 DUP10 PUSH2 0xA99 PUSH1 0x1 SWAP4 SLOAD PUSH2 0x17CB JUMP JUMPDEST DUP1 PUSH2 0xAA7 JUMPI JUMPDEST POP POP ADD PUSH2 0xA7E JUMP JUMPDEST PUSH1 0x1F DUP1 DUP3 GT DUP6 EQ PUSH2 0xABE JUMPI POP POP DUP2 SSTORE JUMPDEST DUP10 CODESIZE PUSH2 0xA9F JUMP JUMPDEST PUSH2 0xAD8 SWAP1 DUP5 DUP5 MSTORE PUSH1 0x20 DUP5 KECCAK256 SWAP3 ADD PUSH1 0x5 SHR DUP3 ADD DUP6 DUP4 ADD PUSH2 0x1805 JUMP JUMPDEST DUP2 DUP4 SSTORE SSTORE PUSH2 0xAB7 JUMP JUMPDEST PUSH4 0x4E487B71 PUSH1 0xE0 SHL DUP8 MSTORE PUSH1 0x41 PUSH1 0x4 MSTORE PUSH1 0x24 DUP8 REVERT JUMPDEST DUP1 CALLDATALOAD PUSH1 0x1E NOT DUP8 CALLDATASIZE SUB ADD DUP2 SLT ISZERO PUSH2 0x8FA JUMPI DUP9 DUP2 DUP9 ADD CALLDATALOAD GT PUSH2 0x8FA JUMPI DUP1 DUP8 ADD CALLDATALOAD CALLDATASIZE SUB PUSH1 0x20 DUP3 DUP10 ADD ADD SGT PUSH2 0x8FA JUMPI PUSH2 0xB2A DUP4 SLOAD PUSH2 0x17CB JUMP JUMPDEST SWAP1 DUP11 DUP9 PUSH1 0x1F SWAP4 DUP5 DUP2 GT PUSH2 0xC1F JUMPI JUMPDEST POP POP DUP1 SWAP3 DUP3 DUP11 ADD CALLDATALOAD GT PUSH1 0x1 EQ PUSH2 0xB95 JUMPI SWAP3 PUSH2 0xB77 PUSH1 0x1 SWAP5 SWAP4 PUSH1 0x20 SWAP4 DUP7 SWAP6 SWAP2 DUP2 DUP14 ADD CALLDATALOAD PUSH2 0xB86 JUMPI JUMPDEST POP DUP12 ADD CALLDATALOAD SWAP1 DUP2 PUSH1 0x1 SHL SWAP2 PUSH1 0x0 NOT SWAP1 PUSH1 0x3 SHL SHR NOT AND OR SWAP1 JUMP JUMPDEST DUP6 SSTORE JUMPDEST ADD SWAP3 ADD SWAP3 ADD SWAP2 SWAP1 PUSH2 0x7A9 JUMP JUMPDEST DUP13 DUP3 ADD ADD DUP6 ADD CALLDATALOAD SWAP2 POP CODESIZE PUSH2 0xB5F JUMP JUMPDEST DUP5 SWAP1 MSTORE PUSH1 0x20 DUP12 KECCAK256 SWAP1 SWAP2 DUP9 SWAP1 DUP13 JUMPDEST DUP3 DUP6 ADD CALLDATALOAD PUSH1 0x1F NOT AND DUP2 LT PUSH2 0xC00 JUMPI POP PUSH1 0x1 SWAP5 DUP6 SWAP5 PUSH1 0x20 SWAP5 SWAP2 SWAP4 DUP7 SWAP4 SWAP2 SWAP3 SWAP2 DUP2 DUP5 ADD CALLDATALOAD PUSH1 0x1F NOT DUP2 AND LT PUSH2 0xBDE JUMPI JUMPDEST POP SWAP1 POP ADD CALLDATALOAD DUP2 SHL ADD DUP6 SSTORE PUSH2 0xB7A JUMP JUMPDEST DUP7 SWAP1 DUP5 PUSH1 0x0 NOT PUSH1 0xF8 DUP3 DUP7 ADD CALLDATALOAD PUSH1 0x3 SHL AND SHR NOT SWAP4 ADD ADD ADD CALLDATALOAD AND SWAP1 SSTORE CODESIZE DUP12 DUP2 PUSH2 0xBCF JUMP JUMPDEST SWAP2 PUSH1 0x1 DUP3 SWAP5 PUSH1 0x20 DUP1 SWAP5 DUP9 DUP3 SWAP6 ADD ADD ADD CALLDATALOAD DUP2 SSTORE ADD SWAP4 ADD SWAP2 ADD SWAP1 DUP10 SWAP2 PUSH2 0xBA2 JUMP JUMPDEST PUSH1 0x20 DUP4 DUP9 PUSH2 0xC4D SWAP6 MSTORE KECCAK256 SWAP1 DUP6 PUSH1 0x5 SWAP2 PUSH1 0x20 DUP8 DUP4 DUP2 DUP9 ADD CALLDATALOAD ADD DUP6 SHR DUP7 ADD SWAP7 ADD CALLDATALOAD LT PUSH2 0xA67 JUMPI ADD SWAP1 SHR ADD SWAP1 PUSH2 0x1805 JUMP JUMPDEST DUP11 DUP9 CODESIZE PUSH2 0xB38 JUMP JUMPDEST DUP2 DUP9 MSTORE DUP6 PUSH1 0x20 DUP10 KECCAK256 SWAP2 DUP3 ADD SWAP2 ADD JUMPDEST DUP2 DUP2 LT PUSH2 0xC70 JUMPI POP PUSH2 0x79E JUMP JUMPDEST DUP1 DUP10 PUSH2 0xC7E PUSH1 0x1 SWAP4 SLOAD PUSH2 0x17CB JUMP JUMPDEST DUP1 PUSH2 0xC8C JUMPI JUMPDEST POP POP ADD PUSH2 0xC63 JUMP JUMPDEST PUSH1 0x1F DUP1 DUP3 GT DUP6 EQ PUSH2 0xCA3 JUMPI POP POP DUP2 SSTORE JUMPDEST DUP10 CODESIZE PUSH2 0xC84 JUMP JUMPDEST PUSH2 0xCBD SWAP1 DUP5 DUP5 MSTORE PUSH1 0x20 DUP5 KECCAK256 SWAP3 ADD PUSH1 0x5 SHR DUP3 ADD DUP6 DUP4 ADD PUSH2 0x1805 JUMP JUMPDEST DUP2 DUP4 SSTORE SSTORE PUSH2 0xC9C JUMP JUMPDEST PUSH1 0x40 MLOAD PUSH3 0x461BCD PUSH1 0xE5 SHL DUP2 MSTORE PUSH1 0x20 PUSH1 0x4 DUP3 ADD MSTORE PUSH1 0x1C PUSH1 0x24 DUP3 ADD MSTORE PUSH32 0x4E656564206174206C65617374206F6E65206361706162696C69747900000000 PUSH1 0x44 DUP3 ADD MSTORE PUSH1 0x64 SWAP1 REVERT JUMPDEST PUSH1 0x40 MLOAD PUSH3 0x461BCD PUSH1 0xE5 SHL DUP2 MSTORE PUSH1 0x20 PUSH1 0x4 DUP3 ADD MSTORE PUSH1 0x14 PUSH1 0x24 DUP3 ADD MSTORE PUSH20 0x1059D95B9D081A5CC8189B1858DADB1A5CDD1959 PUSH1 0x62 SHL PUSH1 0x44 DUP3 ADD MSTORE PUSH1 0x64 SWAP1 REVERT JUMPDEST DUP5 DUP1 REVERT JUMPDEST POP CALLVALUE PUSH2 0x17C JUMPI PUSH1 0x40 CALLDATASIZE PUSH1 0x3 NOT ADD SLT PUSH2 0x17C JUMPI PUSH2 0xD65 PUSH2 0x15C8 JUMP JUMPDEST PUSH1 0x24 CALLDATALOAD PUSH8 0xFFFFFFFFFFFFFFFF DUP2 GT PUSH2 0x6CB JUMPI PUSH2 0xDA6 PUSH32 0xC32D81504C00CE92EAEED0852B187E372B250D24935CA5A510426ADBD42CC257 SWAP2 CALLDATASIZE SWAP1 PUSH1 0x4 ADD PUSH2 0x15E3 JUMP JUMPDEST SWAP1 SWAP3 PUSH2 0xDB0 PUSH2 0x18B8 JUMP JUMPDEST PUSH1 0x1 DUP1 PUSH1 0xA0 SHL SUB AND SWAP3 DUP4 DUP6 MSTORE PUSH1 0x2 PUSH1 0x20 MSTORE PUSH2 0xE34 PUSH1 0x3 PUSH1 0x40 DUP8 KECCAK256 PUSH1 0x8 DUP2 ADD PUSH1 0x1 PUSH1 0xFF NOT DUP3 SLOAD AND OR SWAP1 SSTORE ADD SWAP2 DUP7 DUP4 SLOAD SWAP4 SSTORE DUP6 PUSH32 0x11699A7C3771302FE75247E5FD6BDC1C8B4E9525C733D939D5B25C11518A7649 PUSH1 0x40 MLOAD PUSH1 0x20 DUP2 MSTORE DUP1 PUSH2 0xE18 PUSH1 0x20 DUP3 ADD DUP10 DUP8 PUSH2 0x16CA JUMP JUMPDEST SUB SWAP1 LOG2 PUSH1 0x40 MLOAD SWAP4 DUP5 SWAP4 DUP5 MSTORE PUSH1 0x40 PUSH1 0x20 DUP6 ADD MSTORE PUSH1 0x40 DUP5 ADD SWAP2 PUSH2 0x16CA JUMP JUMPDEST SUB SWAP1 LOG2 DUP1 RETURN JUMPDEST POP CALLVALUE PUSH2 0x17C JUMPI DUP1 PUSH1 0x3 NOT CALLDATASIZE ADD SLT PUSH2 0x17C JUMPI PUSH1 0x20 PUSH1 0x3 SLOAD PUSH1 0x40 MLOAD SWAP1 DUP2 MSTORE RETURN JUMPDEST POP CALLVALUE PUSH2 0x17C JUMPI DUP1 PUSH1 0x3 NOT CALLDATASIZE ADD SLT PUSH2 0x17C JUMPI SLOAD PUSH1 0x40 MLOAD PUSH1 0x1 PUSH1 0x1 PUSH1 0xA0 SHL SUB SWAP1 SWAP2 AND DUP2 MSTORE PUSH1 0x20 SWAP1 RETURN JUMPDEST POP CALLVALUE PUSH2 0x17C JUMPI DUP1 PUSH1 0x3 NOT CALLDATASIZE ADD SLT PUSH2 0x17C JUMPI PUSH1 0x4 SLOAD PUSH1 0x40 MLOAD PUSH1 0x1 PUSH1 0x1 PUSH1 0xA0 SHL SUB SWAP1 SWAP2 AND DUP2 MSTORE PUSH1 0x20 SWAP1 RETURN JUMPDEST POP CALLVALUE PUSH2 0x17C JUMPI PUSH1 0x20 DUP1 PUSH1 0x3 NOT CALLDATASIZE ADD SLT PUSH2 0x6CF JUMPI PUSH1 0x4 CALLDATALOAD SWAP1 PUSH2 0xEC7 PUSH2 0x18E4 JUMP JUMPDEST PUSH9 0x3635C9ADC5DEA00000 DUP3 LT PUSH2 0xFE4 JUMPI CALLER DUP4 MSTORE PUSH1 0x2 DUP2 MSTORE PUSH2 0xEF0 PUSH1 0x1 PUSH1 0x40 DUP6 KECCAK256 ADD SLOAD ISZERO ISZERO PUSH2 0x1779 JUMP JUMPDEST DUP3 DUP2 PUSH1 0x1 DUP1 PUSH1 0xA0 SHL SUB PUSH1 0x4 SLOAD AND PUSH1 0x64 PUSH1 0x40 MLOAD DUP1 SWAP5 DUP2 SWAP4 PUSH4 0x23B872DD PUSH1 0xE0 SHL DUP4 MSTORE CALLER PUSH1 0x4 DUP5 ADD MSTORE ADDRESS PUSH1 0x24 DUP5 ADD MSTORE DUP9 PUSH1 0x44 DUP5 ADD MSTORE GAS CALL DUP1 ISZERO PUSH2 0xFD9 JUMPI PUSH2 0xF3B SWAP2 DUP6 SWAP2 PUSH2 0xFAC JUMPI JUMPDEST POP PUSH2 0x173B JUMP JUMPDEST CALLER DUP4 MSTORE PUSH1 0x2 DUP2 MSTORE PUSH1 0x3 PUSH1 0x40 DUP5 KECCAK256 ADD DUP1 SLOAD SWAP1 DUP4 DUP3 ADD DUP1 SWAP3 GT PUSH2 0xF98 JUMPI SWAP1 PUSH32 0xF9DB686338528ADD22BBB0C0BA6DDECD5386497DDA282E4AC76477FA248FDB06 SWAP3 SWAP2 SSTORE CALLER DUP5 MSTORE PUSH1 0x5 DUP2 MSTORE TIMESTAMP PUSH1 0x40 DUP6 KECCAK256 SSTORE PUSH1 0x40 MLOAD SWAP3 DUP4 MSTORE CALLER SWAP3 LOG2 PUSH1 0x1 DUP1 SSTORE DUP1 RETURN JUMPDEST PUSH4 0x4E487B71 PUSH1 0xE0 SHL DUP6 MSTORE PUSH1 0x11 PUSH1 0x4 MSTORE PUSH1 0x24 DUP6 REVERT JUMPDEST PUSH2 0xFCC SWAP2 POP DUP4 RETURNDATASIZE DUP6 GT PUSH2 0xFD2 JUMPI JUMPDEST PUSH2 0xFC4 DUP2 DUP4 PUSH2 0x16EB JUMP JUMPDEST DUP2 ADD SWAP1 PUSH2 0x1723 JUMP JUMPDEST CODESIZE PUSH2 0xF35 JUMP JUMPDEST POP RETURNDATASIZE PUSH2 0xFBA JUMP JUMPDEST PUSH1 0x40 MLOAD RETURNDATASIZE DUP7 DUP3 RETURNDATACOPY RETURNDATASIZE SWAP1 REVERT JUMPDEST PUSH1 0x64 SWAP1 PUSH1 0x40 MLOAD SWAP1 PUSH3 0x461BCD PUSH1 0xE5 SHL DUP3 MSTORE PUSH1 0x4 DUP3 ADD MSTORE PUSH1 0x1C PUSH1 0x24 DUP3 ADD MSTORE PUSH32 0x4D696E696D756D207374616B652069732031303030204F5241434C4500000000 PUSH1 0x44 DUP3 ADD MSTORE REVERT JUMPDEST POP CALLVALUE PUSH2 0x17C JUMPI DUP1 PUSH1 0x3 NOT CALLDATASIZE ADD SLT PUSH2 0x17C JUMPI PUSH2 0x1041 PUSH2 0x18B8 JUMP JUMPDEST DUP1 SLOAD PUSH1 0x1 PUSH1 0x1 PUSH1 0xA0 SHL SUB NOT DUP2 AND DUP3 SSTORE DUP2 SWAP1 PUSH1 0x1 PUSH1 0x1 PUSH1 0xA0 SHL SUB AND PUSH32 0x8BE0079C531659141344CD1FD0A4F28419497F9722A3DAAFE3B4186F6B6457E0 DUP3 DUP1 LOG3 DUP1 RETURN JUMPDEST POP CALLVALUE PUSH2 0x17C JUMPI PUSH1 0x20 DUP1 PUSH1 0x3 NOT CALLDATASIZE ADD SLT PUSH2 0x6CF JUMPI PUSH1 0x4 CALLDATALOAD SWAP1 PUSH2 0x10A1 PUSH2 0x18E4 JUMP JUMPDEST CALLER DUP4 MSTORE PUSH1 0x2 DUP2 MSTORE DUP2 PUSH1 0x3 PUSH1 0x40 DUP6 KECCAK256 ADD SLOAD LT PUSH2 0x11B7 JUMPI CALLER DUP4 MSTORE PUSH1 0x2 DUP2 MSTORE PUSH9 0x3635C9ADC5DEA00000 PUSH1 0x3 PUSH1 0x40 DUP6 KECCAK256 ADD SLOAD LT ISZERO PUSH2 0x1156 JUMPI JUMPDEST CALLER DUP4 MSTORE PUSH1 0x2 DUP2 MSTORE PUSH1 0x3 PUSH1 0x40 DUP5 KECCAK256 ADD PUSH2 0x10EF DUP4 DUP3 SLOAD PUSH2 0x16A7 JUMP JUMPDEST SWAP1 SSTORE CALLER DUP4 MSTORE PUSH1 0x6 DUP2 MSTORE DUP2 PUSH1 0x40 DUP5 KECCAK256 SSTORE PUSH3 0x93A80 TIMESTAMP ADD SWAP1 DUP2 TIMESTAMP GT PUSH2 0x1142 JUMPI PUSH1 0x40 MLOAD SWAP3 DUP4 MSTORE DUP3 ADD MSTORE PUSH32 0x34898684241C7FE73E69D259E38C5C5FEFA5322536A94BD25E583596A5CDE9D1 PUSH1 0x40 CALLER SWAP3 LOG2 PUSH1 0x1 DUP1 SSTORE DUP1 RETURN JUMPDEST PUSH4 0x4E487B71 PUSH1 0xE0 SHL DUP5 MSTORE PUSH1 0x11 PUSH1 0x4 MSTORE PUSH1 0x24 DUP5 REVERT JUMPDEST PUSH1 0x5 DUP2 MSTORE PUSH1 0x40 DUP4 KECCAK256 SLOAD PUSH3 0x93A80 DUP2 ADD DUP1 SWAP2 GT PUSH2 0x1142 JUMPI TIMESTAMP LT ISZERO PUSH2 0x10D6 JUMPI PUSH1 0x64 SWAP1 PUSH1 0x40 MLOAD SWAP1 PUSH3 0x461BCD PUSH1 0xE5 SHL DUP3 MSTORE PUSH1 0x4 DUP3 ADD MSTORE PUSH1 0x17 PUSH1 0x24 DUP3 ADD MSTORE PUSH32 0x5374616B65206C6F636B656420666F7220372064617973000000000000000000 PUSH1 0x44 DUP3 ADD MSTORE REVERT JUMPDEST PUSH1 0x64 SWAP1 PUSH1 0x40 MLOAD SWAP1 PUSH3 0x461BCD PUSH1 0xE5 SHL DUP3 MSTORE PUSH1 0x4 DUP3 ADD MSTORE PUSH1 0x12 PUSH1 0x24 DUP3 ADD MSTORE PUSH18 0x496E73756666696369656E74207374616B65 PUSH1 0x70 SHL PUSH1 0x44 DUP3 ADD MSTORE REVERT JUMPDEST POP CALLVALUE PUSH2 0x17C JUMPI PUSH1 0x20 CALLDATASIZE PUSH1 0x3 NOT ADD SLT PUSH2 0x17C JUMPI PUSH1 0x20 SWAP1 PUSH1 0x40 SWAP1 PUSH1 0x1 PUSH1 0x1 PUSH1 0xA0 SHL SUB PUSH2 0x1218 PUSH2 0x15C8 JUMP JUMPDEST AND DUP2 MSTORE PUSH1 0x6 DUP4 MSTORE KECCAK256 SLOAD PUSH1 0x40 MLOAD SWAP1 DUP2 MSTORE RETURN JUMPDEST POP CALLVALUE PUSH2 0x17C JUMPI PUSH1 0x20 DUP1 PUSH1 0x3 NOT CALLDATASIZE ADD SLT PUSH2 0x6CF JUMPI PUSH2 0x1244 PUSH2 0x15C8 JUMP JUMPDEST PUSH2 0x124C PUSH2 0x18B8 JUMP JUMPDEST PUSH1 0x1 PUSH1 0x1 PUSH1 0xA0 SHL SUB AND DUP1 DUP4 MSTORE PUSH1 0x2 DUP3 MSTORE PUSH1 0x40 DUP4 KECCAK256 PUSH1 0x1 ADD SLOAD SWAP1 SWAP2 SWAP1 PUSH2 0x1272 SWAP1 ISZERO ISZERO PUSH2 0x1779 JUMP JUMPDEST DUP2 DUP4 MSTORE PUSH1 0x2 DUP2 MSTORE PUSH1 0x5 PUSH1 0x40 DUP5 KECCAK256 ADD PUSH2 0x128A DUP2 SLOAD PUSH2 0x17BC JUMP JUMPDEST SWAP1 SSTORE DUP2 DUP4 MSTORE PUSH1 0x2 DUP2 MSTORE PUSH1 0x6 PUSH1 0x40 DUP5 KECCAK256 ADD PUSH2 0x12A4 DUP2 SLOAD PUSH2 0x17BC JUMP JUMPDEST SWAP1 SSTORE DUP2 DUP4 MSTORE PUSH1 0x2 DUP2 MSTORE PUSH1 0x4 PUSH1 0x40 DUP5 KECCAK256 ADD SLOAD PUSH1 0x64 DUP2 LT PUSH2 0x12CB JUMPI JUMPDEST DUP4 TIMESTAMP PUSH1 0x7 PUSH1 0x40 DUP4 KECCAK256 ADD SSTORE DUP1 RETURN JUMPDEST PUSH1 0x1 DUP2 ADD DUP1 SWAP2 GT PUSH2 0x1142 JUMPI PUSH1 0x2 SWAP2 SWAP1 PUSH1 0x64 DUP2 SLT ISZERO PUSH2 0x12F8 JUMPI SWAP3 JUMPDEST DUP5 MSTORE MSTORE PUSH1 0x4 PUSH1 0x40 DUP4 KECCAK256 ADD SSTORE CODESIZE DUP1 DUP1 PUSH2 0x12BE JUMP JUMPDEST POP PUSH1 0x64 SWAP3 PUSH2 0x12E5 JUMP JUMPDEST POP CALLVALUE PUSH2 0x17C JUMPI DUP1 PUSH1 0x3 NOT CALLDATASIZE ADD SLT PUSH2 0x17C JUMPI PUSH2 0x131A PUSH2 0x18E4 JUMP JUMPDEST CALLER DUP2 MSTORE PUSH1 0x20 PUSH1 0x6 DUP2 MSTORE PUSH1 0x40 DUP3 KECCAK256 SLOAD DUP1 ISZERO PUSH2 0x13B3 JUMPI DUP2 DUP4 SWAP2 CALLER DUP4 MSTORE PUSH1 0x6 DUP3 MSTORE DUP3 PUSH1 0x40 DUP2 KECCAK256 SSTORE PUSH1 0x44 PUSH1 0x1 DUP1 PUSH1 0xA0 SHL SUB PUSH1 0x4 SLOAD AND SWAP2 PUSH1 0x40 MLOAD SWAP5 DUP6 SWAP4 DUP5 SWAP3 PUSH4 0xA9059CBB PUSH1 0xE0 SHL DUP5 MSTORE CALLER PUSH1 0x4 DUP6 ADD MSTORE PUSH1 0x24 DUP5 ADD MSTORE GAS CALL SWAP1 DUP2 ISZERO PUSH2 0x13A8 JUMPI PUSH2 0x1384 SWAP3 DUP5 SWAP3 PUSH2 0x138B JUMPI JUMPDEST POP POP PUSH2 0x173B JUMP JUMPDEST PUSH1 0x1 DUP1 SSTORE DUP1 RETURN JUMPDEST PUSH2 0x13A1 SWAP3 POP DUP1 RETURNDATASIZE LT PUSH2 0xFD2 JUMPI PUSH2 0xFC4 DUP2 DUP4 PUSH2 0x16EB JUMP JUMPDEST CODESIZE DUP1 PUSH2 0x137D JUMP JUMPDEST PUSH1 0x40 MLOAD RETURNDATASIZE DUP6 DUP3 RETURNDATACOPY RETURNDATASIZE SWAP1 REVERT JUMPDEST PUSH1 0x40 MLOAD PUSH3 0x461BCD PUSH1 0xE5 SHL DUP2 MSTORE PUSH1 0x4 DUP2 ADD DUP4 SWAP1 MSTORE PUSH1 0x15 PUSH1 0x24 DUP3 ADD MSTORE PUSH21 0x139BC81C195B991A5B99C81DDA5D1A191C985DD85B PUSH1 0x5A SHL PUSH1 0x44 DUP3 ADD MSTORE PUSH1 0x64 SWAP1 REVERT JUMPDEST POP CALLVALUE PUSH2 0x17C JUMPI PUSH1 0x20 CALLDATASIZE PUSH1 0x3 NOT ADD SLT PUSH2 0x17C JUMPI PUSH1 0x4 CALLDATALOAD SWAP1 PUSH1 0x3 SLOAD DUP3 LT ISZERO PUSH2 0x17C JUMPI PUSH1 0x20 PUSH2 0x141B DUP4 PUSH2 0x1611 JUMP JUMPDEST SWAP1 SLOAD PUSH1 0x40 MLOAD PUSH1 0x3 SWAP3 SWAP1 SWAP3 SHL SHR PUSH1 0x1 PUSH1 0x1 PUSH1 0xA0 SHL SUB AND DUP2 MSTORE RETURN JUMPDEST POP CALLVALUE PUSH2 0x17C JUMPI DUP1 PUSH1 0x3 NOT CALLDATASIZE ADD SLT PUSH2 0x17C JUMPI PUSH1 0x20 PUSH1 0x40 MLOAD PUSH3 0x93A80 DUP2 MSTORE RETURN JUMPDEST POP CALLVALUE PUSH2 0x17C JUMPI PUSH1 0x60 CALLDATASIZE PUSH1 0x3 NOT ADD SLT PUSH2 0x17C JUMPI PUSH2 0x146C PUSH2 0x15C8 JUMP JUMPDEST PUSH1 0x24 CALLDATALOAD PUSH1 0x44 CALLDATALOAD PUSH8 0xFFFFFFFFFFFFFFFF DUP2 GT PUSH2 0x15C4 JUMPI PUSH2 0x148F SWAP1 CALLDATASIZE SWAP1 PUSH1 0x4 ADD PUSH2 0x15E3 JUMP JUMPDEST SWAP2 SWAP1 SWAP3 PUSH2 0x149A PUSH2 0x18B8 JUMP JUMPDEST PUSH1 0x1 PUSH1 0x1 PUSH1 0xA0 SHL SUB AND DUP1 DUP6 MSTORE PUSH1 0x2 PUSH1 0x20 MSTORE PUSH1 0x40 DUP6 KECCAK256 PUSH1 0x3 ADD SLOAD SWAP1 SWAP4 SWAP1 DUP3 GT PUSH2 0x157F JUMPI DUP4 DUP6 MSTORE PUSH1 0x2 PUSH1 0x20 MSTORE PUSH1 0x3 PUSH1 0x40 DUP7 KECCAK256 ADD PUSH2 0x14D6 DUP4 DUP3 SLOAD PUSH2 0x16A7 JUMP JUMPDEST SWAP1 SSTORE DUP4 DUP6 MSTORE PUSH1 0x2 PUSH1 0x20 MSTORE PUSH1 0x4 PUSH1 0x40 DUP7 KECCAK256 ADD DUP1 SLOAD SWAP1 PUSH1 0xA DUP3 GT PUSH2 0x1535 JUMPI JUMPDEST POP POP SWAP1 PUSH2 0xE34 PUSH32 0xC32D81504C00CE92EAEED0852B187E372B250D24935CA5A510426ADBD42CC257 SWAP4 SWAP3 PUSH1 0x40 MLOAD SWAP4 DUP5 SWAP4 DUP5 MSTORE PUSH1 0x40 PUSH1 0x20 DUP6 ADD MSTORE PUSH1 0x40 DUP5 ADD SWAP2 PUSH2 0x16CA JUMP JUMPDEST PUSH1 0x9 NOT DUP3 ADD SWAP2 DUP3 GT PUSH2 0x156B JUMPI SSTORE PUSH2 0xE34 PUSH32 0xC32D81504C00CE92EAEED0852B187E372B250D24935CA5A510426ADBD42CC257 PUSH2 0x14F3 JUMP JUMPDEST PUSH4 0x4E487B71 PUSH1 0xE0 SHL DUP8 MSTORE PUSH1 0x11 PUSH1 0x4 MSTORE PUSH1 0x24 DUP8 REVERT JUMPDEST PUSH1 0x40 MLOAD PUSH3 0x461BCD PUSH1 0xE5 SHL DUP2 MSTORE PUSH1 0x20 PUSH1 0x4 DUP3 ADD MSTORE PUSH1 0x1B PUSH1 0x24 DUP3 ADD MSTORE PUSH32 0x496E73756666696369656E74207374616B6520746F20736C6173680000000000 PUSH1 0x44 DUP3 ADD MSTORE PUSH1 0x64 SWAP1 REVERT JUMPDEST DUP4 DUP1 REVERT JUMPDEST PUSH1 0x4 CALLDATALOAD SWAP1 PUSH1 0x1 PUSH1 0x1 PUSH1 0xA0 SHL SUB DUP3 AND DUP3 SUB PUSH2 0x15DE JUMPI JUMP JUMPDEST PUSH1 0x0 DUP1 REVERT JUMPDEST SWAP2 DUP2 PUSH1 0x1F DUP5 ADD SLT ISZERO PUSH2 0x15DE JUMPI DUP3 CALLDATALOAD SWAP2 PUSH8 0xFFFFFFFFFFFFFFFF DUP4 GT PUSH2 0x15DE JUMPI PUSH1 0x20 DUP4 DUP2 DUP7 ADD SWAP6 ADD ADD GT PUSH2 0x15DE JUMPI JUMP JUMPDEST PUSH1 0x3 SLOAD DUP2 LT ISZERO PUSH2 0x1648 JUMPI PUSH1 0x3 PUSH1 0x0 MSTORE PUSH32 0xC2575A0E9E593C00F959F8C92F12DB2869C3395A3B0502D05E2516446F71F85B ADD SWAP1 PUSH1 0x0 SWAP1 JUMP JUMPDEST PUSH4 0x4E487B71 PUSH1 0xE0 SHL PUSH1 0x0 MSTORE PUSH1 0x32 PUSH1 0x4 MSTORE PUSH1 0x24 PUSH1 0x0 REVERT JUMPDEST DUP1 SLOAD DUP3 LT ISZERO PUSH2 0x1648 JUMPI PUSH1 0x0 MSTORE PUSH1 0x20 PUSH1 0x0 KECCAK256 ADD SWAP1 PUSH1 0x0 SWAP1 JUMP JUMPDEST SWAP2 DUP2 PUSH1 0x1F DUP5 ADD SLT ISZERO PUSH2 0x15DE JUMPI DUP3 CALLDATALOAD SWAP2 PUSH8 0xFFFFFFFFFFFFFFFF DUP4 GT PUSH2 0x15DE JUMPI PUSH1 0x20 DUP1 DUP6 ADD SWAP5 DUP5 PUSH1 0x5 SHL ADD ADD GT PUSH2 0x15DE JUMPI JUMP JUMPDEST SWAP2 SWAP1 DUP3 SUB SWAP2 DUP3 GT PUSH2 0x16B4 JUMPI JUMP JUMPDEST PUSH4 0x4E487B71 PUSH1 0xE0 SHL PUSH1 0x0 MSTORE PUSH1 0x11 PUSH1 0x4 MSTORE PUSH1 0x24 PUSH1 0x0 REVERT JUMPDEST SWAP1 DUP1 PUSH1 0x20 SWAP4 SWAP3 DUP2 DUP5 MSTORE DUP5 DUP5 ADD CALLDATACOPY PUSH1 0x0 DUP3 DUP3 ADD DUP5 ADD MSTORE PUSH1 0x1F ADD PUSH1 0x1F NOT AND ADD ADD SWAP1 JUMP JUMPDEST SWAP1 PUSH1 0x1F DUP1 NOT SWAP2 ADD AND DUP2 ADD SWAP1 DUP2 LT PUSH8 0xFFFFFFFFFFFFFFFF DUP3 GT OR PUSH2 0x170D JUMPI PUSH1 0x40 MSTORE JUMP JUMPDEST PUSH4 0x4E487B71 PUSH1 0xE0 SHL PUSH1 0x0 MSTORE PUSH1 0x41 PUSH1 0x4 MSTORE PUSH1 0x24 PUSH1 0x0 REVERT JUMPDEST SWAP1 DUP2 PUSH1 0x20 SWAP2 SUB SLT PUSH2 0x15DE JUMPI MLOAD DUP1 ISZERO ISZERO DUP2 SUB PUSH2 0x15DE JUMPI SWAP1 JUMP JUMPDEST ISZERO PUSH2 0x1742 JUMPI JUMP JUMPDEST PUSH1 0x40 MLOAD PUSH3 0x461BCD PUSH1 0xE5 SHL DUP2 MSTORE PUSH1 0x20 PUSH1 0x4 DUP3 ADD MSTORE PUSH1 0xF PUSH1 0x24 DUP3 ADD MSTORE PUSH15 0x151C985B9CD9995C8819985A5B1959 PUSH1 0x8A SHL PUSH1 0x44 DUP3 ADD MSTORE PUSH1 0x64 SWAP1 REVERT JUMPDEST ISZERO PUSH2 0x1780 JUMPI JUMP JUMPDEST PUSH1 0x40 MLOAD PUSH3 0x461BCD PUSH1 0xE5 SHL DUP2 MSTORE PUSH1 0x20 PUSH1 0x4 DUP3 ADD MSTORE PUSH1 0x14 PUSH1 0x24 DUP3 ADD MSTORE PUSH20 0x1059D95B9D081B9BDD081C9959DA5CDD195C9959 PUSH1 0x62 SHL PUSH1 0x44 DUP3 ADD MSTORE PUSH1 0x64 SWAP1 REVERT JUMPDEST PUSH1 0x0 NOT DUP2 EQ PUSH2 0x16B4 JUMPI PUSH1 0x1 ADD SWAP1 JUMP JUMPDEST SWAP1 PUSH1 0x1 DUP3 DUP2 SHR SWAP3 AND DUP1 ISZERO PUSH2 0x17FB JUMPI JUMPDEST PUSH1 0x20 DUP4 LT EQ PUSH2 0x17E5 JUMPI JUMP JUMPDEST PUSH4 0x4E487B71 PUSH1 0xE0 SHL PUSH1 0x0 MSTORE PUSH1 0x22 PUSH1 0x4 MSTORE PUSH1 0x24 PUSH1 0x0 REVERT JUMPDEST SWAP2 PUSH1 0x7F AND SWAP2 PUSH2 0x17DA JUMP JUMPDEST DUP2 DUP2 LT PUSH2 0x1810 JUMPI POP POP JUMP JUMPDEST PUSH1 0x0 DUP2 SSTORE PUSH1 0x1 ADD PUSH2 0x1805 JUMP JUMPDEST PUSH1 0x0 SWAP3 SWAP2 DUP2 SLOAD PUSH2 0x182B DUP2 PUSH2 0x17CB JUMP JUMPDEST SWAP3 PUSH1 0x1 SWAP2 DUP1 DUP4 AND SWAP1 DUP2 ISZERO PUSH2 0x1885 JUMPI POP PUSH1 0x1 EQ PUSH2 0x1848 JUMPI JUMPDEST POP POP POP POP JUMP JUMPDEST SWAP1 SWAP2 SWAP3 SWAP4 SWAP5 POP PUSH1 0x0 MSTORE PUSH1 0x20 SWAP1 PUSH1 0x20 PUSH1 0x0 KECCAK256 SWAP1 PUSH1 0x0 SWAP2 JUMPDEST DUP6 DUP4 LT PUSH2 0x1874 JUMPI POP POP POP POP ADD SWAP1 CODESIZE DUP1 DUP1 DUP1 PUSH2 0x1842 JUMP JUMPDEST DUP1 SLOAD DUP6 DUP5 ADD MSTORE SWAP2 DUP4 ADD SWAP2 DUP2 ADD PUSH2 0x185E JUMP JUMPDEST PUSH1 0xFF NOT AND DUP5 MSTORE POP POP POP DUP2 ISZERO ISZERO SWAP1 SWAP2 MUL ADD SWAP2 POP CODESIZE DUP1 DUP1 DUP1 PUSH2 0x1842 JUMP JUMPDEST PUSH8 0xFFFFFFFFFFFFFFFF DUP2 GT PUSH2 0x170D JUMPI PUSH1 0x5 SHL PUSH1 0x20 ADD SWAP1 JUMP JUMPDEST PUSH1 0x0 SLOAD PUSH1 0x1 PUSH1 0x1 PUSH1 0xA0 SHL SUB AND CALLER SUB PUSH2 0x18CC JUMPI JUMP JUMPDEST PUSH1 0x40 MLOAD PUSH4 0x118CDAA7 PUSH1 0xE0 SHL DUP2 MSTORE CALLER PUSH1 0x4 DUP3 ADD MSTORE PUSH1 0x24 SWAP1 REVERT JUMPDEST PUSH1 0x2 PUSH1 0x1 SLOAD EQ PUSH2 0x18F5 JUMPI PUSH1 0x2 PUSH1 0x1 SSTORE JUMP JUMPDEST PUSH1 0x40 MLOAD PUSH4 0x3EE5AEB5 PUSH1 0xE0 SHL DUP2 MSTORE PUSH1 0x4 SWAP1 REVERT INVALID LOG2 PUSH5 0x6970667358 0x22 SLT KECCAK256 BLOBBASEFEE 0xDE 0x25 SSTORE NUMBER 0x2F PUSH11 0x3A48D65A7A1993A56639CE 0x24 DUP13 0xAE SWAP9 LOG3 0x26 SWAP14 COINBASE CALLER 0xDE 0xCF PUSH18 0x514B64736F6C634300081800330000000000 "},"methodIdentifiers":{"LOCK_PERIOD()":"1820cabb","MIN_STAKE()":"cb1c2b5c","agentList(uint256)":"2f80c54f","agents(address)":"fd66091e","blacklistAgent(address,string)":"b00ddb14","getAgentCount()":"91cab63e","getAgentsByCapability(string)":"cc62097a","oracleToken()":"83472fcf","owner()":"8da5cb5b","pendingUnstake(address)":"56d6ea4f","recordSuccess(address)":"42341287","registerAgent(string[],string[])":"bfe3a33b","renounceOwnership()":"715018a6","slashStake(address,uint256,string)":"0cedba7b","stakeTokens(uint256)":"7547c7a3","stakedAt(address)":"ef36bbde","transferOwnership(address)":"f2fde38b","unstakeTokens(uint256)":"608e4dd0","updateReputation(address,uint256)":"f5c91a08","withdraw()":"3ccfd60b"}},"storageLayout":{"storage":[{"astId":8,"contract":"contracts/AgentRegistry.sol:AgentRegistry","label":"_owner","offset":0,"slot":"0","type":"t_address"},{"astId":944,"contract":"contracts/AgentRegistry.sol:AgentRegistry","label":"_status","offset":0,"slot":"1","type":"t_uint256"},{"astId":1038,"contract":"contracts/AgentRegistry.sol:AgentRegistry","label":"agents","offset":0,"slot":"2","type":"t_mapping(t_address,t_struct(Agent)1033_storage)"},{"astId":1041,"contract":"contracts/AgentRegistry.sol:AgentRegistry","label":"agentList","offset":0,"slot":"3","type":"t_array(t_address)dyn_storage"},{"astId":1044,"contract":"contracts/AgentRegistry.sol:AgentRegistry","label":"oracleToken","offset":0,"slot":"4","type":"t_contract(IERC20)877"},{"astId":1054,"contract":"contracts/AgentRegistry.sol:AgentRegistry","label":"stakedAt","offset":0,"slot":"5","type":"t_mapping(t_address,t_uint256)"},{"astId":1058,"contract":"contracts/AgentRegistry.sol:AgentRegistry","label":"pendingUnstake","offset":0,"slot":"6","type":"t_mapping(t_address,t_uint256)"}],"types":{"t_address":{"encoding":"inplace","label":"address","numberOfBytes":"20"},"t_address_payable":{"encoding":"inplace","label":"address payable","numberOfBytes":"20"},"t_array(t_address)dyn_storage":{"base":"t_address","encoding":"dynamic_array","label":"address[]","numberOfBytes":"32"},"t_array(t_string_storage)dyn_storage":{"base":"t_string_storage","encoding":"dynamic_array","label":"string[]","numberOfBytes":"32"},"t_bool":{"encoding":"inplace","label":"bool","numberOfBytes":"1"},"t_contract(IERC20)877":{"encoding":"inplace","label":"contract IERC20","numberOfBytes":"20"},"t_mapping(t_address,t_struct(Agent)1033_storage)":{"encoding":"mapping","key":"t_address","label":"mapping(address => struct AgentRegistry.Agent)","numberOfBytes":"32","value":"t_struct(Agent)1033_storage"},"t_mapping(t_address,t_uint256)":{"encoding":"mapping","key":"t_address","label":"mapping(address => uint256)","numberOfBytes":"32","value":"t_uint256"},"t_string_storage":{"encoding":"bytes","label":"string","numberOfBytes":"32"},"t_struct(Agent)1033_storage":{"encoding":"inplace","label":"struct AgentRegistry.Agent","members":[{"astId":1014,"contract":"contracts/AgentRegistry.sol:AgentRegistry","label":"wallet","offset":0,"slot":"0","type":"t_address_payable"},{"astId":1017,"contract":"contracts/AgentRegistry.sol:AgentRegistry","label":"capabilities","offset":0,"slot":"1","type":"t_array(t_string_storage)dyn_storage"},{"astId":1020,"contract":"contracts/AgentRegistry.sol:AgentRegistry","label":"dataSources","offset":0,"slot":"2","type":"t_array(t_string_storage)dyn_storage"},{"astId":1022,"contract":"contracts/AgentRegistry.sol:AgentRegistry","label":"stake","offset":0,"slot":"3","type":"t_uint256"},{"astId":1024,"contract":"contracts/AgentRegistry.sol:AgentRegistry","label":"reputation","offset":0,"slot":"4","type":"t_uint256"},{"astId":1026,"contract":"contracts/AgentRegistry.sol:AgentRegistry","label":"totalRequests","offset":0,"slot":"5","type":"t_uint256"},{"astId":1028,"contract":"contracts/AgentRegistry.sol:AgentRegistry","label":"correctResponses","offset":0,"slot":"6","type":"t_uint256"},{"astId":1030,"contract":"contracts/AgentRegistry.sol:AgentRegistry","label":"lastActive","offset":0,"slot":"7","type":"t_uint256"},{"astId":1032,"contract":"contracts/AgentRegistry.sol:AgentRegistry","label":"blacklisted","offset":0,"slot":"8","type":"t_bool"}],"numberOfBytes":"288"},"t_uint256":{"encoding":"inplace","label":"uint256","numberOfBytes":"32"}}}}}}