{
  "_format": "hh-sol-artifact-1",
  "contractName": "AgentRegistry",
  "sourceName": "contracts/AgentRegistry.sol",
  "abi": [
    {
      "inputs": [
        {
          "internalType": "address",
          "name": "_oracleToken",
          "type": "address"
        }
      ],
      "stateMutability": "nonpayable",
      "type": "constructor"
    },
    {
      "inputs": [
        {
          "internalType": "address",
          "name": "owner",
          "type": "address"
        }
      ],
      "name": "OwnableInvalidOwner",
      "type": "error"
    },
    {
      "inputs": [
        {
          "internalType": "address",
          "name": "account",
          "type": "address"
        }
      ],
      "name": "OwnableUnauthorizedAccount",
      "type": "error"
    },
    {
      "inputs": [],
      "name": "ReentrancyGuardReentrantCall",
      "type": "error"
    },
    {
      "anonymous": false,
      "inputs": [
        {
          "indexed": true,
          "internalType": "address",
          "name": "agent",
          "type": "address"
        },
        {
          "indexed": false,
          "internalType": "string",
          "name": "reason",
          "type": "string"
        }
      ],
      "name": "AgentBlacklisted",
      "type": "event"
    },
    {
      "anonymous": false,
      "inputs": [
        {
          "indexed": true,
          "internalType": "address",
          "name": "agent",
          "type": "address"
        },
        {
          "indexed": false,
          "internalType": "string[]",
          "name": "capabilities",
          "type": "string[]"
        }
      ],
      "name": "AgentRegistered",
      "type": "event"
    },
    {
      "anonymous": false,
      "inputs": [
        {
          "indexed": true,
          "internalType": "address",
          "name": "agent",
          "type": "address"
        },
        {
          "indexed": false,
          "internalType": "uint256",
          "name": "amount",
          "type": "uint256"
        }
      ],
      "name": "AgentStaked",
      "type": "event"
    },
    {
      "anonymous": false,
      "inputs": [
        {
          "indexed": true,
          "internalType": "address",
          "name": "agent",
          "type": "address"
        },
        {
          "indexed": false,
          "internalType": "uint256",
          "name": "amount",
          "type": "uint256"
        },
        {
          "indexed": false,
          "internalType": "uint256",
          "name": "unlockTime",
          "type": "uint256"
        }
      ],
      "name": "AgentUnstaked",
      "type": "event"
    },
    {
      "anonymous": false,
      "inputs": [
        {
          "indexed": true,
          "internalType": "address",
          "name": "previousOwner",
          "type": "address"
        },
        {
          "indexed": true,
          "internalType": "address",
          "name": "newOwner",
          "type": "address"
        }
      ],
      "name": "OwnershipTransferred",
      "type": "event"
    },
    {
      "anonymous": false,
      "inputs": [
        {
          "indexed": true,
          "internalType": "address",
          "name": "agent",
          "type": "address"
        },
        {
          "indexed": false,
          "internalType": "uint256",
          "name": "newReputation",
          "type": "uint256"
        }
      ],
      "name": "ReputationUpdated",
      "type": "event"
    },
    {
      "anonymous": false,
      "inputs": [
        {
          "indexed": true,
          "internalType": "address",
          "name": "agent",
          "type": "address"
        },
        {
          "indexed": false,
          "internalType": "uint256",
          "name": "amount",
          "type": "uint256"
        },
        {
          "indexed": false,
          "internalType": "string",
          "name": "reason",
          "type": "string"
        }
      ],
      "name": "StakeSlashed",
      "type": "event"
    },
    {
      "inputs": [],
      "name": "LOCK_PERIOD",
      "outputs": [
        {
          "internalType": "uint256",
          "name": "",
          "type": "uint256"
        }
      ],
      "stateMutability": "view",
      "type": "function"
    },
    {
      "inputs": [],
      "name": "MIN_STAKE",
      "outputs": [
        {
          "internalType": "uint256",
          "name": "",
          "type": "uint256"
        }
      ],
      "stateMutability": "view",
      "type": "function"
    },
    {
      "inputs": [
        {
          "internalType": "uint256",
          "name": "",
          "type": "uint256"
        }
      ],
      "name": "agentList",
      "outputs": [
        {
          "internalType": "address",
          "name": "",
          "type": "address"
        }
      ],
      "stateMutability": "view",
      "type": "function"
    },
    {
      "inputs": [
        {
          "internalType": "address",
          "name": "",
          "type": "address"
        }
      ],
      "name": "agents",
      "outputs": [
        {
          "internalType": "address payable",
          "name": "wallet",
          "type": "address"
        },
        {
          "internalType": "uint256",
          "name": "stake",
          "type": "uint256"
        },
        {
          "internalType": "uint256",
          "name": "reputation",
          "type": "uint256"
        },
        {
          "internalType": "uint256",
          "name": "totalRequests",
          "type": "uint256"
        },
        {
          "internalType": "uint256",
          "name": "correctResponses",
          "type": "uint256"
        },
        {
          "internalType": "uint256",
          "name": "lastActive",
          "type": "uint256"
        },
        {
          "internalType": "bool",
          "name": "blacklisted",
          "type": "bool"
        }
      ],
      "stateMutability": "view",
      "type": "function"
    },
    {
      "inputs": [
        {
          "internalType": "address",
          "name": "agent",
          "type": "address"
        },
        {
          "internalType": "string",
          "name": "reason",
          "type": "string"
        }
      ],
      "name": "blacklistAgent",
      "outputs": [],
      "stateMutability": "nonpayable",
      "type": "function"
    },
    {
      "inputs": [],
      "name": "getAgentCount",
      "outputs": [
        {
          "internalType": "uint256",
          "name": "",
          "type": "uint256"
        }
      ],
      "stateMutability": "view",
      "type": "function"
    },
    {
      "inputs": [
        {
          "internalType": "string",
          "name": "capability",
          "type": "string"
        }
      ],
      "name": "getAgentsByCapability",
      "outputs": [
        {
          "internalType": "address[]",
          "name": "",
          "type": "address[]"
        }
      ],
      "stateMutability": "view",
      "type": "function"
    },
    {
      "inputs": [],
      "name": "oracleToken",
      "outputs": [
        {
          "internalType": "contract IERC20",
          "name": "",
          "type": "address"
        }
      ],
      "stateMutability": "view",
      "type": "function"
    },
    {
      "inputs": [],
      "name": "owner",
      "outputs": [
        {
          "internalType": "address",
          "name": "",
          "type": "address"
        }
      ],
      "stateMutability": "view",
      "type": "function"
    },
    {
      "inputs": [
        {
          "internalType": "address",
          "name": "",
          "type": "address"
        }
      ],
      "name": "pendingUnstake",
      "outputs": [
        {
          "internalType": "uint256",
          "name": "",
          "type": "uint256"
        }
      ],
      "stateMutability": "view",
      "type": "function"
    },
    {
      "inputs": [
        {
          "internalType": "address",
          "name": "agent",
          "type": "address"
        }
      ],
      "name": "recordSuccess",
      "outputs": [],
      "stateMutability": "nonpayable",
      "type": "function"
    },
    {
      "inputs": [
        {
          "internalType": "string[]",
          "name": "capabilities",
          "type": "string[]"
        },
        {
          "internalType": "string[]",
          "name": "dataSources",
          "type": "string[]"
        }
      ],
      "name": "registerAgent",
      "outputs": [],
      "stateMutability": "nonpayable",
      "type": "function"
    },
    {
      "inputs": [],
      "name": "renounceOwnership",
      "outputs": [],
      "stateMutability": "nonpayable",
      "type": "function"
    },
    {
      "inputs": [
        {
          "internalType": "address",
          "name": "agent",
          "type": "address"
        },
        {
          "internalType": "uint256",
          "name": "amount",
          "type": "uint256"
        },
        {
          "internalType": "string",
          "name": "reason",
          "type": "string"
        }
      ],
      "name": "slashStake",
      "outputs": [],
      "stateMutability": "nonpayable",
      "type": "function"
    },
    {
      "inputs": [
        {
          "internalType": "uint256",
          "name": "amount",
          "type": "uint256"
        }
      ],
      "name": "stakeTokens",
      "outputs": [],
      "stateMutability": "nonpayable",
      "type": "function"
    },
    {
      "inputs": [
        {
          "internalType": "address",
          "name": "",
          "type": "address"
        }
      ],
      "name": "stakedAt",
      "outputs": [
        {
          "internalType": "uint256",
          "name": "",
          "type": "uint256"
        }
      ],
      "stateMutability": "view",
      "type": "function"
    },
    {
      "inputs": [
        {
          "internalType": "address",
          "name": "newOwner",
          "type": "address"
        }
      ],
      "name": "transferOwnership",
      "outputs": [],
      "stateMutability": "nonpayable",
      "type": "function"
    },
    {
      "inputs": [
        {
          "internalType": "uint256",
          "name": "amount",
          "type": "uint256"
        }
      ],
      "name": "unstakeTokens",
      "outputs": [],
      "stateMutability": "nonpayable",
      "type": "function"
    },
    {
      "inputs": [
        {
          "internalType": "address",
          "name": "agent",
          "type": "address"
        },
        {
          "internalType": "uint256",
          "name": "newReputation",
          "type": "uint256"
        }
      ],
      "name": "updateReputation",
      "outputs": [],
      "stateMutability": "nonpayable",
      "type": "function"
    },
    {
      "inputs": [],
      "name": "withdraw",
      "outputs": [],
      "stateMutability": "nonpayable",
      "type": "function"
    }
  ],
  "bytecode": "0x6080346100ca57601f611a2338819003918201601f19168301916001600160401b038311848410176100cf578084926020946040528339810103126100ca57516001600160a01b0390818116908190036100ca5733156100b15760005460018060a01b0319903382821617600055604051933391167f8be0079c531659141344cd1fd0a4f28419497f9722a3daafe3b4186f6b6457e0600080a360018055600454161760045561193d90816100e68239f35b604051631e4fbdf760e01b815260006004820152602490fd5b600080fd5b634e487b7160e01b600052604160045260246000fdfe6080604052600436101561001257600080fd5b6000803560e01c80630cedba7b146114525780631820cabb146114345780632f80c54f146113f05780633ccfd60b14611301578063423412871461122957806356d6ea4f146111f0578063608e4dd014611082578063715018a6146110285780637547c7a314610ea857806383472fcf14610e7f5780638da5cb5b14610e5857806391cab63e14610e3a578063b00ddb1414610d4b578063bfe3a33b146106f7578063cb1c2b5c146106d3578063cc62097a146102f4578063ef36bbde146102bb578063f2fde38b14610235578063f5c91a081461017f5763fd66091e146100f957600080fd5b3461017c57602036600319011261017c5760e0906001600160a01b0390604090826101226115c8565b16815260026020522090815416906003810154906004810154600582015460068301549160ff600860078601549501541694604051968752602087015260408601526060850152608084015260a0830152151560c0820152f35b80fd5b503461017c57604036600319011261017c576101996115c8565b602435906101a56118b8565b606482116101fb5760207ffc577563f1b9a0461e24abef1e1fcc0d33d3d881f20b5df6dda59de4aae2c8219160018060a01b0316928385526002825260408520816004820155600742910155604051908152a280f35b60405162461bcd60e51b8152602060048201526012602482015271052657075746174696f6e206d6178203130360741b6044820152606490fd5b503461017c57602036600319011261017c5761024f6115c8565b6102576118b8565b6001600160a01b039081169081156102a25782546001600160a01b0319811683178455167f8be0079c531659141344cd1fd0a4f28419497f9722a3daafe3b4186f6b6457e08380a380f35b604051631e4fbdf760e01b815260048101849052602490fd5b503461017c57602036600319011261017c576020906040906001600160a01b036102e36115c8565b168152600583522054604051908152f35b503461017c576020806003193601126106cf5760043567ffffffffffffffff81116106cb576103279036906004016115e3565b928093816003938454915b828110610571575061035c610346886118a0565b97610354604051998a6116eb565b8089526118a0565b87870195601f19929183013688378594865b8581106103c0578a8a8a8a60405193838594850191818652518092526040850193925b8281106103a057505050500390f35b83516001600160a01b031685528695509381019392810192600101610391565b876103cf829c9a9b999c611611565b9060018060a01b039182915490871b1c16825289856002938483528460ff60086040842001541615938461053e575b50505050610416575b5050600101999698979961036e565b95919996909a8c99989c959394955b8761042f8d611611565b905490891b1c168b528c8a5260018060408d2001548210156105265781610473918f8f8f90918f8e8e610463604096611611565b9054911b1c16835252200161165e565b5061048a6104968c6040519283918201809561181c565b038781018352826116eb565b5190208b6040516104bd8d82818101948c8c87378c820190838201520380845201826116eb565b519020146104cd57600101610425565b509a50959896979a90946104e48895949395611611565b905490851b1c1689518210156105125781610509918a60019460051b8d0101526117bc565b965b9038610407565b634e487b7160e01b8c52603260045260248cfd5b50509a50959860019195509a96979a9392919361050b565b683635c9adc5dea0000094509060409291866105598a611611565b905490871b1c168352522001541015858e848d6103fe565b61057f819896979598611611565b90546001600160a01b0391891b1c81168952600280875260408a206008015460ff16158061069c575b6105bc575b50506001019693959496610332565b89939499989198979692975b896105d28a611611565b905490851b1c1685528184526001806040872001548210156106895781610613918c6105fd8d611611565b905490881b1c168852848752604088200161165e565b5060405161063681610628888201809561181c565b03601f1981018352826116eb565b519020604051858101908989833761065c87828c81018b838201520380845201826116eb565b5190201461066c576001016105c8565b5050965093610680600191989392986117bc565b955b90386105ad565b5050509650939460019097929197610682565b50816106a784611611565b9054908b1b1c168a52808752683635c9adc5dea000008960408c20015410156105a8565b8280fd5b5080fd5b503461017c578060031936011261017c576020604051683635c9adc5dea000008152f35b503461017c57604036600319011261017c5767ffffffffffffffff6004358181116106cb5761072a903690600401611676565b90602435838111610d4757610743903690600401611676565b338652600260205260ff600860408820015416610d0b578315610cc6573386526002602052600160408720336bffffffffffffffffffffffff60a01b82541617815501600160401b8511610ae1578054858255808610610c55575b508652602086208690845b868310610af557505050338652600260205260026040872001600160401b8211610ae1578054828255808310610a70575b508652602086208692805b83851061091257505050505033845260026020526040842084600382015560326004820155600742910155600354600160401b8110156108fe578060016108329295939501600355611611565b81549060031b9033821b9160018060a01b03901b19161790556040519180602084016020855252604083019060408160051b85010194809387915b83831061089f5788337fc0491772b9ad33b5d74f23266b0e1fc0db4a19f52a5cebabb20438195b11a953898b038aa280f35b909192939496603f198782030186528735601e19833603018112156108fa57820190602082359201918481116108f65780360383136108f6576108e860209283926001956116ca565b99019601949301919061086d565b8a80fd5b8980fd5b634e487b7160e01b85526041600452602485fd5b8035601e19833603018112156108fa578881840135116108fa57808301353603602082850101136108fa5761094784546117cb565b90601f91828111610a32575b508a809282860135116001146109b0579261099260019493602093869591818901356109a1575b50870135908160011b916000199060031b1c19161790565b86555b019301940193916107e5565b8882010185013591503861097a565b85905260208b2090918b5b85840135601f19168110610a1657506001938493602093919285929088830135601f198116106109f5575b5050860135811b018655610995565b8560001960f8858c013560031b161c1991848b0101013516905538806109e6565b90916020600181928286888b01010135815501930191016109bb565b610a6190868d5260208d2060058580868a013501821c8301936020878b013510610a67575b01901c0190611805565b38610953565b93508293610a57565b818852826020892091820191015b818110610a8b57506107da565b8089610a99600193546117cb565b80610aa7575b505001610a7e565b601f8082118514610abe57505081555b8938610a9f565b610ad89084845260208420920160051c8201858301611805565b81835555610ab7565b634e487b7160e01b87526041600452602487fd5b8035601e19873603018112156108fa578881880135116108fa57808701353603602082890101136108fa57610b2a83546117cb565b908a88601f93848111610c1f575b50508092828a013511600114610b955792610b7760019493602093869591818d0135610b86575b508b0135908160011b916000199060031b1c19161790565b85555b019201920191906107a9565b8c820101850135915038610b5f565b84905260208b20909188908c5b82850135601f19168110610c00575060019485946020949193869391929181840135601f19811610610bde575b5090500135811b018555610b7a565b86908460001960f88286013560031b161c199301010135169055388b81610bcf565b9160018294602080948882950101013581550193019101908991610ba2565b60208388610c4d9552209085600591602087838188013501851c860196013510610a675701901c0190611805565b8a8838610b38565b818852856020892091820191015b818110610c70575061079e565b8089610c7e600193546117cb565b80610c8c575b505001610c63565b601f8082118514610ca357505081555b8938610c84565b610cbd9084845260208420920160051c8201858301611805565b81835555610c9c565b60405162461bcd60e51b815260206004820152601c60248201527f4e656564206174206c65617374206f6e65206361706162696c697479000000006044820152606490fd5b60405162461bcd60e51b81526020600482015260146024820152731059d95b9d081a5cc8189b1858dadb1a5cdd195960621b6044820152606490fd5b8480fd5b503461017c57604036600319011261017c57610d656115c8565b60243567ffffffffffffffff81116106cb57610da67fc32d81504c00ce92eaeed0852b187e372b250d24935ca5a510426adbd42cc2579136906004016115e3565b9092610db06118b8565b60018060a01b0316928385526002602052610e3460036040872060088101600160ff1982541617905501918683549355857f11699a7c3771302fe75247e5fd6bdc1c8b4e9525c733d939d5b25c11518a76496040516020815280610e186020820189876116ca565b0390a260405193849384526040602085015260408401916116ca565b0390a280f35b503461017c578060031936011261017c576020600354604051908152f35b503461017c578060031936011261017c57546040516001600160a01b039091168152602090f35b503461017c578060031936011261017c576004546040516001600160a01b039091168152602090f35b503461017c576020806003193601126106cf5760043590610ec76118e4565b683635c9adc5dea000008210610fe45733835260028152610ef060016040852001541515611779565b828160018060a01b03600454166064604051809481936323b872dd60e01b83523360048401523060248401528860448401525af18015610fd957610f3b918591610fac575b5061173b565b3383526002815260036040842001805490838201809211610f9857907ff9db686338528add22bbb0c0ba6ddecd5386497dda282e4ac76477fa248fdb06929155338452600581524260408520556040519283523392a26001805580f35b634e487b7160e01b85526011600452602485fd5b610fcc9150833d8511610fd2575b610fc481836116eb565b810190611723565b38610f35565b503d610fba565b6040513d86823e3d90fd5b6064906040519062461bcd60e51b82526004820152601c60248201527f4d696e696d756d207374616b652069732031303030204f5241434c45000000006044820152fd5b503461017c578060031936011261017c576110416118b8565b80546001600160a01b03198116825581906001600160a01b03167f8be0079c531659141344cd1fd0a4f28419497f9722a3daafe3b4186f6b6457e08280a380f35b503461017c576020806003193601126106cf57600435906110a16118e4565b33835260028152816003604085200154106111b75733835260028152683635c9adc5dea0000060036040852001541015611156575b33835260028152600360408420016110ef8382546116a7565b90553383526006815281604084205562093a80420190814211611142576040519283528201527f34898684241c7fe73e69d259e38c5c5fefa5322536a94bd25e583596a5cde9d160403392a26001805580f35b634e487b7160e01b84526011600452602484fd5b60058152604083205462093a808101809111611142574210156110d6576064906040519062461bcd60e51b82526004820152601760248201527f5374616b65206c6f636b656420666f72203720646179730000000000000000006044820152fd5b6064906040519062461bcd60e51b825260048201526012602482015271496e73756666696369656e74207374616b6560701b6044820152fd5b503461017c57602036600319011261017c576020906040906001600160a01b036112186115c8565b168152600683522054604051908152f35b503461017c576020806003193601126106cf576112446115c8565b61124c6118b8565b6001600160a01b0316808352600282526040832060010154909190611272901515611779565b818352600281526005604084200161128a81546117bc565b905581835260028152600660408420016112a481546117bc565b9055818352600281526004604084200154606481106112cb575b8342600760408320015580f35b60018101809111611142576002919060648112156112f857925b84525260046040832001553880806112be565b506064926112e5565b503461017c578060031936011261017c5761131a6118e4565b338152602060068152604082205480156113b35781839133835260068252826040812055604460018060a01b036004541691604051948593849263a9059cbb60e01b845233600485015260248401525af19081156113a85761138492849261138b575b505061173b565b6001805580f35b6113a19250803d10610fd257610fc481836116eb565b388061137d565b6040513d85823e3d90fd5b60405162461bcd60e51b8152600481018390526015602482015274139bc81c195b991a5b99c81dda5d1a191c985dd85b605a1b6044820152606490fd5b503461017c57602036600319011261017c576004359060035482101561017c57602061141b83611611565b905460405160039290921b1c6001600160a01b03168152f35b503461017c578060031936011261017c57602060405162093a808152f35b503461017c57606036600319011261017c5761146c6115c8565b60243560443567ffffffffffffffff81116115c45761148f9036906004016115e3565b91909261149a6118b8565b6001600160a01b031680855260026020526040852060030154909390821161157f578385526002602052600360408620016114d68382546116a7565b9055838552600260205260046040862001805490600a8211611535575b505090610e347fc32d81504c00ce92eaeed0852b187e372b250d24935ca5a510426adbd42cc257939260405193849384526040602085015260408401916116ca565b600919820191821161156b5755610e347fc32d81504c00ce92eaeed0852b187e372b250d24935ca5a510426adbd42cc2576114f3565b634e487b7160e01b87526011600452602487fd5b60405162461bcd60e51b815260206004820152601b60248201527f496e73756666696369656e74207374616b6520746f20736c61736800000000006044820152606490fd5b8380fd5b600435906001600160a01b03821682036115de57565b600080fd5b9181601f840112156115de5782359167ffffffffffffffff83116115de57602083818601950101116115de57565b6003548110156116485760036000527fc2575a0e9e593c00f959f8c92f12db2869c3395a3b0502d05e2516446f71f85b0190600090565b634e487b7160e01b600052603260045260246000fd5b80548210156116485760005260206000200190600090565b9181601f840112156115de5782359167ffffffffffffffff83116115de576020808501948460051b0101116115de57565b919082039182116116b457565b634e487b7160e01b600052601160045260246000fd5b908060209392818452848401376000828201840152601f01601f1916010190565b90601f8019910116810190811067ffffffffffffffff82111761170d57604052565b634e487b7160e01b600052604160045260246000fd5b908160209103126115de575180151581036115de5790565b1561174257565b60405162461bcd60e51b815260206004820152600f60248201526e151c985b9cd9995c8819985a5b1959608a1b6044820152606490fd5b1561178057565b60405162461bcd60e51b81526020600482015260146024820152731059d95b9d081b9bdd081c9959da5cdd195c995960621b6044820152606490fd5b60001981146116b45760010190565b90600182811c921680156117fb575b60208310146117e557565b634e487b7160e01b600052602260045260246000fd5b91607f16916117da565b818110611810575050565b60008155600101611805565b60009291815461182b816117cb565b926001918083169081156118855750600114611848575b50505050565b9091929394506000526020906020600020906000915b8583106118745750505050019038808080611842565b80548584015291830191810161185e565b60ff1916845250505081151590910201915038808080611842565b67ffffffffffffffff811161170d5760051b60200190565b6000546001600160a01b031633036118cc57565b60405163118cdaa760e01b8152336004820152602490fd5b6002600154146118f5576002600155565b604051633ee5aeb560e01b8152600490fdfea26469706673582212204ade2555432f6a3a48d65a7a1993a56639ce248cae98a3269d4133decf71514b64736f6c63430008180033",
  "linkReferences": {},
  "deployedLinkReferences": {}
}